{
  "address": "0xB51665Bbed4c115fbC634e73195f3dAF36B56225",
  "abi": [
    {
      "inputs": [],
      "stateMutability": "nonpayable",
      "type": "constructor"
    },
    {
      "anonymous": false,
      "inputs": [
        {
          "indexed": true,
          "internalType": "address",
          "name": "_sender",
          "type": "address"
        },
        {
          "indexed": true,
          "internalType": "uint256",
          "name": "_tokenId",
          "type": "uint256"
        }
      ],
      "name": "MintedBadCache721",
      "type": "event"
    },
    {
      "anonymous": false,
      "inputs": [
        {
          "indexed": true,
          "internalType": "address",
          "name": "previousOwner",
          "type": "address"
        },
        {
          "indexed": true,
          "internalType": "address",
          "name": "newOwner",
          "type": "address"
        }
      ],
      "name": "OwnershipTransferred",
      "type": "event"
    },
    {
      "anonymous": false,
      "inputs": [
        {
          "indexed": true,
          "internalType": "address",
          "name": "_sender",
          "type": "address"
        },
        {
          "indexed": true,
          "internalType": "address",
          "name": "_receiver",
          "type": "address"
        },
        {
          "indexed": true,
          "internalType": "uint256",
          "name": "_tokenId",
          "type": "uint256"
        },
        {
          "indexed": false,
          "internalType": "uint256",
          "name": "_amount",
          "type": "uint256"
        }
      ],
      "name": "ReceivedTransferFromOpenSea",
      "type": "event"
    },
    {
      "inputs": [
        {
          "internalType": "uint256",
          "name": "_tokenId",
          "type": "uint256"
        },
        {
          "internalType": "string",
          "name": "_uri",
          "type": "string"
        },
        {
          "internalType": "uint16",
          "name": "_newTokenId",
          "type": "uint16"
        }
      ],
      "name": "addAllowedToken",
      "outputs": [],
      "stateMutability": "nonpayable",
      "type": "function"
    },
    {
      "inputs": [
        {
          "internalType": "address",
          "name": "_account",
          "type": "address"
        },
        {
          "internalType": "uint256",
          "name": "_tokenId",
          "type": "uint256"
        }
      ],
      "name": "checkBalance",
      "outputs": [
        {
          "internalType": "uint256",
          "name": "",
          "type": "uint256"
        }
      ],
      "stateMutability": "view",
      "type": "function"
    },
    {
      "inputs": [],
      "name": "getAddressesThatTransferedIds",
      "outputs": [
        {
          "internalType": "address[]",
          "name": "",
          "type": "address[]"
        }
      ],
      "stateMutability": "view",
      "type": "function"
    },
    {
      "inputs": [],
      "name": "getIds",
      "outputs": [
        {
          "internalType": "uint256[]",
          "name": "",
          "type": "uint256[]"
        }
      ],
      "stateMutability": "view",
      "type": "function"
    },
    {
      "inputs": [],
      "name": "getTransferCount",
      "outputs": [
        {
          "internalType": "uint128",
          "name": "",
          "type": "uint128"
        }
      ],
      "stateMutability": "view",
      "type": "function"
    },
    {
      "inputs": [
        {
          "internalType": "address",
          "name": "",
          "type": "address"
        },
        {
          "internalType": "address",
          "name": "",
          "type": "address"
        },
        {
          "internalType": "uint256[]",
          "name": "",
          "type": "uint256[]"
        },
        {
          "internalType": "uint256[]",
          "name": "",
          "type": "uint256[]"
        },
        {
          "internalType": "bytes",
          "name": "",
          "type": "bytes"
        }
      ],
      "name": "onERC1155BatchReceived",
      "outputs": [
        {
          "internalType": "bytes4",
          "name": "",
          "type": "bytes4"
        }
      ],
      "stateMutability": "nonpayable",
      "type": "function"
    },
    {
      "inputs": [
        {
          "internalType": "address",
          "name": "_sender",
          "type": "address"
        },
        {
          "internalType": "address",
          "name": "_receiver",
          "type": "address"
        },
        {
          "internalType": "uint256",
          "name": "_tokenId",
          "type": "uint256"
        },
        {
          "internalType": "uint256",
          "name": "_amount",
          "type": "uint256"
        },
        {
          "internalType": "bytes",
          "name": "_data",
          "type": "bytes"
        }
      ],
      "name": "onERC1155Received",
      "outputs": [
        {
          "internalType": "bytes4",
          "name": "",
          "type": "bytes4"
        }
      ],
      "stateMutability": "nonpayable",
      "type": "function"
    },
    {
      "inputs": [
        {
          "internalType": "address",
          "name": "",
          "type": "address"
        },
        {
          "internalType": "address",
          "name": "",
          "type": "address"
        },
        {
          "internalType": "uint256",
          "name": "",
          "type": "uint256"
        },
        {
          "internalType": "bytes",
          "name": "",
          "type": "bytes"
        }
      ],
      "name": "onERC721Received",
      "outputs": [
        {
          "internalType": "bytes4",
          "name": "",
          "type": "bytes4"
        }
      ],
      "stateMutability": "nonpayable",
      "type": "function"
    },
    {
      "inputs": [],
      "name": "owner",
      "outputs": [
        {
          "internalType": "address",
          "name": "",
          "type": "address"
        }
      ],
      "stateMutability": "view",
      "type": "function"
    },
    {
      "inputs": [
        {
          "internalType": "uint256",
          "name": "_tokenId",
          "type": "uint256"
        }
      ],
      "name": "ownerOf",
      "outputs": [
        {
          "internalType": "bool",
          "name": "",
          "type": "bool"
        }
      ],
      "stateMutability": "view",
      "type": "function"
    },
    {
      "inputs": [],
      "name": "renounceOwnership",
      "outputs": [],
      "stateMutability": "nonpayable",
      "type": "function"
    },
    {
      "inputs": [
        {
          "internalType": "address",
          "name": "_token",
          "type": "address"
        }
      ],
      "name": "setBadCache721",
      "outputs": [],
      "stateMutability": "nonpayable",
      "type": "function"
    },
    {
      "inputs": [
        {
          "internalType": "address",
          "name": "_token",
          "type": "address"
        }
      ],
      "name": "setProxiedToken",
      "outputs": [],
      "stateMutability": "nonpayable",
      "type": "function"
    },
    {
      "inputs": [
        {
          "internalType": "bytes4",
          "name": "interfaceId",
          "type": "bytes4"
        }
      ],
      "name": "supportsInterface",
      "outputs": [
        {
          "internalType": "bool",
          "name": "",
          "type": "bool"
        }
      ],
      "stateMutability": "view",
      "type": "function"
    },
    {
      "inputs": [
        {
          "internalType": "address",
          "name": "newOwner",
          "type": "address"
        }
      ],
      "name": "transferOwnership",
      "outputs": [],
      "stateMutability": "nonpayable",
      "type": "function"
    }
  ],
  "transactionHash": "0x0b2c5d5198f065a2163f5d6a7d13a476b323a366b9e2a444ef0665f6fbc7663a",
  "args": [],
  "solcInputHash": "fe891867559a2c095ddb07474ed07866",
  "bytecode": "0x608060405273495f947276749ce646f68ac8c248420045cb7b5e600260006101000a81548173ffffffffffffffffffffffffffffffffffffffff021916908373ffffffffffffffffffffffffffffffffffffffff1602179055506000600360006101000a8154816fffffffffffffffffffffffffffffffff02191690836fffffffffffffffffffffffffffffffff16021790555073495f947276749ce646f68ac8c248420045cb7b5e600660006101000a81548173ffffffffffffffffffffffffffffffffffffffff021916908373ffffffffffffffffffffffffffffffffffffffff160217905550348015620000f557600080fd5b5060016000819055506200011e62000112620001c360201b60201c565b620001cb60201b60201c565b6200012e620001c360201b60201c565b73ffffffffffffffffffffffffffffffffffffffff16620001546200029160201b60201c565b73ffffffffffffffffffffffffffffffffffffffff1614620001ad576040517f08c379a0000000000000000000000000000000000000000000000000000000008152600401620001a490620007ac565b60405180910390fd5b620001bd620002bb60201b60201c565b6200086d565b600033905090565b6000600160009054906101000a900473ffffffffffffffffffffffffffffffffffffffff16905081600160006101000a81548173ffffffffffffffffffffffffffffffffffffffff021916908373ffffffffffffffffffffffffffffffffffffffff1602179055508173ffffffffffffffffffffffffffffffffffffffff168173ffffffffffffffffffffffffffffffffffffffff167f8be0079c531659141344cd1fd0a4f28419497f9722a3daafe3b4186f6b6457e060405160405180910390a35050565b6000600160009054906101000a900473ffffffffffffffffffffffffffffffffffffffff16905090565b620003087f334e763c21de04f839ac3980c2558d9e74bbd7230000000000000300000000016040518060800160405280605381526020016200351a6053913960016200057260201b60201c565b620003557f334e763c21de04f839ac3980c2558d9e74bbd723000000000000040000000001604051806080016040528060538152602001620032d56053913960026200057260201b60201c565b620003a27f334e763c21de04f839ac3980c2558d9e74bbd7230000000000000500000000016040518060800160405280605381526020016200356d6053913960036200057260201b60201c565b620003ef7f334e763c21de04f839ac3980c2558d9e74bbd723000000000000060000000001604051806080016040528060538152602001620034746053913960046200057260201b60201c565b6200043c7f334e763c21de04f839ac3980c2558d9e74bbd7230000000000000700000000016040518060800160405280605381526020016200337b6053913960056200057260201b60201c565b620004897f334e763c21de04f839ac3980c2558d9e74bbd723000000000000080000000001604051806080016040528060538152602001620033286053913960066200057260201b60201c565b620004d67f334e763c21de04f839ac3980c2558d9e74bbd723000000000000090000000001604051806080016040528060538152602001620033ce6053913960076200057260201b60201c565b620005237f334e763c21de04f839ac3980c2558d9e74bbd7230000000000000a0000000001604051806080016040528060538152602001620034216053913960086200057260201b60201c565b620005707f334e763c21de04f839ac3980c2558d9e74bbd7230000000000000b0000000001604051806080016040528060538152602001620034c76053913960096200057260201b60201c565b565b62000582620001c360201b60201c565b73ffffffffffffffffffffffffffffffffffffffff16620005a86200029160201b60201c565b73ffffffffffffffffffffffffffffffffffffffff161462000601576040517f08c379a0000000000000000000000000000000000000000000000000000000008152600401620005f890620007ac565b60405180910390fd5b6008839080600181540180825580915050600190039060005260206000200160009091909190915055806009600085815260200190815260200160002060006101000a81548161ffff021916908361ffff160217905550600a8190806001815401808255809150506001900390600052602060002090601091828204019190066002029091909190916101000a81548161ffff021916908361ffff16021790555081600760008361ffff1681526020019081526020016000209080519060200190620006cf929190620006d5565b50505050565b828054620006e390620007df565b90600052602060002090601f01602090048101928262000707576000855562000753565b82601f106200072257805160ff191683800117855562000753565b8280016001018555821562000753579182015b828111156200075257825182559160200191906001019062000735565b5b50905062000762919062000766565b5090565b5b808211156200078157600081600090555060010162000767565b5090565b600062000794602083620007ce565b9150620007a18262000844565b602082019050919050565b60006020820190508181036000830152620007c78162000785565b9050919050565b600082825260208201905092915050565b60006002820490506001821680620007f857607f821691505b602082108114156200080f576200080e62000815565b5b50919050565b7f4e487b7100000000000000000000000000000000000000000000000000000000600052602260045260246000fd5b7f4f776e61626c653a2063616c6c6572206973206e6f7420746865206f776e6572600082015250565b612a58806200087d6000396000f3fe608060405234801561001057600080fd5b50600436106100f55760003560e01c80636df6149a11610097578063bc197c8111610066578063bc197c8114610274578063f12c5869146102a4578063f23a6e61146102c0578063f2fde38b146102f0576100f5565b80636df6149a14610214578063715018a6146102305780638da5cb5b1461023a57806399d2b1b114610258576100f5565b80632b105663116100d35780632b1056631461017857806335b9dec9146101965780634d7b9bd5146101b45780636352211e146101e4576100f5565b806301ffc9a7146100fa578063040e55f51461012a578063150b7a0214610148575b600080fd5b610114600480360381019061010f9190611d31565b61030c565b60405161012191906121af565b60405180910390f35b610132610386565b60405161013f9190612305565b60405180910390f35b610162600480360381019061015d9190611baa565b6103ac565b60405161016f91906121ca565b60405180910390f35b6101806103c0565b60405161018d919061218d565b60405180910390f35b61019e61059d565b6040516101ab919061216b565b60405180910390f35b6101ce60048036038101906101c99190611cc4565b61062b565b6040516101db9190612320565b60405180910390f35b6101fe60048036038101906101f99190611d5e565b610798565b60405161020b91906121af565b60405180910390f35b61022e60048036038101906102299190611aae565b610850565b005b610238610980565b005b610242610a08565b60405161024f91906120f0565b60405180910390f35b610272600480360381019061026d9190611db8565b610a32565b005b61028e60048036038101906102899190611adb565b610b80565b60405161029b91906121ca565b60405180910390f35b6102be60048036038101906102b99190611aae565b610b95565b005b6102da60048036038101906102d59190611c2d565b610cc5565b6040516102e791906121ca565b60405180910390f35b61030a60048036038101906103059190611aae565b610d5b565b005b60007f4e2312e0000000000000000000000000000000000000000000000000000000007bffffffffffffffffffffffffffffffffffffffffffffffffffffffff1916827bffffffffffffffffffffffffffffffffffffffffffffffffffffffff1916148061037f575061037e82610e53565b5b9050919050565b6000600360009054906101000a90046fffffffffffffffffffffffffffffffff16905090565b600063150b7a0260e01b9050949350505050565b60606000600360009054906101000a90046fffffffffffffffffffffffffffffffff166fffffffffffffffffffffffffffffffff1667ffffffffffffffff81111561040e5761040d6126b5565b5b60405190808252806020026020018201604052801561043c5781602001602082028036833780820191505090505b50905060005b600360009054906101000a90046fffffffffffffffffffffffffffffffff166fffffffffffffffffffffffffffffffff16816fffffffffffffffffffffffffffffffff1610156105955760056000826fffffffffffffffffffffffffffffffff166fffffffffffffffffffffffffffffffff16815260200190815260200160002060006004836fffffffffffffffffffffffffffffffff16815481106104eb576104ea612686565b5b9060005260206000200160009054906101000a900473ffffffffffffffffffffffffffffffffffffffff1673ffffffffffffffffffffffffffffffffffffffff1673ffffffffffffffffffffffffffffffffffffffff1681526020019081526020016000205482826fffffffffffffffffffffffffffffffff168151811061057657610575612686565b5b602002602001018181525050808061058d906125ef565b915050610442565b508091505090565b6060600480548060200260200160405190810160405280929190818152602001828054801561062157602002820191906000526020600020905b8160009054906101000a900473ffffffffffffffffffffffffffffffffffffffff1673ffffffffffffffffffffffffffffffffffffffff16815260200190600101908083116105d7575b5050505050905090565b60008073ffffffffffffffffffffffffffffffffffffffff168373ffffffffffffffffffffffffffffffffffffffff16141561069c576040517f08c379a000000000000000000000000000000000000000000000000000000000815260040161069390612285565b60405180910390fd5b6106a582610ebd565b6106e4576040517f08c379a00000000000000000000000000000000000000000000000000000000081526004016106db906122c5565b60405180910390fd5b600260009054906101000a900473ffffffffffffffffffffffffffffffffffffffff1673ffffffffffffffffffffffffffffffffffffffff1662fdd58e84846040518363ffffffff1660e01b8152600401610740929190612142565b60206040518083038186803b15801561075857600080fd5b505afa15801561076c573d6000803e3d6000fd5b505050506040513d601f19601f820116820180604052508101906107909190611d8b565b905092915050565b600080600260009054906101000a900473ffffffffffffffffffffffffffffffffffffffff1673ffffffffffffffffffffffffffffffffffffffff1662fdd58e33856040518363ffffffff1660e01b81526004016107f7929190612142565b60206040518083038186803b15801561080f57600080fd5b505afa158015610823573d6000803e3d6000fd5b505050506040513d601f19601f820116820180604052508101906108479190611d8b565b14159050919050565b610858610f44565b73ffffffffffffffffffffffffffffffffffffffff16610876610a08565b73ffffffffffffffffffffffffffffffffffffffff16146108cc576040517f08c379a00000000000000000000000000000000000000000000000000000000081526004016108c3906122a5565b60405180910390fd5b600073ffffffffffffffffffffffffffffffffffffffff168173ffffffffffffffffffffffffffffffffffffffff16141561093c576040517f08c379a000000000000000000000000000000000000000000000000000000000815260040161093390612205565b60405180910390fd5b80600260006101000a81548173ffffffffffffffffffffffffffffffffffffffff021916908373ffffffffffffffffffffffffffffffffffffffff16021790555050565b610988610f44565b73ffffffffffffffffffffffffffffffffffffffff166109a6610a08565b73ffffffffffffffffffffffffffffffffffffffff16146109fc576040517f08c379a00000000000000000000000000000000000000000000000000000000081526004016109f3906122a5565b60405180910390fd5b610a066000610f4c565b565b6000600160009054906101000a900473ffffffffffffffffffffffffffffffffffffffff16905090565b610a3a610f44565b73ffffffffffffffffffffffffffffffffffffffff16610a58610a08565b73ffffffffffffffffffffffffffffffffffffffff1614610aae576040517f08c379a0000000000000000000000000000000000000000000000000000000008152600401610aa5906122a5565b60405180910390fd5b6008839080600181540180825580915050600190039060005260206000200160009091909190915055806009600085815260200190815260200160002060006101000a81548161ffff021916908361ffff160217905550600a8190806001815401808255809150506001900390600052602060002090601091828204019190066002029091909190916101000a81548161ffff021916908361ffff16021790555081600760008361ffff1681526020019081526020016000209080519060200190610b7a92919061180f565b50505050565b600063bc197c8160e01b905095945050505050565b610b9d610f44565b73ffffffffffffffffffffffffffffffffffffffff16610bbb610a08565b73ffffffffffffffffffffffffffffffffffffffff1614610c11576040517f08c379a0000000000000000000000000000000000000000000000000000000008152600401610c08906122a5565b60405180910390fd5b600073ffffffffffffffffffffffffffffffffffffffff168173ffffffffffffffffffffffffffffffffffffffff161415610c81576040517f08c379a0000000000000000000000000000000000000000000000000000000008152600401610c7890612205565b60405180910390fd5b80600660006101000a81548173ffffffffffffffffffffffffffffffffffffffff021916908373ffffffffffffffffffffffffffffffffffffffff16021790555050565b6000610cd18685611012565b50610cdc8685611251565b50838573ffffffffffffffffffffffffffffffffffffffff168773ffffffffffffffffffffffffffffffffffffffff167f6304c1ee3c752f0228b32650bfddc4332b2a60084c685fdd9e9ee74201fa6e6f86604051610d3b9190612320565b60405180910390a4610d508686868686611669565b905095945050505050565b610d63610f44565b73ffffffffffffffffffffffffffffffffffffffff16610d81610a08565b73ffffffffffffffffffffffffffffffffffffffff1614610dd7576040517f08c379a0000000000000000000000000000000000000000000000000000000008152600401610dce906122a5565b60405180910390fd5b600073ffffffffffffffffffffffffffffffffffffffff168173ffffffffffffffffffffffffffffffffffffffff161415610e47576040517f08c379a0000000000000000000000000000000000000000000000000000000008152600401610e3e906121e5565b60405180910390fd5b610e5081610f4c565b50565b60007f01ffc9a7000000000000000000000000000000000000000000000000000000007bffffffffffffffffffffffffffffffffffffffffffffffffffffffff1916827bffffffffffffffffffffffffffffffffffffffffffffffffffffffff1916149050919050565b600080600090505b600880549050816fffffffffffffffffffffffffffffffff161015610f3957826008826fffffffffffffffffffffffffffffffff1681548110610f0b57610f0a612686565b5b90600052602060002001541415610f26576001915050610f3f565b8080610f31906125ef565b915050610ec5565b50600090505b919050565b600033905090565b6000600160009054906101000a900473ffffffffffffffffffffffffffffffffffffffff16905081600160006101000a81548173ffffffffffffffffffffffffffffffffffffffff021916908373ffffffffffffffffffffffffffffffffffffffff1602179055508173ffffffffffffffffffffffffffffffffffffffff168173ffffffffffffffffffffffffffffffffffffffff167f8be0079c531659141344cd1fd0a4f28419497f9722a3daafe3b4186f6b6457e060405160405180910390a35050565b60008073ffffffffffffffffffffffffffffffffffffffff168373ffffffffffffffffffffffffffffffffffffffff161415611083576040517f08c379a000000000000000000000000000000000000000000000000000000000815260040161107a90612245565b60405180910390fd5b61108c82610ebd565b6110cb576040517f08c379a00000000000000000000000000000000000000000000000000000000081526004016110c2906122c5565b60405180910390fd5b6004839080600181540180825580915050600190039060005260206000200160009091909190916101000a81548173ffffffffffffffffffffffffffffffffffffffff021916908373ffffffffffffffffffffffffffffffffffffffff1602179055508160056000600360009054906101000a90046fffffffffffffffffffffffffffffffff166fffffffffffffffffffffffffffffffff166fffffffffffffffffffffffffffffffff16815260200190815260200160002060008573ffffffffffffffffffffffffffffffffffffffff1673ffffffffffffffffffffffffffffffffffffffff168152602001908152602001600020819055506003600081819054906101000a90046fffffffffffffffffffffffffffffffff16809291906111f3906125ef565b91906101000a8154816fffffffffffffffffffffffffffffffff02191690836fffffffffffffffffffffffffffffffff16021790555050600360009054906101000a90046fffffffffffffffffffffffffffffffff16905092915050565b60008073ffffffffffffffffffffffffffffffffffffffff168373ffffffffffffffffffffffffffffffffffffffff1614156112c2576040517f08c379a00000000000000000000000000000000000000000000000000000000081526004016112b990612225565b60405180910390fd5b6112cb82610ebd565b61130a576040517f08c379a0000000000000000000000000000000000000000000000000000000008152600401611301906122c5565b60405180910390fd5b60006009600084815260200190815260200160002060009054906101000a900461ffff1661ffff169050600660009054906101000a900473ffffffffffffffffffffffffffffffffffffffff1673ffffffffffffffffffffffffffffffffffffffff16634f558e79826040518263ffffffff1660e01b815260040161138f9190612320565b60206040518083038186803b1580156113a757600080fd5b505afa1580156113bb573d6000803e3d6000fd5b505050506040513d601f19601f820116820180604052508101906113df9190611d04565b1561141f576040517f08c379a0000000000000000000000000000000000000000000000000000000008152600401611416906122e5565b60405180910390fd5b6000811415611463576040517f08c379a000000000000000000000000000000000000000000000000000000000815260040161145a90612265565b60405180910390fd5b600660009054906101000a900473ffffffffffffffffffffffffffffffffffffffff1673ffffffffffffffffffffffffffffffffffffffff166340c10f1930836040518363ffffffff1660e01b81526004016114c0929190612142565b600060405180830381600087803b1580156114da57600080fd5b505af11580156114ee573d6000803e3d6000fd5b50505050600660009054906101000a900473ffffffffffffffffffffffffffffffffffffffff1673ffffffffffffffffffffffffffffffffffffffff166357f7789e8261153a8461167e565b6040518363ffffffff1660e01b815260040161155792919061233b565b600060405180830381600087803b15801561157157600080fd5b505af1158015611585573d6000803e3d6000fd5b50505050600660009054906101000a900473ffffffffffffffffffffffffffffffffffffffff1673ffffffffffffffffffffffffffffffffffffffff166342842e0e3086846040518463ffffffff1660e01b81526004016115e89392919061210b565b600060405180830381600087803b15801561160257600080fd5b505af1158015611616573d6000803e3d6000fd5b50505050808473ffffffffffffffffffffffffffffffffffffffff167fc9df5098516ab2a8b9281c29482b47b41af365e6e56ecb40909bdc960bda328160405160405180910390a3600191505092915050565b600063f23a6e6160e01b905095945050505050565b60606116898261176b565b6116c8576040517f08c379a00000000000000000000000000000000000000000000000000000000081526004016116bf906122c5565b60405180910390fd5b6007600083815260200190815260200160002080546116e69061258c565b80601f01602080910402602001604051908101604052809291908181526020018280546117129061258c565b801561175f5780601f106117345761010080835404028352916020019161175f565b820191906000526020600020905b81548152906001019060200180831161174257829003601f168201915b50505050509050919050565b600080600090505b600a80549050816fffffffffffffffffffffffffffffffff1610156118045782600a826fffffffffffffffffffffffffffffffff16815481106117b9576117b8612686565b5b90600052602060002090601091828204019190066002029054906101000a900461ffff1661ffff1614156117f157600191505061180a565b80806117fc906125ef565b915050611773565b50600090505b919050565b82805461181b9061258c565b90600052602060002090601f01602090048101928261183d5760008555611884565b82601f1061185657805160ff1916838001178555611884565b82800160010185558215611884579182015b82811115611883578251825591602001919060010190611868565b5b5090506118919190611895565b5090565b5b808211156118ae576000816000905550600101611896565b5090565b60006118c56118c084612390565b61236b565b905080838252602082019050828560208602820111156118e8576118e76126e9565b5b60005b8581101561191857816118fe8882611a84565b8452602084019350602083019250506001810190506118eb565b5050509392505050565b6000611935611930846123bc565b61236b565b905082815260208101848484011115611951576119506126ee565b5b61195c84828561254a565b509392505050565b6000611977611972846123ed565b61236b565b905082815260208101848484011115611993576119926126ee565b5b61199e84828561254a565b509392505050565b6000813590506119b5816129af565b92915050565b600082601f8301126119d0576119cf6126e4565b5b81356119e08482602086016118b2565b91505092915050565b6000815190506119f8816129c6565b92915050565b600081359050611a0d816129dd565b92915050565b600082601f830112611a2857611a276126e4565b5b8135611a38848260208601611922565b91505092915050565b600082601f830112611a5657611a556126e4565b5b8135611a66848260208601611964565b91505092915050565b600081359050611a7e816129f4565b92915050565b600081359050611a9381612a0b565b92915050565b600081519050611aa881612a0b565b92915050565b600060208284031215611ac457611ac36126f8565b5b6000611ad2848285016119a6565b91505092915050565b600080600080600060a08688031215611af757611af66126f8565b5b6000611b05888289016119a6565b9550506020611b16888289016119a6565b945050604086013567ffffffffffffffff811115611b3757611b366126f3565b5b611b43888289016119bb565b935050606086013567ffffffffffffffff811115611b6457611b636126f3565b5b611b70888289016119bb565b925050608086013567ffffffffffffffff811115611b9157611b906126f3565b5b611b9d88828901611a13565b9150509295509295909350565b60008060008060808587031215611bc457611bc36126f8565b5b6000611bd2878288016119a6565b9450506020611be3878288016119a6565b9350506040611bf487828801611a84565b925050606085013567ffffffffffffffff811115611c1557611c146126f3565b5b611c2187828801611a13565b91505092959194509250565b600080600080600060a08688031215611c4957611c486126f8565b5b6000611c57888289016119a6565b9550506020611c68888289016119a6565b9450506040611c7988828901611a84565b9350506060611c8a88828901611a84565b925050608086013567ffffffffffffffff811115611cab57611caa6126f3565b5b611cb788828901611a13565b9150509295509295909350565b60008060408385031215611cdb57611cda6126f8565b5b6000611ce9858286016119a6565b9250506020611cfa85828601611a84565b9150509250929050565b600060208284031215611d1a57611d196126f8565b5b6000611d28848285016119e9565b91505092915050565b600060208284031215611d4757611d466126f8565b5b6000611d55848285016119fe565b91505092915050565b600060208284031215611d7457611d736126f8565b5b6000611d8284828501611a84565b91505092915050565b600060208284031215611da157611da06126f8565b5b6000611daf84828501611a99565b91505092915050565b600080600060608486031215611dd157611dd06126f8565b5b6000611ddf86828701611a84565b935050602084013567ffffffffffffffff811115611e0057611dff6126f3565b5b611e0c86828701611a41565b9250506040611e1d86828701611a6f565b9150509250925092565b6000611e338383611e57565b60208301905092915050565b6000611e4b83836120d2565b60208301905092915050565b611e60816124ac565b82525050565b611e6f816124ac565b82525050565b6000611e808261243e565b611e8a8185612479565b9350611e958361241e565b8060005b83811015611ec6578151611ead8882611e27565b9750611eb88361245f565b925050600181019050611e99565b5085935050505092915050565b6000611ede82612449565b611ee8818561248a565b9350611ef38361242e565b8060005b83811015611f24578151611f0b8882611e3f565b9750611f168361246c565b925050600181019050611ef7565b5085935050505092915050565b611f3a816124be565b82525050565b611f49816124ca565b82525050565b6000611f5a82612454565b611f64818561249b565b9350611f74818560208601612559565b611f7d816126fd565b840191505092915050565b6000611f9560268361249b565b9150611fa08261270e565b604082019050919050565b6000611fb860358361249b565b9150611fc38261275d565b604082019050919050565b6000611fdb603c8361249b565b9150611fe6826127ac565b604082019050919050565b6000611ffe60348361249b565b9150612009826127fb565b604082019050919050565b6000612021602c8361249b565b915061202c8261284a565b604082019050919050565b600061204460368361249b565b915061204f82612899565b604082019050919050565b600061206760208361249b565b9150612072826128e8565b602082019050919050565b600061208a60288361249b565b915061209582612911565b604082019050919050565b60006120ad60248361249b565b91506120b882612960565b604082019050919050565b6120cc816124f6565b82525050565b6120db81612540565b82525050565b6120ea81612540565b82525050565b60006020820190506121056000830184611e66565b92915050565b60006060820190506121206000830186611e66565b61212d6020830185611e66565b61213a60408301846120e1565b949350505050565b60006040820190506121576000830185611e66565b61216460208301846120e1565b9392505050565b600060208201905081810360008301526121858184611e75565b905092915050565b600060208201905081810360008301526121a78184611ed3565b905092915050565b60006020820190506121c46000830184611f31565b92915050565b60006020820190506121df6000830184611f40565b92915050565b600060208201905081810360008301526121fe81611f88565b9050919050565b6000602082019050818103600083015261221e81611fab565b9050919050565b6000602082019050818103600083015261223e81611fce565b9050919050565b6000602082019050818103600083015261225e81611ff1565b9050919050565b6000602082019050818103600083015261227e81612014565b9050919050565b6000602082019050818103600083015261229e81612037565b9050919050565b600060208201905081810360008301526122be8161205a565b9050919050565b600060208201905081810360008301526122de8161207d565b9050919050565b600060208201905081810360008301526122fe816120a0565b9050919050565b600060208201905061231a60008301846120c3565b92915050565b600060208201905061233560008301846120e1565b92915050565b600060408201905061235060008301856120e1565b81810360208301526123628184611f4f565b90509392505050565b6000612375612386565b905061238182826125be565b919050565b6000604051905090565b600067ffffffffffffffff8211156123ab576123aa6126b5565b5b602082029050602081019050919050565b600067ffffffffffffffff8211156123d7576123d66126b5565b5b6123e0826126fd565b9050602081019050919050565b600067ffffffffffffffff821115612408576124076126b5565b5b612411826126fd565b9050602081019050919050565b6000819050602082019050919050565b6000819050602082019050919050565b600081519050919050565b600081519050919050565b600081519050919050565b6000602082019050919050565b6000602082019050919050565b600082825260208201905092915050565b600082825260208201905092915050565b600082825260208201905092915050565b60006124b782612520565b9050919050565b60008115159050919050565b60007fffffffff0000000000000000000000000000000000000000000000000000000082169050919050565b60006fffffffffffffffffffffffffffffffff82169050919050565b600061ffff82169050919050565b600073ffffffffffffffffffffffffffffffffffffffff82169050919050565b6000819050919050565b82818337600083830152505050565b60005b8381101561257757808201518184015260208101905061255c565b83811115612586576000848401525b50505050565b600060028204905060018216806125a457607f821691505b602082108114156125b8576125b7612657565b5b50919050565b6125c7826126fd565b810181811067ffffffffffffffff821117156125e6576125e56126b5565b5b80604052505050565b60006125fa826124f6565b91506fffffffffffffffffffffffffffffffff82141561261d5761261c612628565b5b600182019050919050565b7f4e487b7100000000000000000000000000000000000000000000000000000000600052601160045260246000fd5b7f4e487b7100000000000000000000000000000000000000000000000000000000600052602260045260246000fd5b7f4e487b7100000000000000000000000000000000000000000000000000000000600052603260045260246000fd5b7f4e487b7100000000000000000000000000000000000000000000000000000000600052604160045260246000fd5b600080fd5b600080fd5b600080fd5b600080fd5b600080fd5b6000601f19601f8301169050919050565b7f4f776e61626c653a206e6577206f776e657220697320746865207a65726f206160008201527f6464726573730000000000000000000000000000000000000000000000000000602082015250565b7f42616443616368654272696467653a2063616e206e6f7420736574206173207060008201527f726f7879207468652061646472657373207a65726f0000000000000000000000602082015250565b7f42616443616368654272696467653a2063616e206e6f74206d696e742061206e60008201527f657720746f6b656e20746f20746865207a65726f206164647265737300000000602082015250565b7f42616443616368654272696467653a2063616e206e6f7420757064617465206660008201527f726f6d20746865207a65726f2061646472657373000000000000000000000000602082015250565b7f42616443616368654272696467653a206e657720746f6b656e20696420646f6560008201527f73206e6f74206578697374730000000000000000000000000000000000000000602082015250565b7f42616443616368654272696467653a2063616e206e6f7420636865636b20626160008201527f6c616e636520666f722061646472657373207a65726f00000000000000000000602082015250565b7f4f776e61626c653a2063616c6c6572206973206e6f7420746865206f776e6572600082015250565b7f42616443616368654272696467653a20746f6b656e20696420646f6573206e6f60008201527f7420657869737473000000000000000000000000000000000000000000000000602082015250565b7f42616443616368654272696467653a20746f6b656e20616c7265616479206d6960008201527f6e74656400000000000000000000000000000000000000000000000000000000602082015250565b6129b8816124ac565b81146129c357600080fd5b50565b6129cf816124be565b81146129da57600080fd5b50565b6129e6816124ca565b81146129f157600080fd5b50565b6129fd81612512565b8114612a0857600080fd5b50565b612a1481612540565b8114612a1f57600080fd5b5056fea2646970667358221220eb5cdd6ba337ca79411f6184a91a37745e9114098d3fddd725442dbc5d6b948064736f6c6343000806003368747470733a2f2f697066732e696f2f697066732f516d536766615137734b385367755534753177545172557a656f4a384b70744157324b67566d6936415a6f6d426a3f66696c656e616d653d322e6a70656768747470733a2f2f697066732e696f2f697066732f516d536766615137734b385367755534753177545172557a656f4a384b70744157324b67566d6936415a6f6d426a3f66696c656e616d653d362e6a70656768747470733a2f2f697066732e696f2f697066732f516d536766615137734b385367755534753177545172557a656f4a384b70744157324b67566d6936415a6f6d426a3f66696c656e616d653d352e6a70656768747470733a2f2f697066732e696f2f697066732f516d536766615137734b385367755534753177545172557a656f4a384b70744157324b67566d6936415a6f6d426a3f66696c656e616d653d372e6a70656768747470733a2f2f697066732e696f2f697066732f516d536766615137734b385367755534753177545172557a656f4a384b70744157324b67566d6936415a6f6d426a3f66696c656e616d653d382e6a70656768747470733a2f2f697066732e696f2f697066732f516d536766615137734b385367755534753177545172557a656f4a384b70744157324b67566d6936415a6f6d426a3f66696c656e616d653d342e6a70656768747470733a2f2f697066732e696f2f697066732f516d536766615137734b385367755534753177545172557a656f4a384b70744157324b67566d6936415a6f6d426a3f66696c656e616d653d392e6a70656768747470733a2f2f697066732e696f2f697066732f516d536766615137734b385367755534753177545172557a656f4a384b70744157324b67566d6936415a6f6d426a3f66696c656e616d653d312e6a70656768747470733a2f2f697066732e696f2f697066732f516d536766615137734b385367755534753177545172557a656f4a384b70744157324b67566d6936415a6f6d426a3f66696c656e616d653d332e6a706567",
  "devdoc": {
    "details": "This contracts bridges an OpenSea ERC1155 into the new Badcache ERC721.      Only owners of BadCache from OpenSea can mint new tokens once they transfer their NFT ownership to the BadcacheBridge.      An ERC721 will be minted once transfer is received",
    "kind": "dev",
    "methods": {
      "addAllowedToken(uint256,string,uint16)": {
        "details": "the owner can add new tokens into the allowed tokens list"
      },
      "checkBalance(address,uint256)": {
        "details": "check balance of an account and an id for the OpenSea ERC1155"
      },
      "constructor": {
        "details": "Initiating the tokens allowed to be received"
      },
      "getAddressesThatTransferedIds()": {
        "details": "get addreses that already sent a token to us"
      },
      "getIds()": {
        "details": "get ids of tokens that were transfered"
      },
      "getTransferCount()": {
        "details": "get total transfer count"
      },
      "onERC1155Received(address,address,uint256,uint256,bytes)": {
        "details": "Triggered when we receive an ERC1155 from OpenSea and calls {mintBasedOnReceiving} Requirements: - `_sender` cannot be the zero address. - `_tokenId` needs to be part of our allowedIds. - `_tokenId` must not be minted before. Emits a {Transfer} event."
      },
      "onERC721Received(address,address,uint256,bytes)": {
        "details": "See {IERC721Receiver-onERC721Received}. Always returns `IERC721Receiver.onERC721Received.selector`."
      },
      "owner()": {
        "details": "Returns the address of the current owner."
      },
      "ownerOf(uint256)": {
        "details": "check owner of a token on OpenSea token"
      },
      "renounceOwnership()": {
        "details": "Leaves the contract without owner. It will not be possible to call `onlyOwner` functions anymore. Can only be called by the current owner. NOTE: Renouncing ownership will leave the contract without an owner, thereby removing any functionality that is only available to the owner."
      },
      "setBadCache721(address)": {
        "details": "sets proxied token for BadCache721. You need to transfer the ownership of the 721 to the Bridge so the bridge can mint and transfer Requirements: - `_token` must not be address zero"
      },
      "setProxiedToken(address)": {
        "details": "sets proxied token for OpenSea. You need to get it from the mainnet https://etherscan.io/address/0x495f947276749ce646f68ac8c248420045cb7b5e Requirements: - `_token` must not be address zero"
      },
      "supportsInterface(bytes4)": {
        "details": "See {IERC165-supportsInterface}."
      },
      "transferOwnership(address)": {
        "details": "Transfers ownership of the contract to a new account (`newOwner`). Can only be called by the current owner."
      }
    },
    "version": 1
  },
  "userdoc": {
    "kind": "user",
    "methods": {},
    "version": 1
  },
  "storageLayout": {
    "storage": [
      {
        "astId": 114,
        "contract": "contracts/BadCacheBridge.sol:BadCacheBridge",
        "label": "_status",
        "offset": 0,
        "slot": "0",
        "type": "t_uint256"
      },
      {
        "astId": 7,
        "contract": "contracts/BadCacheBridge.sol:BadCacheBridge",
        "label": "_owner",
        "offset": 0,
        "slot": "1",
        "type": "t_address"
      },
      {
        "astId": 3267,
        "contract": "contracts/BadCacheBridge.sol:BadCacheBridge",
        "label": "openseaToken",
        "offset": 0,
        "slot": "2",
        "type": "t_address"
      },
      {
        "astId": 3270,
        "contract": "contracts/BadCacheBridge.sol:BadCacheBridge",
        "label": "totalTransfers",
        "offset": 0,
        "slot": "3",
        "type": "t_uint128"
      },
      {
        "astId": 3273,
        "contract": "contracts/BadCacheBridge.sol:BadCacheBridge",
        "label": "senders",
        "offset": 0,
        "slot": "4",
        "type": "t_array(t_address)dyn_storage"
      },
      {
        "astId": 3279,
        "contract": "contracts/BadCacheBridge.sol:BadCacheBridge",
        "label": "transfers",
        "offset": 0,
        "slot": "5",
        "type": "t_mapping(t_uint128,t_mapping(t_address,t_uint256))"
      },
      {
        "astId": 3282,
        "contract": "contracts/BadCacheBridge.sol:BadCacheBridge",
        "label": "badCache721",
        "offset": 0,
        "slot": "6",
        "type": "t_address"
      },
      {
        "astId": 3286,
        "contract": "contracts/BadCacheBridge.sol:BadCacheBridge",
        "label": "tokenURIs",
        "offset": 0,
        "slot": "7",
        "type": "t_mapping(t_uint256,t_string_storage)"
      },
      {
        "astId": 3289,
        "contract": "contracts/BadCacheBridge.sol:BadCacheBridge",
        "label": "allowedTokens",
        "offset": 0,
        "slot": "8",
        "type": "t_array(t_uint256)dyn_storage"
      },
      {
        "astId": 3293,
        "contract": "contracts/BadCacheBridge.sol:BadCacheBridge",
        "label": "oldNewTokenIdPairs",
        "offset": 0,
        "slot": "9",
        "type": "t_mapping(t_uint256,t_uint16)"
      },
      {
        "astId": 3296,
        "contract": "contracts/BadCacheBridge.sol:BadCacheBridge",
        "label": "newTokenIds",
        "offset": 0,
        "slot": "10",
        "type": "t_array(t_uint16)dyn_storage"
      }
    ],
    "types": {
      "t_address": {
        "encoding": "inplace",
        "label": "address",
        "numberOfBytes": "20"
      },
      "t_array(t_address)dyn_storage": {
        "base": "t_address",
        "encoding": "dynamic_array",
        "label": "address[]",
        "numberOfBytes": "32"
      },
      "t_array(t_uint16)dyn_storage": {
        "base": "t_uint16",
        "encoding": "dynamic_array",
        "label": "uint16[]",
        "numberOfBytes": "32"
      },
      "t_array(t_uint256)dyn_storage": {
        "base": "t_uint256",
        "encoding": "dynamic_array",
        "label": "uint256[]",
        "numberOfBytes": "32"
      },
      "t_mapping(t_address,t_uint256)": {
        "encoding": "mapping",
        "key": "t_address",
        "label": "mapping(address => uint256)",
        "numberOfBytes": "32",
        "value": "t_uint256"
      },
      "t_mapping(t_uint128,t_mapping(t_address,t_uint256))": {
        "encoding": "mapping",
        "key": "t_uint128",
        "label": "mapping(uint128 => mapping(address => uint256))",
        "numberOfBytes": "32",
        "value": "t_mapping(t_address,t_uint256)"
      },
      "t_mapping(t_uint256,t_string_storage)": {
        "encoding": "mapping",
        "key": "t_uint256",
        "label": "mapping(uint256 => string)",
        "numberOfBytes": "32",
        "value": "t_string_storage"
      },
      "t_mapping(t_uint256,t_uint16)": {
        "encoding": "mapping",
        "key": "t_uint256",
        "label": "mapping(uint256 => uint16)",
        "numberOfBytes": "32",
        "value": "t_uint16"
      },
      "t_string_storage": {
        "encoding": "bytes",
        "label": "string",
        "numberOfBytes": "32"
      },
      "t_uint128": {
        "encoding": "inplace",
        "label": "uint128",
        "numberOfBytes": "16"
      },
      "t_uint16": {
        "encoding": "inplace",
        "label": "uint16",
        "numberOfBytes": "2"
      },
      "t_uint256": {
        "encoding": "inplace",
        "label": "uint256",
        "numberOfBytes": "32"
      }
    }
  }
}