{
  "address": "0xc3Bef8867CEdC79C2a1864e0C539ADb08d180bc6",
  "abi": [
    {
      "inputs": [
        {
          "internalType": "string",
          "name": "name_",
          "type": "string"
        },
        {
          "internalType": "string",
          "name": "symbol_",
          "type": "string"
        }
      ],
      "stateMutability": "nonpayable",
      "type": "constructor"
    },
    {
      "anonymous": false,
      "inputs": [
        {
          "indexed": true,
          "internalType": "address",
          "name": "owner",
          "type": "address"
        },
        {
          "indexed": true,
          "internalType": "address",
          "name": "approved",
          "type": "address"
        },
        {
          "indexed": true,
          "internalType": "uint256",
          "name": "tokenId",
          "type": "uint256"
        }
      ],
      "name": "Approval",
      "type": "event"
    },
    {
      "anonymous": false,
      "inputs": [
        {
          "indexed": true,
          "internalType": "address",
          "name": "owner",
          "type": "address"
        },
        {
          "indexed": true,
          "internalType": "address",
          "name": "operator",
          "type": "address"
        },
        {
          "indexed": false,
          "internalType": "bool",
          "name": "approved",
          "type": "bool"
        }
      ],
      "name": "ApprovalForAll",
      "type": "event"
    },
    {
      "anonymous": false,
      "inputs": [
        {
          "indexed": true,
          "internalType": "address",
          "name": "previousOwner",
          "type": "address"
        },
        {
          "indexed": true,
          "internalType": "address",
          "name": "newOwner",
          "type": "address"
        }
      ],
      "name": "OwnershipTransferred",
      "type": "event"
    },
    {
      "anonymous": false,
      "inputs": [
        {
          "indexed": true,
          "internalType": "address",
          "name": "from",
          "type": "address"
        },
        {
          "indexed": true,
          "internalType": "address",
          "name": "to",
          "type": "address"
        },
        {
          "indexed": true,
          "internalType": "uint256",
          "name": "tokenId",
          "type": "uint256"
        }
      ],
      "name": "Transfer",
      "type": "event"
    },
    {
      "inputs": [
        {
          "internalType": "address",
          "name": "to",
          "type": "address"
        },
        {
          "internalType": "uint256",
          "name": "tokenId",
          "type": "uint256"
        }
      ],
      "name": "approve",
      "outputs": [],
      "stateMutability": "nonpayable",
      "type": "function"
    },
    {
      "inputs": [
        {
          "internalType": "address",
          "name": "owner",
          "type": "address"
        }
      ],
      "name": "balanceOf",
      "outputs": [
        {
          "internalType": "uint256",
          "name": "",
          "type": "uint256"
        }
      ],
      "stateMutability": "view",
      "type": "function"
    },
    {
      "inputs": [
        {
          "internalType": "uint256",
          "name": "_tokenId",
          "type": "uint256"
        }
      ],
      "name": "exists",
      "outputs": [
        {
          "internalType": "bool",
          "name": "",
          "type": "bool"
        }
      ],
      "stateMutability": "view",
      "type": "function"
    },
    {
      "inputs": [
        {
          "internalType": "uint256",
          "name": "tokenId",
          "type": "uint256"
        }
      ],
      "name": "getApproved",
      "outputs": [
        {
          "internalType": "address",
          "name": "",
          "type": "address"
        }
      ],
      "stateMutability": "view",
      "type": "function"
    },
    {
      "inputs": [
        {
          "internalType": "address",
          "name": "owner",
          "type": "address"
        },
        {
          "internalType": "address",
          "name": "operator",
          "type": "address"
        }
      ],
      "name": "isApprovedForAll",
      "outputs": [
        {
          "internalType": "bool",
          "name": "",
          "type": "bool"
        }
      ],
      "stateMutability": "view",
      "type": "function"
    },
    {
      "inputs": [
        {
          "internalType": "address",
          "name": "_owner",
          "type": "address"
        },
        {
          "internalType": "uint256",
          "name": "_tokenId",
          "type": "uint256"
        }
      ],
      "name": "mint",
      "outputs": [],
      "stateMutability": "nonpayable",
      "type": "function"
    },
    {
      "inputs": [],
      "name": "name",
      "outputs": [
        {
          "internalType": "string",
          "name": "",
          "type": "string"
        }
      ],
      "stateMutability": "view",
      "type": "function"
    },
    {
      "inputs": [],
      "name": "owner",
      "outputs": [
        {
          "internalType": "address",
          "name": "",
          "type": "address"
        }
      ],
      "stateMutability": "view",
      "type": "function"
    },
    {
      "inputs": [
        {
          "internalType": "uint256",
          "name": "tokenId",
          "type": "uint256"
        }
      ],
      "name": "ownerOf",
      "outputs": [
        {
          "internalType": "address",
          "name": "",
          "type": "address"
        }
      ],
      "stateMutability": "view",
      "type": "function"
    },
    {
      "inputs": [],
      "name": "renounceOwnership",
      "outputs": [],
      "stateMutability": "nonpayable",
      "type": "function"
    },
    {
      "inputs": [
        {
          "internalType": "address",
          "name": "from",
          "type": "address"
        },
        {
          "internalType": "address",
          "name": "to",
          "type": "address"
        },
        {
          "internalType": "uint256",
          "name": "tokenId",
          "type": "uint256"
        }
      ],
      "name": "safeTransferFrom",
      "outputs": [],
      "stateMutability": "nonpayable",
      "type": "function"
    },
    {
      "inputs": [
        {
          "internalType": "address",
          "name": "from",
          "type": "address"
        },
        {
          "internalType": "address",
          "name": "to",
          "type": "address"
        },
        {
          "internalType": "uint256",
          "name": "tokenId",
          "type": "uint256"
        },
        {
          "internalType": "bytes",
          "name": "_data",
          "type": "bytes"
        }
      ],
      "name": "safeTransferFrom",
      "outputs": [],
      "stateMutability": "nonpayable",
      "type": "function"
    },
    {
      "inputs": [
        {
          "internalType": "address",
          "name": "operator",
          "type": "address"
        },
        {
          "internalType": "bool",
          "name": "approved",
          "type": "bool"
        }
      ],
      "name": "setApprovalForAll",
      "outputs": [],
      "stateMutability": "nonpayable",
      "type": "function"
    },
    {
      "inputs": [
        {
          "internalType": "uint256",
          "name": "_tokenId",
          "type": "uint256"
        },
        {
          "internalType": "string",
          "name": "_tokenURI",
          "type": "string"
        }
      ],
      "name": "setTokenUri",
      "outputs": [],
      "stateMutability": "nonpayable",
      "type": "function"
    },
    {
      "inputs": [
        {
          "internalType": "bytes4",
          "name": "interfaceId",
          "type": "bytes4"
        }
      ],
      "name": "supportsInterface",
      "outputs": [
        {
          "internalType": "bool",
          "name": "",
          "type": "bool"
        }
      ],
      "stateMutability": "view",
      "type": "function"
    },
    {
      "inputs": [],
      "name": "symbol",
      "outputs": [
        {
          "internalType": "string",
          "name": "",
          "type": "string"
        }
      ],
      "stateMutability": "view",
      "type": "function"
    },
    {
      "inputs": [
        {
          "internalType": "uint256",
          "name": "tokenId",
          "type": "uint256"
        }
      ],
      "name": "tokenURI",
      "outputs": [
        {
          "internalType": "string",
          "name": "",
          "type": "string"
        }
      ],
      "stateMutability": "view",
      "type": "function"
    },
    {
      "inputs": [
        {
          "internalType": "address",
          "name": "from",
          "type": "address"
        },
        {
          "internalType": "address",
          "name": "to",
          "type": "address"
        },
        {
          "internalType": "uint256",
          "name": "tokenId",
          "type": "uint256"
        }
      ],
      "name": "transferFrom",
      "outputs": [],
      "stateMutability": "nonpayable",
      "type": "function"
    },
    {
      "inputs": [
        {
          "internalType": "address",
          "name": "newOwner",
          "type": "address"
        }
      ],
      "name": "transferOwnership",
      "outputs": [],
      "stateMutability": "nonpayable",
      "type": "function"
    }
  ],
  "transactionHash": "0xb7b6980e9f7ba2edc5ddd1acbe17b4b5471e00cf43558ff80981d2f7801c166f",
  "args": [
    "BadCache721",
    "BadCache721"
  ],
  "solcInputHash": "cf4aff3aa28a0f7d3b49c2ebf9686adc",
  "bytecode": "0x60806040523480156200001157600080fd5b506040516200362d3803806200362d833981810160405281019062000037919062000291565b818181600090805190602001906200005192919062000163565b5080600190805190602001906200006a92919062000163565b5050506200008d620000816200009560201b60201c565b6200009d60201b60201c565b50506200049a565b600033905090565b6000600760009054906101000a900473ffffffffffffffffffffffffffffffffffffffff16905081600760006101000a81548173ffffffffffffffffffffffffffffffffffffffff021916908373ffffffffffffffffffffffffffffffffffffffff1602179055508173ffffffffffffffffffffffffffffffffffffffff168173ffffffffffffffffffffffffffffffffffffffff167f8be0079c531659141344cd1fd0a4f28419497f9722a3daafe3b4186f6b6457e060405160405180910390a35050565b8280546200017190620003ab565b90600052602060002090601f016020900481019282620001955760008555620001e1565b82601f10620001b057805160ff1916838001178555620001e1565b82800160010185558215620001e1579182015b82811115620001e0578251825591602001919060010190620001c3565b5b509050620001f09190620001f4565b5090565b5b808211156200020f576000816000905550600101620001f5565b5090565b60006200022a62000224846200033f565b62000316565b9050828152602081018484840111156200024957620002486200047a565b5b6200025684828562000375565b509392505050565b600082601f83011262000276576200027562000475565b5b81516200028884826020860162000213565b91505092915050565b60008060408385031215620002ab57620002aa62000484565b5b600083015167ffffffffffffffff811115620002cc57620002cb6200047f565b5b620002da858286016200025e565b925050602083015167ffffffffffffffff811115620002fe57620002fd6200047f565b5b6200030c858286016200025e565b9150509250929050565b60006200032262000335565b9050620003308282620003e1565b919050565b6000604051905090565b600067ffffffffffffffff8211156200035d576200035c62000446565b5b620003688262000489565b9050602081019050919050565b60005b838110156200039557808201518184015260208101905062000378565b83811115620003a5576000848401525b50505050565b60006002820490506001821680620003c457607f821691505b60208210811415620003db57620003da62000417565b5b50919050565b620003ec8262000489565b810181811067ffffffffffffffff821117156200040e576200040d62000446565b5b80604052505050565b7f4e487b7100000000000000000000000000000000000000000000000000000000600052602260045260246000fd5b7f4e487b7100000000000000000000000000000000000000000000000000000000600052604160045260246000fd5b600080fd5b600080fd5b600080fd5b600080fd5b6000601f19601f8301169050919050565b61318380620004aa6000396000f3fe608060405234801561001057600080fd5b50600436106101215760003560e01c80636352211e116100ad578063a22cb46511610071578063a22cb46514610306578063b88d4fde14610322578063c87b56dd1461033e578063e985e9c51461036e578063f2fde38b1461039e57610121565b80636352211e1461026057806370a0823114610290578063715018a6146102c05780638da5cb5b146102ca57806395d89b41146102e857610121565b806323b872dd116100f457806323b872dd146101c057806340c10f19146101dc57806342842e0e146101f85780634f558e791461021457806357f7789e1461024457610121565b806301ffc9a71461012657806306fdde0314610156578063081812fc14610174578063095ea7b3146101a4575b600080fd5b610140600480360381019061013b9190612087565b6103ba565b60405161014d919061253b565b60405180910390f35b61015e61049c565b60405161016b9190612556565b60405180910390f35b61018e600480360381019061018991906120e1565b61052e565b60405161019b91906124d4565b60405180910390f35b6101be60048036038101906101b99190612047565b6105b3565b005b6101da60048036038101906101d59190611f31565b6106cb565b005b6101f660048036038101906101f19190612047565b61072b565b005b610212600480360381019061020d9190611f31565b6107b5565b005b61022e600480360381019061022991906120e1565b6107d5565b60405161023b919061253b565b60405180910390f35b61025e6004803603810190610259919061210e565b610863565b005b61027a600480360381019061027591906120e1565b6108ed565b60405161028791906124d4565b60405180910390f35b6102aa60048036038101906102a59190611ec4565b61099f565b6040516102b791906127b8565b60405180910390f35b6102c8610a57565b005b6102d2610adf565b6040516102df91906124d4565b60405180910390f35b6102f0610b09565b6040516102fd9190612556565b60405180910390f35b610320600480360381019061031b9190612007565b610b9b565b005b61033c60048036038101906103379190611f84565b610d1c565b005b610358600480360381019061035391906120e1565b610d7e565b6040516103659190612556565b60405180910390f35b61038860048036038101906103839190611ef1565b610ed0565b604051610395919061253b565b60405180910390f35b6103b860048036038101906103b39190611ec4565b610f64565b005b60007f80ac58cd000000000000000000000000000000000000000000000000000000007bffffffffffffffffffffffffffffffffffffffffffffffffffffffff1916827bffffffffffffffffffffffffffffffffffffffffffffffffffffffff1916148061048557507f5b5e139f000000000000000000000000000000000000000000000000000000007bffffffffffffffffffffffffffffffffffffffffffffffffffffffff1916827bffffffffffffffffffffffffffffffffffffffffffffffffffffffff1916145b8061049557506104948261105c565b5b9050919050565b6060600080546104ab90612a0e565b80601f01602080910402602001604051908101604052809291908181526020018280546104d790612a0e565b80156105245780601f106104f957610100808354040283529160200191610524565b820191906000526020600020905b81548152906001019060200180831161050757829003601f168201915b5050505050905090565b6000610539826110c6565b610578576040517f08c379a000000000000000000000000000000000000000000000000000000000815260040161056f906126f8565b60405180910390fd5b6004600083815260200190815260200160002060009054906101000a900473ffffffffffffffffffffffffffffffffffffffff169050919050565b60006105be826108ed565b90508073ffffffffffffffffffffffffffffffffffffffff168373ffffffffffffffffffffffffffffffffffffffff16141561062f576040517f08c379a000000000000000000000000000000000000000000000000000000000815260040161062690612778565b60405180910390fd5b8073ffffffffffffffffffffffffffffffffffffffff1661064e611132565b73ffffffffffffffffffffffffffffffffffffffff16148061067d575061067c81610677611132565b610ed0565b5b6106bc576040517f08c379a00000000000000000000000000000000000000000000000000000000081526004016106b390612638565b60405180910390fd5b6106c6838361113a565b505050565b6106dc6106d6611132565b826111f3565b61071b576040517f08c379a000000000000000000000000000000000000000000000000000000000815260040161071290612798565b60405180910390fd5b6107268383836112d1565b505050565b610733611132565b73ffffffffffffffffffffffffffffffffffffffff16610751610adf565b73ffffffffffffffffffffffffffffffffffffffff16146107a7576040517f08c379a000000000000000000000000000000000000000000000000000000000815260040161079e90612718565b60405180910390fd5b6107b1828261152d565b5050565b6107d083838360405180602001604052806000815250610d1c565b505050565b60006107df611132565b73ffffffffffffffffffffffffffffffffffffffff166107fd610adf565b73ffffffffffffffffffffffffffffffffffffffff1614610853576040517f08c379a000000000000000000000000000000000000000000000000000000000815260040161084a90612718565b60405180910390fd5b61085c826110c6565b9050919050565b61086b611132565b73ffffffffffffffffffffffffffffffffffffffff16610889610adf565b73ffffffffffffffffffffffffffffffffffffffff16146108df576040517f08c379a00000000000000000000000000000000000000000000000000000000081526004016108d690612718565b60405180910390fd5b6108e9828261154b565b5050565b6000806002600084815260200190815260200160002060009054906101000a900473ffffffffffffffffffffffffffffffffffffffff169050600073ffffffffffffffffffffffffffffffffffffffff168173ffffffffffffffffffffffffffffffffffffffff161415610996576040517f08c379a000000000000000000000000000000000000000000000000000000000815260040161098d90612678565b60405180910390fd5b80915050919050565b60008073ffffffffffffffffffffffffffffffffffffffff168273ffffffffffffffffffffffffffffffffffffffff161415610a10576040517f08c379a0000000000000000000000000000000000000000000000000000000008152600401610a0790612658565b60405180910390fd5b600360008373ffffffffffffffffffffffffffffffffffffffff1673ffffffffffffffffffffffffffffffffffffffff168152602001908152602001600020549050919050565b610a5f611132565b73ffffffffffffffffffffffffffffffffffffffff16610a7d610adf565b73ffffffffffffffffffffffffffffffffffffffff1614610ad3576040517f08c379a0000000000000000000000000000000000000000000000000000000008152600401610aca90612718565b60405180910390fd5b610add60006115bf565b565b6000600760009054906101000a900473ffffffffffffffffffffffffffffffffffffffff16905090565b606060018054610b1890612a0e565b80601f0160208091040260200160405190810160405280929190818152602001828054610b4490612a0e565b8015610b915780601f10610b6657610100808354040283529160200191610b91565b820191906000526020600020905b815481529060010190602001808311610b7457829003601f168201915b5050505050905090565b610ba3611132565b73ffffffffffffffffffffffffffffffffffffffff168273ffffffffffffffffffffffffffffffffffffffff161415610c11576040517f08c379a0000000000000000000000000000000000000000000000000000000008152600401610c08906125f8565b60405180910390fd5b8060056000610c1e611132565b73ffffffffffffffffffffffffffffffffffffffff1673ffffffffffffffffffffffffffffffffffffffff16815260200190815260200160002060008473ffffffffffffffffffffffffffffffffffffffff1673ffffffffffffffffffffffffffffffffffffffff16815260200190815260200160002060006101000a81548160ff0219169083151502179055508173ffffffffffffffffffffffffffffffffffffffff16610ccb611132565b73ffffffffffffffffffffffffffffffffffffffff167f17307eab39ab6107e8899845ad3d59bd9653f200f220920489ca2b5937696c3183604051610d10919061253b565b60405180910390a35050565b610d2d610d27611132565b836111f3565b610d6c576040517f08c379a0000000000000000000000000000000000000000000000000000000008152600401610d6390612798565b60405180910390fd5b610d7884848484611685565b50505050565b6060610d89826110c6565b610dc8576040517f08c379a0000000000000000000000000000000000000000000000000000000008152600401610dbf906126d8565b60405180910390fd5b6000600660008481526020019081526020016000208054610de890612a0e565b80601f0160208091040260200160405190810160405280929190818152602001828054610e1490612a0e565b8015610e615780601f10610e3657610100808354040283529160200191610e61565b820191906000526020600020905b815481529060010190602001808311610e4457829003601f168201915b505050505090506000610e726116e1565b9050600081511415610e88578192505050610ecb565b600082511115610ebd578082604051602001610ea59291906124b0565b60405160208183030381529060405292505050610ecb565b610ec6846116f8565b925050505b919050565b6000600560008473ffffffffffffffffffffffffffffffffffffffff1673ffffffffffffffffffffffffffffffffffffffff16815260200190815260200160002060008373ffffffffffffffffffffffffffffffffffffffff1673ffffffffffffffffffffffffffffffffffffffff16815260200190815260200160002060009054906101000a900460ff16905092915050565b610f6c611132565b73ffffffffffffffffffffffffffffffffffffffff16610f8a610adf565b73ffffffffffffffffffffffffffffffffffffffff1614610fe0576040517f08c379a0000000000000000000000000000000000000000000000000000000008152600401610fd790612718565b60405180910390fd5b600073ffffffffffffffffffffffffffffffffffffffff168173ffffffffffffffffffffffffffffffffffffffff161415611050576040517f08c379a000000000000000000000000000000000000000000000000000000000815260040161104790612598565b60405180910390fd5b611059816115bf565b50565b60007f01ffc9a7000000000000000000000000000000000000000000000000000000007bffffffffffffffffffffffffffffffffffffffffffffffffffffffff1916827bffffffffffffffffffffffffffffffffffffffffffffffffffffffff1916149050919050565b60008073ffffffffffffffffffffffffffffffffffffffff166002600084815260200190815260200160002060009054906101000a900473ffffffffffffffffffffffffffffffffffffffff1673ffffffffffffffffffffffffffffffffffffffff1614159050919050565b600033905090565b816004600083815260200190815260200160002060006101000a81548173ffffffffffffffffffffffffffffffffffffffff021916908373ffffffffffffffffffffffffffffffffffffffff160217905550808273ffffffffffffffffffffffffffffffffffffffff166111ad836108ed565b73ffffffffffffffffffffffffffffffffffffffff167f8c5be1e5ebec7d5bd14f71427d1e84f3dd0314c0f7b2291e5b200ac8c7c3b92560405160405180910390a45050565b60006111fe826110c6565b61123d576040517f08c379a000000000000000000000000000000000000000000000000000000000815260040161123490612618565b60405180910390fd5b6000611248836108ed565b90508073ffffffffffffffffffffffffffffffffffffffff168473ffffffffffffffffffffffffffffffffffffffff1614806112b757508373ffffffffffffffffffffffffffffffffffffffff1661129f8461052e565b73ffffffffffffffffffffffffffffffffffffffff16145b806112c857506112c78185610ed0565b5b91505092915050565b8273ffffffffffffffffffffffffffffffffffffffff166112f1826108ed565b73ffffffffffffffffffffffffffffffffffffffff1614611347576040517f08c379a000000000000000000000000000000000000000000000000000000000815260040161133e90612738565b60405180910390fd5b600073ffffffffffffffffffffffffffffffffffffffff168273ffffffffffffffffffffffffffffffffffffffff1614156113b7576040517f08c379a00000000000000000000000000000000000000000000000000000000081526004016113ae906125d8565b60405180910390fd5b6113c283838361179f565b6113cd60008261113a565b6001600360008573ffffffffffffffffffffffffffffffffffffffff1673ffffffffffffffffffffffffffffffffffffffff168152602001908152602001600020600082825461141d9190612924565b925050819055506001600360008473ffffffffffffffffffffffffffffffffffffffff1673ffffffffffffffffffffffffffffffffffffffff1681526020019081526020016000206000828254611474919061289d565b92505081905550816002600083815260200190815260200160002060006101000a81548173ffffffffffffffffffffffffffffffffffffffff021916908373ffffffffffffffffffffffffffffffffffffffff160217905550808273ffffffffffffffffffffffffffffffffffffffff168473ffffffffffffffffffffffffffffffffffffffff167fddf252ad1be2c89b69c2b068fc378daa952ba7f163c4a11628f55a4df523b3ef60405160405180910390a4505050565b6115478282604051806020016040528060008152506117a4565b5050565b611554826110c6565b611593576040517f08c379a000000000000000000000000000000000000000000000000000000000815260040161158a90612698565b60405180910390fd5b806006600084815260200190815260200160002090805190602001906115ba929190611cd8565b505050565b6000600760009054906101000a900473ffffffffffffffffffffffffffffffffffffffff16905081600760006101000a81548173ffffffffffffffffffffffffffffffffffffffff021916908373ffffffffffffffffffffffffffffffffffffffff1602179055508173ffffffffffffffffffffffffffffffffffffffff168173ffffffffffffffffffffffffffffffffffffffff167f8be0079c531659141344cd1fd0a4f28419497f9722a3daafe3b4186f6b6457e060405160405180910390a35050565b6116908484846112d1565b61169c848484846117ff565b6116db576040517f08c379a00000000000000000000000000000000000000000000000000000000081526004016116d290612578565b60405180910390fd5b50505050565b606060405180602001604052806000815250905090565b6060611703826110c6565b611742576040517f08c379a000000000000000000000000000000000000000000000000000000000815260040161173990612758565b60405180910390fd5b600061174c6116e1565b9050600081511161176c5760405180602001604052806000815250611797565b8061177684611996565b6040516020016117879291906124b0565b6040516020818303038152906040525b915050919050565b505050565b6117ae8383611af7565b6117bb60008484846117ff565b6117fa576040517f08c379a00000000000000000000000000000000000000000000000000000000081526004016117f190612578565b60405180910390fd5b505050565b60006118208473ffffffffffffffffffffffffffffffffffffffff16611cc5565b15611989578373ffffffffffffffffffffffffffffffffffffffff1663150b7a02611849611132565b8786866040518563ffffffff1660e01b815260040161186b94939291906124ef565b602060405180830381600087803b15801561188557600080fd5b505af19250505080156118b657506040513d601f19601f820116820180604052508101906118b391906120b4565b60015b611939573d80600081146118e6576040519150601f19603f3d011682016040523d82523d6000602084013e6118eb565b606091505b50600081511415611931576040517f08c379a000000000000000000000000000000000000000000000000000000000815260040161192890612578565b60405180910390fd5b805181602001fd5b63150b7a0260e01b7bffffffffffffffffffffffffffffffffffffffffffffffffffffffff1916817bffffffffffffffffffffffffffffffffffffffffffffffffffffffff19161491505061198e565b600190505b949350505050565b606060008214156119de576040518060400160405280600181526020017f30000000000000000000000000000000000000000000000000000000000000008152509050611af2565b600082905060005b60008214611a105780806119f990612a71565b915050600a82611a0991906128f3565b91506119e6565b60008167ffffffffffffffff811115611a2c57611a2b612ba7565b5b6040519080825280601f01601f191660200182016040528015611a5e5781602001600182028036833780820191505090505b5090505b60008514611aeb57600182611a779190612924565b9150600a85611a869190612aba565b6030611a92919061289d565b60f81b818381518110611aa857611aa7612b78565b5b60200101907effffffffffffffffffffffffffffffffffffffffffffffffffffffffffffff1916908160001a905350600a85611ae491906128f3565b9450611a62565b8093505050505b919050565b600073ffffffffffffffffffffffffffffffffffffffff168273ffffffffffffffffffffffffffffffffffffffff161415611b67576040517f08c379a0000000000000000000000000000000000000000000000000000000008152600401611b5e906126b8565b60405180910390fd5b611b70816110c6565b15611bb0576040517f08c379a0000000000000000000000000000000000000000000000000000000008152600401611ba7906125b8565b60405180910390fd5b611bbc6000838361179f565b6001600360008473ffffffffffffffffffffffffffffffffffffffff1673ffffffffffffffffffffffffffffffffffffffff1681526020019081526020016000206000828254611c0c919061289d565b92505081905550816002600083815260200190815260200160002060006101000a81548173ffffffffffffffffffffffffffffffffffffffff021916908373ffffffffffffffffffffffffffffffffffffffff160217905550808273ffffffffffffffffffffffffffffffffffffffff16600073ffffffffffffffffffffffffffffffffffffffff167fddf252ad1be2c89b69c2b068fc378daa952ba7f163c4a11628f55a4df523b3ef60405160405180910390a45050565b600080823b905060008111915050919050565b828054611ce490612a0e565b90600052602060002090601f016020900481019282611d065760008555611d4d565b82601f10611d1f57805160ff1916838001178555611d4d565b82800160010185558215611d4d579182015b82811115611d4c578251825591602001919060010190611d31565b5b509050611d5a9190611d5e565b5090565b5b80821115611d77576000816000905550600101611d5f565b5090565b6000611d8e611d89846127f8565b6127d3565b905082815260208101848484011115611daa57611da9612bdb565b5b611db58482856129cc565b509392505050565b6000611dd0611dcb84612829565b6127d3565b905082815260208101848484011115611dec57611deb612bdb565b5b611df78482856129cc565b509392505050565b600081359050611e0e816130f1565b92915050565b600081359050611e2381613108565b92915050565b600081359050611e388161311f565b92915050565b600081519050611e4d8161311f565b92915050565b600082601f830112611e6857611e67612bd6565b5b8135611e78848260208601611d7b565b91505092915050565b600082601f830112611e9657611e95612bd6565b5b8135611ea6848260208601611dbd565b91505092915050565b600081359050611ebe81613136565b92915050565b600060208284031215611eda57611ed9612be5565b5b6000611ee884828501611dff565b91505092915050565b60008060408385031215611f0857611f07612be5565b5b6000611f1685828601611dff565b9250506020611f2785828601611dff565b9150509250929050565b600080600060608486031215611f4a57611f49612be5565b5b6000611f5886828701611dff565b9350506020611f6986828701611dff565b9250506040611f7a86828701611eaf565b9150509250925092565b60008060008060808587031215611f9e57611f9d612be5565b5b6000611fac87828801611dff565b9450506020611fbd87828801611dff565b9350506040611fce87828801611eaf565b925050606085013567ffffffffffffffff811115611fef57611fee612be0565b5b611ffb87828801611e53565b91505092959194509250565b6000806040838503121561201e5761201d612be5565b5b600061202c85828601611dff565b925050602061203d85828601611e14565b9150509250929050565b6000806040838503121561205e5761205d612be5565b5b600061206c85828601611dff565b925050602061207d85828601611eaf565b9150509250929050565b60006020828403121561209d5761209c612be5565b5b60006120ab84828501611e29565b91505092915050565b6000602082840312156120ca576120c9612be5565b5b60006120d884828501611e3e565b91505092915050565b6000602082840312156120f7576120f6612be5565b5b600061210584828501611eaf565b91505092915050565b6000806040838503121561212557612124612be5565b5b600061213385828601611eaf565b925050602083013567ffffffffffffffff81111561215457612153612be0565b5b61216085828601611e81565b9150509250929050565b61217381612958565b82525050565b6121828161296a565b82525050565b60006121938261285a565b61219d8185612870565b93506121ad8185602086016129db565b6121b681612bea565b840191505092915050565b60006121cc82612865565b6121d68185612881565b93506121e68185602086016129db565b6121ef81612bea565b840191505092915050565b600061220582612865565b61220f8185612892565b935061221f8185602086016129db565b80840191505092915050565b6000612238603283612881565b915061224382612bfb565b604082019050919050565b600061225b602683612881565b915061226682612c4a565b604082019050919050565b600061227e601c83612881565b915061228982612c99565b602082019050919050565b60006122a1602483612881565b91506122ac82612cc2565b604082019050919050565b60006122c4601983612881565b91506122cf82612d11565b602082019050919050565b60006122e7602c83612881565b91506122f282612d3a565b604082019050919050565b600061230a603883612881565b915061231582612d89565b604082019050919050565b600061232d602a83612881565b915061233882612dd8565b604082019050919050565b6000612350602983612881565b915061235b82612e27565b604082019050919050565b6000612373602e83612881565b915061237e82612e76565b604082019050919050565b6000612396602083612881565b91506123a182612ec5565b602082019050919050565b60006123b9603183612881565b91506123c482612eee565b604082019050919050565b60006123dc602c83612881565b91506123e782612f3d565b604082019050919050565b60006123ff602083612881565b915061240a82612f8c565b602082019050919050565b6000612422602983612881565b915061242d82612fb5565b604082019050919050565b6000612445602f83612881565b915061245082613004565b604082019050919050565b6000612468602183612881565b915061247382613053565b604082019050919050565b600061248b603183612881565b9150612496826130a2565b604082019050919050565b6124aa816129c2565b82525050565b60006124bc82856121fa565b91506124c882846121fa565b91508190509392505050565b60006020820190506124e9600083018461216a565b92915050565b6000608082019050612504600083018761216a565b612511602083018661216a565b61251e60408301856124a1565b81810360608301526125308184612188565b905095945050505050565b60006020820190506125506000830184612179565b92915050565b6000602082019050818103600083015261257081846121c1565b905092915050565b600060208201905081810360008301526125918161222b565b9050919050565b600060208201905081810360008301526125b18161224e565b9050919050565b600060208201905081810360008301526125d181612271565b9050919050565b600060208201905081810360008301526125f181612294565b9050919050565b60006020820190508181036000830152612611816122b7565b9050919050565b60006020820190508181036000830152612631816122da565b9050919050565b60006020820190508181036000830152612651816122fd565b9050919050565b6000602082019050818103600083015261267181612320565b9050919050565b6000602082019050818103600083015261269181612343565b9050919050565b600060208201905081810360008301526126b181612366565b9050919050565b600060208201905081810360008301526126d181612389565b9050919050565b600060208201905081810360008301526126f1816123ac565b9050919050565b60006020820190508181036000830152612711816123cf565b9050919050565b60006020820190508181036000830152612731816123f2565b9050919050565b6000602082019050818103600083015261275181612415565b9050919050565b6000602082019050818103600083015261277181612438565b9050919050565b600060208201905081810360008301526127918161245b565b9050919050565b600060208201905081810360008301526127b18161247e565b9050919050565b60006020820190506127cd60008301846124a1565b92915050565b60006127dd6127ee565b90506127e98282612a40565b919050565b6000604051905090565b600067ffffffffffffffff82111561281357612812612ba7565b5b61281c82612bea565b9050602081019050919050565b600067ffffffffffffffff82111561284457612843612ba7565b5b61284d82612bea565b9050602081019050919050565b600081519050919050565b600081519050919050565b600082825260208201905092915050565b600082825260208201905092915050565b600081905092915050565b60006128a8826129c2565b91506128b3836129c2565b9250827fffffffffffffffffffffffffffffffffffffffffffffffffffffffffffffffff038211156128e8576128e7612aeb565b5b828201905092915050565b60006128fe826129c2565b9150612909836129c2565b92508261291957612918612b1a565b5b828204905092915050565b600061292f826129c2565b915061293a836129c2565b92508282101561294d5761294c612aeb565b5b828203905092915050565b6000612963826129a2565b9050919050565b60008115159050919050565b60007fffffffff0000000000000000000000000000000000000000000000000000000082169050919050565b600073ffffffffffffffffffffffffffffffffffffffff82169050919050565b6000819050919050565b82818337600083830152505050565b60005b838110156129f95780820151818401526020810190506129de565b83811115612a08576000848401525b50505050565b60006002820490506001821680612a2657607f821691505b60208210811415612a3a57612a39612b49565b5b50919050565b612a4982612bea565b810181811067ffffffffffffffff82111715612a6857612a67612ba7565b5b80604052505050565b6000612a7c826129c2565b91507fffffffffffffffffffffffffffffffffffffffffffffffffffffffffffffffff821415612aaf57612aae612aeb565b5b600182019050919050565b6000612ac5826129c2565b9150612ad0836129c2565b925082612ae057612adf612b1a565b5b828206905092915050565b7f4e487b7100000000000000000000000000000000000000000000000000000000600052601160045260246000fd5b7f4e487b7100000000000000000000000000000000000000000000000000000000600052601260045260246000fd5b7f4e487b7100000000000000000000000000000000000000000000000000000000600052602260045260246000fd5b7f4e487b7100000000000000000000000000000000000000000000000000000000600052603260045260246000fd5b7f4e487b7100000000000000000000000000000000000000000000000000000000600052604160045260246000fd5b600080fd5b600080fd5b600080fd5b600080fd5b6000601f19601f8301169050919050565b7f4552433732313a207472616e7366657220746f206e6f6e20455243373231526560008201527f63656976657220696d706c656d656e7465720000000000000000000000000000602082015250565b7f4f776e61626c653a206e6577206f776e657220697320746865207a65726f206160008201527f6464726573730000000000000000000000000000000000000000000000000000602082015250565b7f4552433732313a20746f6b656e20616c7265616479206d696e74656400000000600082015250565b7f4552433732313a207472616e7366657220746f20746865207a65726f2061646460008201527f7265737300000000000000000000000000000000000000000000000000000000602082015250565b7f4552433732313a20617070726f766520746f2063616c6c657200000000000000600082015250565b7f4552433732313a206f70657261746f7220717565727920666f72206e6f6e657860008201527f697374656e7420746f6b656e0000000000000000000000000000000000000000602082015250565b7f4552433732313a20617070726f76652063616c6c6572206973206e6f74206f7760008201527f6e6572206e6f7220617070726f76656420666f7220616c6c0000000000000000602082015250565b7f4552433732313a2062616c616e636520717565727920666f7220746865207a6560008201527f726f206164647265737300000000000000000000000000000000000000000000602082015250565b7f4552433732313a206f776e657220717565727920666f72206e6f6e657869737460008201527f656e7420746f6b656e0000000000000000000000000000000000000000000000602082015250565b7f45524337323155524953746f726167653a2055524920736574206f66206e6f6e60008201527f6578697374656e7420746f6b656e000000000000000000000000000000000000602082015250565b7f4552433732313a206d696e7420746f20746865207a65726f2061646472657373600082015250565b7f45524337323155524953746f726167653a2055524920717565727920666f722060008201527f6e6f6e6578697374656e7420746f6b656e000000000000000000000000000000602082015250565b7f4552433732313a20617070726f76656420717565727920666f72206e6f6e657860008201527f697374656e7420746f6b656e0000000000000000000000000000000000000000602082015250565b7f4f776e61626c653a2063616c6c6572206973206e6f7420746865206f776e6572600082015250565b7f4552433732313a207472616e73666572206f6620746f6b656e2074686174206960008201527f73206e6f74206f776e0000000000000000000000000000000000000000000000602082015250565b7f4552433732314d657461646174613a2055524920717565727920666f72206e6f60008201527f6e6578697374656e7420746f6b656e0000000000000000000000000000000000602082015250565b7f4552433732313a20617070726f76616c20746f2063757272656e74206f776e6560008201527f7200000000000000000000000000000000000000000000000000000000000000602082015250565b7f4552433732313a207472616e736665722063616c6c6572206973206e6f74206f60008201527f776e6572206e6f7220617070726f766564000000000000000000000000000000602082015250565b6130fa81612958565b811461310557600080fd5b50565b6131118161296a565b811461311c57600080fd5b50565b61312881612976565b811461313357600080fd5b50565b61313f816129c2565b811461314a57600080fd5b5056fea2646970667358221220ef14ead47ac179d1cb9ab0f49d0a1b5771df1c86ab49fff84d0440d19d84198e64736f6c63430008060033",
  "devdoc": {
    "kind": "dev",
    "methods": {
      "approve(address,uint256)": {
        "details": "See {IERC721-approve}."
      },
      "balanceOf(address)": {
        "details": "See {IERC721-balanceOf}."
      },
      "getApproved(uint256)": {
        "details": "See {IERC721-getApproved}."
      },
      "isApprovedForAll(address,address)": {
        "details": "See {IERC721-isApprovedForAll}."
      },
      "name()": {
        "details": "See {IERC721Metadata-name}."
      },
      "owner()": {
        "details": "Returns the address of the current owner."
      },
      "ownerOf(uint256)": {
        "details": "See {IERC721-ownerOf}."
      },
      "renounceOwnership()": {
        "details": "Leaves the contract without owner. It will not be possible to call `onlyOwner` functions anymore. Can only be called by the current owner. NOTE: Renouncing ownership will leave the contract without an owner, thereby removing any functionality that is only available to the owner."
      },
      "safeTransferFrom(address,address,uint256)": {
        "details": "See {IERC721-safeTransferFrom}."
      },
      "safeTransferFrom(address,address,uint256,bytes)": {
        "details": "See {IERC721-safeTransferFrom}."
      },
      "setApprovalForAll(address,bool)": {
        "details": "See {IERC721-setApprovalForAll}."
      },
      "supportsInterface(bytes4)": {
        "details": "See {IERC165-supportsInterface}."
      },
      "symbol()": {
        "details": "See {IERC721Metadata-symbol}."
      },
      "tokenURI(uint256)": {
        "details": "See {IERC721Metadata-tokenURI}."
      },
      "transferFrom(address,address,uint256)": {
        "details": "See {IERC721-transferFrom}."
      },
      "transferOwnership(address)": {
        "details": "Transfers ownership of the contract to a new account (`newOwner`). Can only be called by the current owner."
      }
    },
    "version": 1
  },
  "userdoc": {
    "kind": "user",
    "methods": {},
    "version": 1
  },
  "storageLayout": {
    "storage": [
      {
        "astId": 1517,
        "contract": "contracts/BadCache721.sol:BadCache721",
        "label": "_name",
        "offset": 0,
        "slot": "0",
        "type": "t_string_storage"
      },
      {
        "astId": 1519,
        "contract": "contracts/BadCache721.sol:BadCache721",
        "label": "_symbol",
        "offset": 0,
        "slot": "1",
        "type": "t_string_storage"
      },
      {
        "astId": 1523,
        "contract": "contracts/BadCache721.sol:BadCache721",
        "label": "_owners",
        "offset": 0,
        "slot": "2",
        "type": "t_mapping(t_uint256,t_address)"
      },
      {
        "astId": 1527,
        "contract": "contracts/BadCache721.sol:BadCache721",
        "label": "_balances",
        "offset": 0,
        "slot": "3",
        "type": "t_mapping(t_address,t_uint256)"
      },
      {
        "astId": 1531,
        "contract": "contracts/BadCache721.sol:BadCache721",
        "label": "_tokenApprovals",
        "offset": 0,
        "slot": "4",
        "type": "t_mapping(t_uint256,t_address)"
      },
      {
        "astId": 1537,
        "contract": "contracts/BadCache721.sol:BadCache721",
        "label": "_operatorApprovals",
        "offset": 0,
        "slot": "5",
        "type": "t_mapping(t_address,t_mapping(t_address,t_bool))"
      },
      {
        "astId": 2456,
        "contract": "contracts/BadCache721.sol:BadCache721",
        "label": "_tokenURIs",
        "offset": 0,
        "slot": "6",
        "type": "t_mapping(t_uint256,t_string_storage)"
      },
      {
        "astId": 7,
        "contract": "contracts/BadCache721.sol:BadCache721",
        "label": "_owner",
        "offset": 0,
        "slot": "7",
        "type": "t_address"
      }
    ],
    "types": {
      "t_address": {
        "encoding": "inplace",
        "label": "address",
        "numberOfBytes": "20"
      },
      "t_bool": {
        "encoding": "inplace",
        "label": "bool",
        "numberOfBytes": "1"
      },
      "t_mapping(t_address,t_bool)": {
        "encoding": "mapping",
        "key": "t_address",
        "label": "mapping(address => bool)",
        "numberOfBytes": "32",
        "value": "t_bool"
      },
      "t_mapping(t_address,t_mapping(t_address,t_bool))": {
        "encoding": "mapping",
        "key": "t_address",
        "label": "mapping(address => mapping(address => bool))",
        "numberOfBytes": "32",
        "value": "t_mapping(t_address,t_bool)"
      },
      "t_mapping(t_address,t_uint256)": {
        "encoding": "mapping",
        "key": "t_address",
        "label": "mapping(address => uint256)",
        "numberOfBytes": "32",
        "value": "t_uint256"
      },
      "t_mapping(t_uint256,t_address)": {
        "encoding": "mapping",
        "key": "t_uint256",
        "label": "mapping(uint256 => address)",
        "numberOfBytes": "32",
        "value": "t_address"
      },
      "t_mapping(t_uint256,t_string_storage)": {
        "encoding": "mapping",
        "key": "t_uint256",
        "label": "mapping(uint256 => string)",
        "numberOfBytes": "32",
        "value": "t_string_storage"
      },
      "t_string_storage": {
        "encoding": "bytes",
        "label": "string",
        "numberOfBytes": "32"
      },
      "t_uint256": {
        "encoding": "inplace",
        "label": "uint256",
        "numberOfBytes": "32"
      }
    }
  }
}