{
  "address": "0x606D0d6d9113A678Fd501f3351F362a65a896d69",
  "abi": [
    {
      "inputs": [],
      "stateMutability": "nonpayable",
      "type": "constructor"
    },
    {
      "anonymous": false,
      "inputs": [
        {
          "indexed": false,
          "internalType": "string",
          "name": "message",
          "type": "string"
        }
      ],
      "name": "LogMessage",
      "type": "event"
    },
    {
      "anonymous": false,
      "inputs": [
        {
          "indexed": true,
          "internalType": "address",
          "name": "_sender",
          "type": "address"
        },
        {
          "indexed": true,
          "internalType": "uint256",
          "name": "_tokenId",
          "type": "uint256"
        }
      ],
      "name": "MintedBadCache721",
      "type": "event"
    },
    {
      "anonymous": false,
      "inputs": [
        {
          "indexed": true,
          "internalType": "address",
          "name": "previousOwner",
          "type": "address"
        },
        {
          "indexed": true,
          "internalType": "address",
          "name": "newOwner",
          "type": "address"
        }
      ],
      "name": "OwnershipTransferred",
      "type": "event"
    },
    {
      "anonymous": false,
      "inputs": [
        {
          "indexed": true,
          "internalType": "address",
          "name": "_sender",
          "type": "address"
        },
        {
          "indexed": true,
          "internalType": "address",
          "name": "_receiver",
          "type": "address"
        },
        {
          "indexed": true,
          "internalType": "uint256",
          "name": "_tokenId",
          "type": "uint256"
        }
      ],
      "name": "ReceivedTransferFromBadCache721",
      "type": "event"
    },
    {
      "anonymous": false,
      "inputs": [
        {
          "indexed": true,
          "internalType": "address",
          "name": "_sender",
          "type": "address"
        },
        {
          "indexed": true,
          "internalType": "address",
          "name": "_receiver",
          "type": "address"
        },
        {
          "indexed": true,
          "internalType": "uint256",
          "name": "_tokenId",
          "type": "uint256"
        },
        {
          "indexed": false,
          "internalType": "uint256",
          "name": "_amount",
          "type": "uint256"
        }
      ],
      "name": "ReceivedTransferFromOpenSea",
      "type": "event"
    },
    {
      "inputs": [
        {
          "internalType": "uint256",
          "name": "_tokenId",
          "type": "uint256"
        },
        {
          "internalType": "string",
          "name": "_uri",
          "type": "string"
        },
        {
          "internalType": "uint16",
          "name": "_newTokenId",
          "type": "uint16"
        }
      ],
      "name": "addAllowedToken",
      "outputs": [],
      "stateMutability": "nonpayable",
      "type": "function"
    },
    {
      "inputs": [
        {
          "internalType": "address",
          "name": "_account",
          "type": "address"
        },
        {
          "internalType": "uint256",
          "name": "_tokenId",
          "type": "uint256"
        }
      ],
      "name": "checkBalance",
      "outputs": [
        {
          "internalType": "uint256",
          "name": "",
          "type": "uint256"
        }
      ],
      "stateMutability": "view",
      "type": "function"
    },
    {
      "inputs": [],
      "name": "getAddressesThatTransferedIds",
      "outputs": [
        {
          "internalType": "address[]",
          "name": "",
          "type": "address[]"
        }
      ],
      "stateMutability": "view",
      "type": "function"
    },
    {
      "inputs": [],
      "name": "getCustomIds",
      "outputs": [
        {
          "internalType": "uint256[]",
          "name": "",
          "type": "uint256[]"
        }
      ],
      "stateMutability": "view",
      "type": "function"
    },
    {
      "inputs": [],
      "name": "getIds",
      "outputs": [
        {
          "internalType": "uint256[]",
          "name": "",
          "type": "uint256[]"
        }
      ],
      "stateMutability": "view",
      "type": "function"
    },
    {
      "inputs": [],
      "name": "getTransferCount",
      "outputs": [
        {
          "internalType": "uint128",
          "name": "",
          "type": "uint128"
        }
      ],
      "stateMutability": "view",
      "type": "function"
    },
    {
      "inputs": [
        {
          "internalType": "uint256",
          "name": "_tokenId",
          "type": "uint256"
        },
        {
          "internalType": "string",
          "name": "_uri",
          "type": "string"
        },
        {
          "internalType": "address",
          "name": "_owner",
          "type": "address"
        }
      ],
      "name": "mintBadCache721",
      "outputs": [],
      "stateMutability": "nonpayable",
      "type": "function"
    },
    {
      "inputs": [
        {
          "internalType": "address",
          "name": "",
          "type": "address"
        },
        {
          "internalType": "address",
          "name": "",
          "type": "address"
        },
        {
          "internalType": "uint256[]",
          "name": "",
          "type": "uint256[]"
        },
        {
          "internalType": "uint256[]",
          "name": "",
          "type": "uint256[]"
        },
        {
          "internalType": "bytes",
          "name": "",
          "type": "bytes"
        }
      ],
      "name": "onERC1155BatchReceived",
      "outputs": [
        {
          "internalType": "bytes4",
          "name": "",
          "type": "bytes4"
        }
      ],
      "stateMutability": "nonpayable",
      "type": "function"
    },
    {
      "inputs": [
        {
          "internalType": "address",
          "name": "_sender",
          "type": "address"
        },
        {
          "internalType": "address",
          "name": "_receiver",
          "type": "address"
        },
        {
          "internalType": "uint256",
          "name": "_tokenId",
          "type": "uint256"
        },
        {
          "internalType": "uint256",
          "name": "_amount",
          "type": "uint256"
        },
        {
          "internalType": "bytes",
          "name": "_data",
          "type": "bytes"
        }
      ],
      "name": "onERC1155Received",
      "outputs": [
        {
          "internalType": "bytes4",
          "name": "",
          "type": "bytes4"
        }
      ],
      "stateMutability": "nonpayable",
      "type": "function"
    },
    {
      "inputs": [
        {
          "internalType": "address",
          "name": "_sender",
          "type": "address"
        },
        {
          "internalType": "address",
          "name": "_receiver",
          "type": "address"
        },
        {
          "internalType": "uint256",
          "name": "_tokenId",
          "type": "uint256"
        },
        {
          "internalType": "bytes",
          "name": "_data",
          "type": "bytes"
        }
      ],
      "name": "onERC721Received",
      "outputs": [
        {
          "internalType": "bytes4",
          "name": "",
          "type": "bytes4"
        }
      ],
      "stateMutability": "nonpayable",
      "type": "function"
    },
    {
      "inputs": [],
      "name": "owner",
      "outputs": [
        {
          "internalType": "address",
          "name": "",
          "type": "address"
        }
      ],
      "stateMutability": "view",
      "type": "function"
    },
    {
      "inputs": [
        {
          "internalType": "uint256",
          "name": "_tokenId",
          "type": "uint256"
        }
      ],
      "name": "ownerOf1155",
      "outputs": [
        {
          "internalType": "bool",
          "name": "",
          "type": "bool"
        }
      ],
      "stateMutability": "view",
      "type": "function"
    },
    {
      "inputs": [],
      "name": "renounceOwnership",
      "outputs": [],
      "stateMutability": "nonpayable",
      "type": "function"
    },
    {
      "inputs": [
        {
          "internalType": "address",
          "name": "_token",
          "type": "address"
        }
      ],
      "name": "setBadCache721",
      "outputs": [],
      "stateMutability": "nonpayable",
      "type": "function"
    },
    {
      "inputs": [
        {
          "internalType": "address",
          "name": "_token",
          "type": "address"
        }
      ],
      "name": "setProxiedToken",
      "outputs": [],
      "stateMutability": "nonpayable",
      "type": "function"
    },
    {
      "inputs": [
        {
          "internalType": "bytes4",
          "name": "interfaceId",
          "type": "bytes4"
        }
      ],
      "name": "supportsInterface",
      "outputs": [
        {
          "internalType": "bool",
          "name": "",
          "type": "bool"
        }
      ],
      "stateMutability": "view",
      "type": "function"
    },
    {
      "inputs": [
        {
          "internalType": "address",
          "name": "newOwner",
          "type": "address"
        }
      ],
      "name": "transferOwnership",
      "outputs": [],
      "stateMutability": "nonpayable",
      "type": "function"
    },
    {
      "inputs": [
        {
          "internalType": "address",
          "name": "_newOwner",
          "type": "address"
        }
      ],
      "name": "transferOwnershipOf721",
      "outputs": [],
      "stateMutability": "nonpayable",
      "type": "function"
    }
  ],
  "transactionHash": "0x2e3d5f104b0f13a44e8c0944ee47ce505e0d4babd7860e7c503b4a49e32ca870",
  "args": [],
  "solcInputHash": "6ae5bdbd9ab67cbcd2756967ad4dda83",
  "bytecode": "0x60806040527388b48f654c30e99bc2e4a1559b4dcf1ad93fa656600260006101000a81548173ffffffffffffffffffffffffffffffffffffffff021916908373ffffffffffffffffffffffffffffffffffffffff1602179055506000600360006101000a8154816fffffffffffffffffffffffffffffffff02191690836fffffffffffffffffffffffffffffffff1602179055506000600660006101000a81548173ffffffffffffffffffffffffffffffffffffffff021916908373ffffffffffffffffffffffffffffffffffffffff160217905550348015620000e257600080fd5b5060016000819055506200010b620000ff620001b060201b60201c565b620001b860201b60201c565b6200011b620001b060201b60201c565b73ffffffffffffffffffffffffffffffffffffffff16620001416200027e60201b60201c565b73ffffffffffffffffffffffffffffffffffffffff16146200019a576040517f08c379a0000000000000000000000000000000000000000000000000000000008152600401620001919062000806565b60405180910390fd5b620001aa620002a860201b60201c565b620008c7565b600033905090565b6000600160009054906101000a900473ffffffffffffffffffffffffffffffffffffffff16905081600160006101000a81548173ffffffffffffffffffffffffffffffffffffffff021916908373ffffffffffffffffffffffffffffffffffffffff1602179055508173ffffffffffffffffffffffffffffffffffffffff168173ffffffffffffffffffffffffffffffffffffffff167f8be0079c531659141344cd1fd0a4f28419497f9722a3daafe3b4186f6b6457e060405160405180910390a35050565b6000600160009054906101000a900473ffffffffffffffffffffffffffffffffffffffff16905090565b620002f57f334e763c21de04f839ac3980c2558d9e74bbd72300000000000003000000000160405180608001604052806053815260200162005365605391396001620005ac60201b60201c565b620003427f334e763c21de04f839ac3980c2558d9e74bbd72300000000000004000000000160405180608001604052806053815260200162005120605391396002620005ac60201b60201c565b6200038f7f334e763c21de04f839ac3980c2558d9e74bbd7230000000000000500000000016040518060800160405280605381526020016200540c605391396003620005ac60201b60201c565b620003dc7f334e763c21de04f839ac3980c2558d9e74bbd723000000000000060000000001604051806080016040528060538152602001620052bf605391396004620005ac60201b60201c565b620004297f334e763c21de04f839ac3980c2558d9e74bbd723000000000000070000000001604051806080016040528060538152602001620051c6605391396005620005ac60201b60201c565b620004767f334e763c21de04f839ac3980c2558d9e74bbd72300000000000008000000000160405180608001604052806053815260200162005173605391396006620005ac60201b60201c565b620004c37f334e763c21de04f839ac3980c2558d9e74bbd72300000000000009000000000160405180608001604052806053815260200162005219605391396007620005ac60201b60201c565b620005107f334e763c21de04f839ac3980c2558d9e74bbd7230000000000000a00000000016040518060800160405280605381526020016200526c605391396008620005ac60201b60201c565b6200055d7f334e763c21de04f839ac3980c2558d9e74bbd7230000000000000b000000000160405180608001604052806053815260200162005312605391396009620005ac60201b60201c565b620005aa7f334e763c21de04f839ac3980c2558d9e74bbd7230000000000000afffffffff7604051806080016040528060548152602001620053b860549139600a620005ac60201b60201c565b565b620005bc620001b060201b60201c565b73ffffffffffffffffffffffffffffffffffffffff16620005e26200027e60201b60201c565b73ffffffffffffffffffffffffffffffffffffffff16146200063b576040517f08c379a0000000000000000000000000000000000000000000000000000000008152600401620006329062000806565b60405180910390fd5b6008839080600181540180825580915050600190039060005260206000200160009091909190915055806009600085815260200190815260200160002060006101000a81548161ffff021916908361ffff160217905550600b8190806001815401808255809150506001900390600052602060002090601091828204019190066002029091909190916101000a81548161ffff021916908361ffff16021790555081600760008361ffff1681526020019081526020016000209080519060200190620007099291906200072f565b5082600a60008361ffff1661ffff16815260200190815260200160002081905550505050565b8280546200073d9062000839565b90600052602060002090601f016020900481019282620007615760008555620007ad565b82601f106200077c57805160ff1916838001178555620007ad565b82800160010185558215620007ad579182015b82811115620007ac5782518255916020019190600101906200078f565b5b509050620007bc9190620007c0565b5090565b5b80821115620007db576000816000905550600101620007c1565b5090565b6000620007ee60208362000828565b9150620007fb826200089e565b602082019050919050565b600060208201905081810360008301526200082181620007df565b9050919050565b600082825260208201905092915050565b600060028204905060018216806200085257607f821691505b602082108114156200086957620008686200086f565b5b50919050565b7f4e487b7100000000000000000000000000000000000000000000000000000000600052602260045260246000fd5b7f4f776e61626c653a2063616c6c6572206973206e6f7420746865206f776e6572600082015250565b61484980620008d76000396000f3fe608060405234801561001057600080fd5b50600436106101165760003560e01c80636df6149a116100a2578063a88d2c2911610071578063a88d2c29146102cf578063bc197c81146102eb578063f12c58691461031b578063f23a6e6114610337578063f2fde38b1461036757610116565b80636df6149a1461026f578063715018a61461028b5780638da5cb5b1461029557806399d2b1b1146102b357610116565b8063182da92d116100e9578063182da92d146101c95780632b105663146101e557806335b9dec9146102035780634d7b9bd51461022157806354ffbf071461025157610116565b806301ffc9a71461011b578063037679e91461014b578063040e55f51461017b578063150b7a0214610199575b600080fd5b61013560048036038101906101309190613520565b610383565b6040516101429190613c1f565b60405180910390f35b6101656004803603810190610160919061354d565b6103fd565b6040516101729190613c1f565b60405180910390f35b6101836104b5565b6040516101909190613e57565b60405180910390f35b6101b360048036038101906101ae9190613399565b6104db565b6040516101c09190613c3a565b60405180910390f35b6101e360048036038101906101de9190613270565b6106c9565b005b6101ed610845565b6040516101fa9190613bfd565b60405180910390f35b61020b610a22565b6040516102189190613bdb565b60405180910390f35b61023b600480360381019061023691906134b3565b610ab0565b6040516102489190613e72565b60405180910390f35b610259610c8d565b6040516102669190613bfd565b60405180910390f35b61028960048036038101906102849190613270565b610d80565b005b610293610eb0565b005b61029d610f38565b6040516102aa9190613b08565b60405180910390f35b6102cd60048036038101906102c89190613616565b610f62565b005b6102e960048036038101906102e491906135a7565b6110d0565b005b610305600480360381019061030091906132ca565b611831565b6040516103129190613c3a565b60405180910390f35b61033560048036038101906103309190613270565b611846565b005b610351600480360381019061034c919061341c565b611976565b60405161035e9190613c3a565b60405180910390f35b610381600480360381019061037c9190613270565b611a15565b005b60007f4e2312e0000000000000000000000000000000000000000000000000000000007bffffffffffffffffffffffffffffffffffffffffffffffffffffffff1916827bffffffffffffffffffffffffffffffffffffffffffffffffffffffff191614806103f657506103f582611b0d565b5b9050919050565b600080600260009054906101000a900473ffffffffffffffffffffffffffffffffffffffff1673ffffffffffffffffffffffffffffffffffffffff1662fdd58e33856040518363ffffffff1660e01b815260040161045c929190613bb2565b60206040518083038186803b15801561047457600080fd5b505afa158015610488573d6000803e3d6000fd5b505050506040513d601f19601f820116820180604052508101906104ac919061357a565b14159050919050565b6000600360009054906101000a90046fffffffffffffffffffffffffffffffff16905090565b600061051b6040518060400160405280600881526020017f6861736173617361000000000000000000000000000000000000000000000000815250611b77565b600073ffffffffffffffffffffffffffffffffffffffff168573ffffffffffffffffffffffffffffffffffffffff16141561058b576040517f08c379a000000000000000000000000000000000000000000000000000000000815260040161058290613d37565b60405180910390fd5b3073ffffffffffffffffffffffffffffffffffffffff168573ffffffffffffffffffffffffffffffffffffffff1614156105d2576105cb85858585611c10565b90506106c1565b61ffff8016831115610619576040517f08c379a000000000000000000000000000000000000000000000000000000000815260040161061090613df7565b60405180910390fd5b3073ffffffffffffffffffffffffffffffffffffffff168573ffffffffffffffffffffffffffffffffffffffff1614610657576106568584611c24565b5b828473ffffffffffffffffffffffffffffffffffffffff168673ffffffffffffffffffffffffffffffffffffffff167f8b4cef469eefc3a170ec7442a9c195091083f374fe03cc766d3f998d41f1e3cc60405160405180910390a46106be85858585611c10565b90505b949350505050565b6106d1611f21565b73ffffffffffffffffffffffffffffffffffffffff166106ef610f38565b73ffffffffffffffffffffffffffffffffffffffff1614610745576040517f08c379a000000000000000000000000000000000000000000000000000000000815260040161073c90613db7565b60405180910390fd5b600073ffffffffffffffffffffffffffffffffffffffff168173ffffffffffffffffffffffffffffffffffffffff1614156107b5576040517f08c379a00000000000000000000000000000000000000000000000000000000081526004016107ac90613c77565b60405180910390fd5b600660009054906101000a900473ffffffffffffffffffffffffffffffffffffffff1673ffffffffffffffffffffffffffffffffffffffff1663f2fde38b826040518263ffffffff1660e01b81526004016108109190613b08565b600060405180830381600087803b15801561082a57600080fd5b505af115801561083e573d6000803e3d6000fd5b5050505050565b60606000600360009054906101000a90046fffffffffffffffffffffffffffffffff166fffffffffffffffffffffffffffffffff1667ffffffffffffffff811115610893576108926142b6565b5b6040519080825280602002602001820160405280156108c15781602001602082028036833780820191505090505b50905060005b600360009054906101000a90046fffffffffffffffffffffffffffffffff166fffffffffffffffffffffffffffffffff16816fffffffffffffffffffffffffffffffff161015610a1a5760056000826fffffffffffffffffffffffffffffffff166fffffffffffffffffffffffffffffffff16815260200190815260200160002060006004836fffffffffffffffffffffffffffffffff16815481106109705761096f614287565b5b9060005260206000200160009054906101000a900473ffffffffffffffffffffffffffffffffffffffff1673ffffffffffffffffffffffffffffffffffffffff1673ffffffffffffffffffffffffffffffffffffffff1681526020019081526020016000205482826fffffffffffffffffffffffffffffffff16815181106109fb576109fa614287565b5b6020026020010181815250508080610a12906141c2565b9150506108c7565b508091505090565b60606004805480602002602001604051908101604052809291908181526020018280548015610aa657602002820191906000526020600020905b8160009054906101000a900473ffffffffffffffffffffffffffffffffffffffff1673ffffffffffffffffffffffffffffffffffffffff1681526020019060010190808311610a5c575b5050505050905090565b6000816000805b600880549050816fffffffffffffffffffffffffffffffff161015610b2657826008826fffffffffffffffffffffffffffffffff1681548110610afd57610afc614287565b5b90600052602060002001541415610b1357600191505b8080610b1e906141c2565b915050610ab7565b5080610b67576040517f08c379a0000000000000000000000000000000000000000000000000000000008152600401610b5e90613e17565b60405180910390fd5b600073ffffffffffffffffffffffffffffffffffffffff168573ffffffffffffffffffffffffffffffffffffffff161415610bd7576040517f08c379a0000000000000000000000000000000000000000000000000000000008152600401610bce90613d97565b60405180910390fd5b600260009054906101000a900473ffffffffffffffffffffffffffffffffffffffff1673ffffffffffffffffffffffffffffffffffffffff1662fdd58e86866040518363ffffffff1660e01b8152600401610c33929190613bb2565b60206040518083038186803b158015610c4b57600080fd5b505afa158015610c5f573d6000803e3d6000fd5b505050506040513d601f19601f82011682018060405250810190610c83919061357a565b9250505092915050565b60606000600c8054905067ffffffffffffffff811115610cb057610caf6142b6565b5b604051908082528060200260200182016040528015610cde5781602001602082028036833780820191505090505b50905060005b600c80549050816fffffffffffffffffffffffffffffffff161015610d7857600c816fffffffffffffffffffffffffffffffff1681548110610d2957610d28614287565b5b906000526020600020015482826fffffffffffffffffffffffffffffffff1681518110610d5957610d58614287565b5b6020026020010181815250508080610d70906141c2565b915050610ce4565b508091505090565b610d88611f21565b73ffffffffffffffffffffffffffffffffffffffff16610da6610f38565b73ffffffffffffffffffffffffffffffffffffffff1614610dfc576040517f08c379a0000000000000000000000000000000000000000000000000000000008152600401610df390613db7565b60405180910390fd5b600073ffffffffffffffffffffffffffffffffffffffff168173ffffffffffffffffffffffffffffffffffffffff161415610e6c576040517f08c379a0000000000000000000000000000000000000000000000000000000008152600401610e6390613cd7565b60405180910390fd5b80600260006101000a81548173ffffffffffffffffffffffffffffffffffffffff021916908373ffffffffffffffffffffffffffffffffffffffff16021790555050565b610eb8611f21565b73ffffffffffffffffffffffffffffffffffffffff16610ed6610f38565b73ffffffffffffffffffffffffffffffffffffffff1614610f2c576040517f08c379a0000000000000000000000000000000000000000000000000000000008152600401610f2390613db7565b60405180910390fd5b610f366000611f29565b565b6000600160009054906101000a900473ffffffffffffffffffffffffffffffffffffffff16905090565b610f6a611f21565b73ffffffffffffffffffffffffffffffffffffffff16610f88610f38565b73ffffffffffffffffffffffffffffffffffffffff1614610fde576040517f08c379a0000000000000000000000000000000000000000000000000000000008152600401610fd590613db7565b60405180910390fd5b6008839080600181540180825580915050600190039060005260206000200160009091909190915055806009600085815260200190815260200160002060006101000a81548161ffff021916908361ffff160217905550600b8190806001815401808255809150506001900390600052602060002090601091828204019190066002029091909190916101000a81548161ffff021916908361ffff16021790555081600760008361ffff16815260200190815260200160002090805190602001906110aa929190612fbc565b5082600a60008361ffff1661ffff16815260200190815260200160002081905550505050565b6110d8611f21565b73ffffffffffffffffffffffffffffffffffffffff166110f6610f38565b73ffffffffffffffffffffffffffffffffffffffff161461114c576040517f08c379a000000000000000000000000000000000000000000000000000000000815260040161114390613db7565b60405180910390fd5b600073ffffffffffffffffffffffffffffffffffffffff168173ffffffffffffffffffffffffffffffffffffffff1614156111bc576040517f08c379a00000000000000000000000000000000000000000000000000000000081526004016111b390613d17565b60405180910390fd5b600660009054906101000a900473ffffffffffffffffffffffffffffffffffffffff1673ffffffffffffffffffffffffffffffffffffffff16634f558e79846040518263ffffffff1660e01b81526004016112179190613e72565b60206040518083038186803b15801561122f57600080fd5b505afa158015611243573d6000803e3d6000fd5b505050506040513d601f19601f8201168201806040525081019061126791906134f3565b156112a2577f96561394bac381230de4649200e8831afcab1f451881bbade9ef209f6dd3048060405161129990613cf7565b60405180910390a15b3073ffffffffffffffffffffffffffffffffffffffff16600660009054906101000a900473ffffffffffffffffffffffffffffffffffffffff1673ffffffffffffffffffffffffffffffffffffffff16636352211e856040518263ffffffff1660e01b81526004016113149190613e72565b60206040518083038186803b15801561132c57600080fd5b505afa158015611340573d6000803e3d6000fd5b505050506040513d601f19601f82011682018060405250810190611364919061329d565b73ffffffffffffffffffffffffffffffffffffffff1614156113ba577f96561394bac381230de4649200e8831afcab1f451881bbade9ef209f6dd304806040516113ad90613c97565b60405180910390a16114bd565b7f96561394bac381230de4649200e8831afcab1f451881bbade9ef209f6dd3048083600660009054906101000a900473ffffffffffffffffffffffffffffffffffffffff1673ffffffffffffffffffffffffffffffffffffffff16636352211e866040518263ffffffff1660e01b81526004016114379190613e72565b60206040518083038186803b15801561144f57600080fd5b505afa158015611463573d6000803e3d6000fd5b505050506040513d601f19601f82011682018060405250810190611487919061329d565b604051602001611498929190613ac6565b6040516020818303038152906040526040516114b49190613c55565b60405180910390a15b600660009054906101000a900473ffffffffffffffffffffffffffffffffffffffff1673ffffffffffffffffffffffffffffffffffffffff16634f558e79846040518263ffffffff1660e01b81526004016115189190613e72565b60206040518083038186803b15801561153057600080fd5b505afa158015611544573d6000803e3d6000fd5b505050506040513d601f19601f8201168201806040525081019061156891906134f3565b801561164957503073ffffffffffffffffffffffffffffffffffffffff16600660009054906101000a900473ffffffffffffffffffffffffffffffffffffffff1673ffffffffffffffffffffffffffffffffffffffff16636352211e856040518263ffffffff1660e01b81526004016115e19190613e72565b60206040518083038186803b1580156115f957600080fd5b505afa15801561160d573d6000803e3d6000fd5b505050506040513d601f19601f82011682018060405250810190611631919061329d565b73ffffffffffffffffffffffffffffffffffffffff16145b156116e457600660009054906101000a900473ffffffffffffffffffffffffffffffffffffffff1673ffffffffffffffffffffffffffffffffffffffff166342842e0e3083866040518463ffffffff1660e01b81526004016116ad93929190613b23565b600060405180830381600087803b1580156116c757600080fd5b505af11580156116db573d6000803e3d6000fd5b5050505061182c565b600660009054906101000a900473ffffffffffffffffffffffffffffffffffffffff1673ffffffffffffffffffffffffffffffffffffffff16634f558e79846040518263ffffffff1660e01b815260040161173f9190613e72565b60206040518083038186803b15801561175757600080fd5b505afa15801561176b573d6000803e3d6000fd5b505050506040513d601f19601f8201168201806040525081019061178f91906134f3565b156117cf576040517f08c379a00000000000000000000000000000000000000000000000000000000081526004016117c690613e37565b60405180910390fd5b6117da838284611fef565b600c8390806001815401808255809150506001900390600052602060002001600090919091909150558160076000858152602001908152602001600020908051906020019061182a929190612fbc565b505b505050565b600063bc197c8160e01b905095945050505050565b61184e611f21565b73ffffffffffffffffffffffffffffffffffffffff1661186c610f38565b73ffffffffffffffffffffffffffffffffffffffff16146118c2576040517f08c379a00000000000000000000000000000000000000000000000000000000081526004016118b990613db7565b60405180910390fd5b600073ffffffffffffffffffffffffffffffffffffffff168173ffffffffffffffffffffffffffffffffffffffff161415611932576040517f08c379a000000000000000000000000000000000000000000000000000000000815260040161192990613d77565b60405180910390fd5b80600660006101000a81548173ffffffffffffffffffffffffffffffffffffffff021916908373ffffffffffffffffffffffffffffffffffffffff16021790555050565b6000611981866121e7565b61198b8685612280565b506119968685612800565b50838573ffffffffffffffffffffffffffffffffffffffff168773ffffffffffffffffffffffffffffffffffffffff167f6304c1ee3c752f0228b32650bfddc4332b2a60084c685fdd9e9ee74201fa6e6f866040516119f59190613e72565b60405180910390a4611a0a8686868686612cd3565b905095945050505050565b611a1d611f21565b73ffffffffffffffffffffffffffffffffffffffff16611a3b610f38565b73ffffffffffffffffffffffffffffffffffffffff1614611a91576040517f08c379a0000000000000000000000000000000000000000000000000000000008152600401611a8890613db7565b60405180910390fd5b600073ffffffffffffffffffffffffffffffffffffffff168173ffffffffffffffffffffffffffffffffffffffff161415611b01576040517f08c379a0000000000000000000000000000000000000000000000000000000008152600401611af890613cb7565b60405180910390fd5b611b0a81611f29565b50565b60007f01ffc9a7000000000000000000000000000000000000000000000000000000007bffffffffffffffffffffffffffffffffffffffffffffffffffffffff1916827bffffffffffffffffffffffffffffffffffffffffffffffffffffffff1916149050919050565b611c0d81604051602401611b8b9190613c55565b6040516020818303038152906040527f41304fac000000000000000000000000000000000000000000000000000000007bffffffffffffffffffffffffffffffffffffffffffffffffffffffff19166020820180517bffffffffffffffffffffffffffffffffffffffffffffffffffffffff8381831617835250505050612ce8565b50565b600063150b7a0260e01b9050949350505050565b806000805b600b80549050816fffffffffffffffffffffffffffffffff161015611cb55782600b826fffffffffffffffffffffffffffffffff1681548110611c6f57611c6e614287565b5b90600052602060002090601091828204019190066002029054906101000a900461ffff1661ffff161415611ca257600191505b8080611cad906141c2565b915050611c29565b5080611cf6576040517f08c379a0000000000000000000000000000000000000000000000000000000008152600401611ced90613d57565b60405180910390fd5b60005b600480549050816effffffffffffffffffffffffffffff161015611e00578473ffffffffffffffffffffffffffffffffffffffff166004826effffffffffffffffffffffffffffff1681548110611d5357611d52614287565b5b9060005260206000200160009054906101000a900473ffffffffffffffffffffffffffffffffffffffff1673ffffffffffffffffffffffffffffffffffffffff161415611ded576004816effffffffffffffffffffffffffffff1681548110611dbf57611dbe614287565b5b9060005260206000200160006101000a81549073ffffffffffffffffffffffffffffffffffffffff02191690555b8080611df89061418a565b915050611cf9565b50611e25600a60008561ffff1661ffff16815260200190815260200160002054612d11565b611e636040518060400160405280601481526020017f746861742069732074686520746f6b656e206964000000000000000000000000815250611b77565b611e6c846121e7565b600260009054906101000a900473ffffffffffffffffffffffffffffffffffffffff1673ffffffffffffffffffffffffffffffffffffffff1663f242432a3086600a60008861ffff1661ffff1681526020019081526020016000205460016040518563ffffffff1660e01b8152600401611ee99493929190613b5a565b600060405180830381600087803b158015611f0357600080fd5b505af1158015611f17573d6000803e3d6000fd5b5050505050505050565b600033905090565b6000600160009054906101000a900473ffffffffffffffffffffffffffffffffffffffff16905081600160006101000a81548173ffffffffffffffffffffffffffffffffffffffff021916908373ffffffffffffffffffffffffffffffffffffffff1602179055508173ffffffffffffffffffffffffffffffffffffffff168173ffffffffffffffffffffffffffffffffffffffff167f8be0079c531659141344cd1fd0a4f28419497f9722a3daafe3b4186f6b6457e060405160405180910390a35050565b600660009054906101000a900473ffffffffffffffffffffffffffffffffffffffff1673ffffffffffffffffffffffffffffffffffffffff166340c10f1930856040518363ffffffff1660e01b815260040161204c929190613bb2565b600060405180830381600087803b15801561206657600080fd5b505af115801561207a573d6000803e3d6000fd5b50505050600660009054906101000a900473ffffffffffffffffffffffffffffffffffffffff1673ffffffffffffffffffffffffffffffffffffffff166357f7789e84836040518363ffffffff1660e01b81526004016120db929190613e8d565b600060405180830381600087803b1580156120f557600080fd5b505af1158015612109573d6000803e3d6000fd5b50505050600660009054906101000a900473ffffffffffffffffffffffffffffffffffffffff1673ffffffffffffffffffffffffffffffffffffffff166342842e0e3084866040518463ffffffff1660e01b815260040161216c93929190613b23565b600060405180830381600087803b15801561218657600080fd5b505af115801561219a573d6000803e3d6000fd5b50505050828273ffffffffffffffffffffffffffffffffffffffff167fc9df5098516ab2a8b9281c29482b47b41af365e6e56ecb40909bdc960bda328160405160405180910390a3505050565b61227d816040516024016121fb9190613b08565b6040516020818303038152906040527f2c2ecbc2000000000000000000000000000000000000000000000000000000007bffffffffffffffffffffffffffffffffffffffffffffffffffffffff19166020820180517bffffffffffffffffffffffffffffffffffffffffffffffffffffffff8381831617835250505050612ce8565b50565b6000816000805b600880549050816fffffffffffffffffffffffffffffffff1610156122f657826008826fffffffffffffffffffffffffffffffff16815481106122cd576122cc614287565b5b906000526020600020015414156122e357600191505b80806122ee906141c2565b915050612287565b5080612337576040517f08c379a000000000000000000000000000000000000000000000000000000000815260040161232e90613e17565b60405180910390fd5b600073ffffffffffffffffffffffffffffffffffffffff168573ffffffffffffffffffffffffffffffffffffffff1614156123a7576040517f08c379a000000000000000000000000000000000000000000000000000000000815260040161239e90613d37565b60405180910390fd5b6123e56040518060400160405280600f81526020017f49732074686973206120746f6b656e0000000000000000000000000000000000815250612daa565b6123ee84612d11565b612419600260009054906101000a900473ffffffffffffffffffffffffffffffffffffffff166121e7565b612422856121e7565b6124d6600260009054906101000a900473ffffffffffffffffffffffffffffffffffffffff1673ffffffffffffffffffffffffffffffffffffffff1662fdd58e87876040518363ffffffff1660e01b8152600401612481929190613bb2565b60206040518083038186803b15801561249957600080fd5b505afa1580156124ad573d6000803e3d6000fd5b505050506040513d601f19601f820116820180604052508101906124d1919061357a565b612d11565b61258a600260009054906101000a900473ffffffffffffffffffffffffffffffffffffffff1673ffffffffffffffffffffffffffffffffffffffff1662fdd58e30876040518363ffffffff1660e01b8152600401612535929190613bb2565b60206040518083038186803b15801561254d57600080fd5b505afa158015612561573d6000803e3d6000fd5b505050506040513d601f19601f82011682018060405250810190612585919061357a565b612d11565b6000600260009054906101000a900473ffffffffffffffffffffffffffffffffffffffff1673ffffffffffffffffffffffffffffffffffffffff1662fdd58e30876040518363ffffffff1660e01b81526004016125e8929190613bb2565b60206040518083038186803b15801561260057600080fd5b505afa158015612614573d6000803e3d6000fd5b505050506040513d601f19601f82011682018060405250810190612638919061357a565b11612678576040517f08c379a000000000000000000000000000000000000000000000000000000000815260040161266f90613dd7565b60405180910390fd5b6004859080600181540180825580915050600190039060005260206000200160009091909190916101000a81548173ffffffffffffffffffffffffffffffffffffffff021916908373ffffffffffffffffffffffffffffffffffffffff1602179055508360056000600360009054906101000a90046fffffffffffffffffffffffffffffffff166fffffffffffffffffffffffffffffffff166fffffffffffffffffffffffffffffffff16815260200190815260200160002060008773ffffffffffffffffffffffffffffffffffffffff1673ffffffffffffffffffffffffffffffffffffffff168152602001908152602001600020819055506003600081819054906101000a90046fffffffffffffffffffffffffffffffff16809291906127a0906141c2565b91906101000a8154816fffffffffffffffffffffffffffffffff02191690836fffffffffffffffffffffffffffffffff16021790555050600360009054906101000a90046fffffffffffffffffffffffffffffffff169250505092915050565b6000816000805b600880549050816fffffffffffffffffffffffffffffffff16101561287657826008826fffffffffffffffffffffffffffffffff168154811061284d5761284c614287565b5b9060005260206000200154141561286357600191505b808061286e906141c2565b915050612807565b50806128b7576040517f08c379a00000000000000000000000000000000000000000000000000000000081526004016128ae90613e17565b60405180910390fd5b600073ffffffffffffffffffffffffffffffffffffffff168573ffffffffffffffffffffffffffffffffffffffff161415612927576040517f08c379a000000000000000000000000000000000000000000000000000000000815260040161291e90613d17565b60405180910390fd5b60006009600086815260200190815260200160002060009054906101000a900461ffff1661ffff169050600660009054906101000a900473ffffffffffffffffffffffffffffffffffffffff1673ffffffffffffffffffffffffffffffffffffffff16634f558e79826040518263ffffffff1660e01b81526004016129ac9190613e72565b60206040518083038186803b1580156129c457600080fd5b505afa1580156129d8573d6000803e3d6000fd5b505050506040513d601f19601f820116820180604052508101906129fc91906134f3565b8015612add57503073ffffffffffffffffffffffffffffffffffffffff16600660009054906101000a900473ffffffffffffffffffffffffffffffffffffffff1673ffffffffffffffffffffffffffffffffffffffff16636352211e836040518263ffffffff1660e01b8152600401612a759190613e72565b60206040518083038186803b158015612a8d57600080fd5b505afa158015612aa1573d6000803e3d6000fd5b505050506040513d601f19601f82011682018060405250810190612ac5919061329d565b73ffffffffffffffffffffffffffffffffffffffff16145b15612b7d57600660009054906101000a900473ffffffffffffffffffffffffffffffffffffffff1673ffffffffffffffffffffffffffffffffffffffff166342842e0e3088846040518463ffffffff1660e01b8152600401612b4193929190613b23565b600060405180830381600087803b158015612b5b57600080fd5b505af1158015612b6f573d6000803e3d6000fd5b505050506001935050612ccb565b600660009054906101000a900473ffffffffffffffffffffffffffffffffffffffff1673ffffffffffffffffffffffffffffffffffffffff16634f558e79826040518263ffffffff1660e01b8152600401612bd89190613e72565b60206040518083038186803b158015612bf057600080fd5b505afa158015612c04573d6000803e3d6000fd5b505050506040513d601f19601f82011682018060405250810190612c2891906134f3565b15612c68576040517f08c379a0000000000000000000000000000000000000000000000000000000008152600401612c5f90613e37565b60405180910390fd5b6000811415612cac576040517f08c379a0000000000000000000000000000000000000000000000000000000008152600401612ca390613d57565b60405180910390fd5b6000612cb782612e43565b9050612cc4828883611fef565b6001945050505b505092915050565b600063f23a6e6160e01b905095945050505050565b60008151905060006a636f6e736f6c652e6c6f679050602083016000808483855afa5050505050565b612da781604051602401612d259190613e72565b6040516020818303038152906040527ff5b1bba9000000000000000000000000000000000000000000000000000000007bffffffffffffffffffffffffffffffffffffffffffffffffffffffff19166020820180517bffffffffffffffffffffffffffffffffffffffffffffffffffffffff8381831617835250505050612ce8565b50565b612e4081604051602401612dbe9190613c55565b6040516020818303038152906040527f41304fac000000000000000000000000000000000000000000000000000000007bffffffffffffffffffffffffffffffffffffffffffffffffffffffff19166020820180517bffffffffffffffffffffffffffffffffffffffffffffffffffffffff8381831617835250505050612ce8565b50565b6060816000805b600b80549050816fffffffffffffffffffffffffffffffff161015612ed65782600b826fffffffffffffffffffffffffffffffff1681548110612e9057612e8f614287565b5b90600052602060002090601091828204019190066002029054906101000a900461ffff1661ffff161415612ec357600191505b8080612ece906141c2565b915050612e4a565b5080612f17576040517f08c379a0000000000000000000000000000000000000000000000000000000008152600401612f0e90613d57565b60405180910390fd5b600760008581526020019081526020016000208054612f3590614127565b80601f0160208091040260200160405190810160405280929190818152602001828054612f6190614127565b8015612fae5780601f10612f8357610100808354040283529160200191612fae565b820191906000526020600020905b815481529060010190602001808311612f9157829003601f168201915b505050505092505050919050565b828054612fc890614127565b90600052602060002090601f016020900481019282612fea5760008555613031565b82601f1061300357805160ff1916838001178555613031565b82800160010185558215613031579182015b82811115613030578251825591602001919060010190613015565b5b50905061303e9190613042565b5090565b5b8082111561305b576000816000905550600101613043565b5090565b600061307261306d84613ee2565b613ebd565b90508083825260208201905082856020860282011115613095576130946142ea565b5b60005b858110156130c557816130ab8882613246565b845260208401935060208301925050600181019050613098565b5050509392505050565b60006130e26130dd84613f0e565b613ebd565b9050828152602081018484840111156130fe576130fd6142ef565b5b6131098482856140e5565b509392505050565b600061312461311f84613f3f565b613ebd565b9050828152602081018484840111156131405761313f6142ef565b5b61314b8482856140e5565b509392505050565b600081359050613162816147a0565b92915050565b600081519050613177816147a0565b92915050565b600082601f830112613192576131916142e5565b5b81356131a284826020860161305f565b91505092915050565b6000815190506131ba816147b7565b92915050565b6000813590506131cf816147ce565b92915050565b600082601f8301126131ea576131e96142e5565b5b81356131fa8482602086016130cf565b91505092915050565b600082601f830112613218576132176142e5565b5b8135613228848260208601613111565b91505092915050565b600081359050613240816147e5565b92915050565b600081359050613255816147fc565b92915050565b60008151905061326a816147fc565b92915050565b600060208284031215613286576132856142f9565b5b600061329484828501613153565b91505092915050565b6000602082840312156132b3576132b26142f9565b5b60006132c184828501613168565b91505092915050565b600080600080600060a086880312156132e6576132e56142f9565b5b60006132f488828901613153565b955050602061330588828901613153565b945050604086013567ffffffffffffffff811115613326576133256142f4565b5b6133328882890161317d565b935050606086013567ffffffffffffffff811115613353576133526142f4565b5b61335f8882890161317d565b925050608086013567ffffffffffffffff8111156133805761337f6142f4565b5b61338c888289016131d5565b9150509295509295909350565b600080600080608085870312156133b3576133b26142f9565b5b60006133c187828801613153565b94505060206133d287828801613153565b93505060406133e387828801613246565b925050606085013567ffffffffffffffff811115613404576134036142f4565b5b613410878288016131d5565b91505092959194509250565b600080600080600060a08688031215613438576134376142f9565b5b600061344688828901613153565b955050602061345788828901613153565b945050604061346888828901613246565b935050606061347988828901613246565b925050608086013567ffffffffffffffff81111561349a576134996142f4565b5b6134a6888289016131d5565b9150509295509295909350565b600080604083850312156134ca576134c96142f9565b5b60006134d885828601613153565b92505060206134e985828601613246565b9150509250929050565b600060208284031215613509576135086142f9565b5b6000613517848285016131ab565b91505092915050565b600060208284031215613536576135356142f9565b5b6000613544848285016131c0565b91505092915050565b600060208284031215613563576135626142f9565b5b600061357184828501613246565b91505092915050565b6000602082840312156135905761358f6142f9565b5b600061359e8482850161325b565b91505092915050565b6000806000606084860312156135c0576135bf6142f9565b5b60006135ce86828701613246565b935050602084013567ffffffffffffffff8111156135ef576135ee6142f4565b5b6135fb86828701613203565b925050604061360c86828701613153565b9150509250925092565b60008060006060848603121561362f5761362e6142f9565b5b600061363d86828701613246565b935050602084013567ffffffffffffffff81111561365e5761365d6142f4565b5b61366a86828701613203565b925050604061367b86828701613231565b9150509250925092565b600061369183836136b5565b60208301905092915050565b60006136a98383613a91565b60208301905092915050565b6136be8161401a565b82525050565b6136cd8161401a565b82525050565b6136e46136df8261401a565b6141fb565b82525050565b60006136f582613f90565b6136ff8185613fcb565b935061370a83613f70565b8060005b8381101561373b5781516137228882613685565b975061372d83613fb1565b92505060018101905061370e565b5085935050505092915050565b600061375382613f9b565b61375d8185613fdc565b935061376883613f80565b8060005b83811015613799578151613780888261369d565b975061378b83613fbe565b92505060018101905061376c565b5085935050505092915050565b6137af8161402c565b82525050565b6137be81614038565b82525050565b6137cd816140d3565b82525050565b60006137de82613fa6565b6137e88185613ffe565b93506137f88185602086016140f4565b613801816142fe565b840191505092915050565b6000613819603583613ffe565b91506138248261431c565b604082019050919050565b600061383c601c83613ffe565b91506138478261436b565b602082019050919050565b600061385f602683613ffe565b915061386a82614394565b604082019050919050565b6000613882603583613ffe565b915061388d826143e3565b604082019050919050565b60006138a5601283613ffe565b91506138b082614432565b602082019050919050565b60006138c8603c83613ffe565b91506138d38261445b565b604082019050919050565b60006138eb603483613ffe565b91506138f6826144aa565b604082019050919050565b600061390e602c83613ffe565b9150613919826144f9565b604082019050919050565b6000613931603b83613ffe565b915061393c82614548565b604082019050919050565b6000613954603683613ffe565b915061395f82614597565b604082019050919050565b6000613977602083613ffe565b9150613982826145e6565b602082019050919050565b600061399a600f8361400f565b91506139a58261460f565b600f82019050919050565b60006139bd600083613fed565b91506139c882614638565b600082019050919050565b60006139e0602c83613ffe565b91506139eb8261463b565b604082019050919050565b6000613a0360048361400f565b9150613a0e8261468a565b600482019050919050565b6000613a26602283613ffe565b9150613a31826146b3565b604082019050919050565b6000613a49602883613ffe565b9150613a5482614702565b604082019050919050565b6000613a6c602483613ffe565b9150613a7782614751565b604082019050919050565b613a8b8161407f565b82525050565b613a9a816140c9565b82525050565b613aa9816140c9565b82525050565b613ac0613abb826140c9565b61421f565b82525050565b6000613ad18261398d565b9150613add8285613aaf565b602082019150613aec826139f6565b9150613af882846136d3565b6014820191508190509392505050565b6000602082019050613b1d60008301846136c4565b92915050565b6000606082019050613b3860008301866136c4565b613b4560208301856136c4565b613b526040830184613aa0565b949350505050565b600060a082019050613b6f60008301876136c4565b613b7c60208301866136c4565b613b896040830185613aa0565b613b9660608301846137c4565b8181036080830152613ba7816139b0565b905095945050505050565b6000604082019050613bc760008301856136c4565b613bd46020830184613aa0565b9392505050565b60006020820190508181036000830152613bf581846136ea565b905092915050565b60006020820190508181036000830152613c178184613748565b905092915050565b6000602082019050613c3460008301846137a6565b92915050565b6000602082019050613c4f60008301846137b5565b92915050565b60006020820190508181036000830152613c6f81846137d3565b905092915050565b60006020820190508181036000830152613c908161380c565b9050919050565b60006020820190508181036000830152613cb08161382f565b9050919050565b60006020820190508181036000830152613cd081613852565b9050919050565b60006020820190508181036000830152613cf081613875565b9050919050565b60006020820190508181036000830152613d1081613898565b9050919050565b60006020820190508181036000830152613d30816138bb565b9050919050565b60006020820190508181036000830152613d50816138de565b9050919050565b60006020820190508181036000830152613d7081613901565b9050919050565b60006020820190508181036000830152613d9081613924565b9050919050565b60006020820190508181036000830152613db081613947565b9050919050565b60006020820190508181036000830152613dd08161396a565b9050919050565b60006020820190508181036000830152613df0816139d3565b9050919050565b60006020820190508181036000830152613e1081613a19565b9050919050565b60006020820190508181036000830152613e3081613a3c565b9050919050565b60006020820190508181036000830152613e5081613a5f565b9050919050565b6000602082019050613e6c6000830184613a82565b92915050565b6000602082019050613e876000830184613aa0565b92915050565b6000604082019050613ea26000830185613aa0565b8181036020830152613eb481846137d3565b90509392505050565b6000613ec7613ed8565b9050613ed38282614159565b919050565b6000604051905090565b600067ffffffffffffffff821115613efd57613efc6142b6565b5b602082029050602081019050919050565b600067ffffffffffffffff821115613f2957613f286142b6565b5b613f32826142fe565b9050602081019050919050565b600067ffffffffffffffff821115613f5a57613f596142b6565b5b613f63826142fe565b9050602081019050919050565b6000819050602082019050919050565b6000819050602082019050919050565b600081519050919050565b600081519050919050565b600081519050919050565b6000602082019050919050565b6000602082019050919050565b600082825260208201905092915050565b600082825260208201905092915050565b600082825260208201905092915050565b600082825260208201905092915050565b600081905092915050565b6000614025826140a9565b9050919050565b60008115159050919050565b60007fffffffff0000000000000000000000000000000000000000000000000000000082169050919050565b60006effffffffffffffffffffffffffffff82169050919050565b60006fffffffffffffffffffffffffffffffff82169050919050565b600061ffff82169050919050565b600073ffffffffffffffffffffffffffffffffffffffff82169050919050565b6000819050919050565b60006140de826140c9565b9050919050565b82818337600083830152505050565b60005b838110156141125780820151818401526020810190506140f7565b83811115614121576000848401525b50505050565b6000600282049050600182168061413f57607f821691505b6020821081141561415357614152614258565b5b50919050565b614162826142fe565b810181811067ffffffffffffffff82111715614181576141806142b6565b5b80604052505050565b600061419582614064565b91506effffffffffffffffffffffffffffff8214156141b7576141b6614229565b5b600182019050919050565b60006141cd8261407f565b91506fffffffffffffffffffffffffffffffff8214156141f0576141ef614229565b5b600182019050919050565b60006142068261420d565b9050919050565b60006142188261430f565b9050919050565b6000819050919050565b7f4e487b7100000000000000000000000000000000000000000000000000000000600052601160045260246000fd5b7f4e487b7100000000000000000000000000000000000000000000000000000000600052602260045260246000fd5b7f4e487b7100000000000000000000000000000000000000000000000000000000600052603260045260246000fd5b7f4e487b7100000000000000000000000000000000000000000000000000000000600052604160045260246000fd5b600080fd5b600080fd5b600080fd5b600080fd5b600080fd5b6000601f19601f8301169050919050565b60008160601b9050919050565b7f42616443616368654272696467653a206e6577206f776e65722063616e206e6f60008201527f7420626520746865207a65726f20616464726573730000000000000000000000602082015250565b7f4261644361636865373231206f776e657220697320636f727265637400000000600082015250565b7f4f776e61626c653a206e6577206f776e657220697320746865207a65726f206160008201527f6464726573730000000000000000000000000000000000000000000000000000602082015250565b7f42616443616368654272696467653a2063616e206e6f7420736574206173207060008201527f726f7879207468652061646472657373207a65726f0000000000000000000000602082015250565b7f4261644361636865373231206578697374730000000000000000000000000000600082015250565b7f42616443616368654272696467653a2063616e206e6f74206d696e742061206e60008201527f657720746f6b656e20746f20746865207a65726f206164647265737300000000602082015250565b7f42616443616368654272696467653a2063616e206e6f7420757064617465206660008201527f726f6d20746865207a65726f2061646472657373000000000000000000000000602082015250565b7f42616443616368654272696467653a206e657720746f6b656e20696420646f6560008201527f73206e6f74206578697374730000000000000000000000000000000000000000602082015250565b7f42616443616368654272696467653a2063616e206e6f7420736574206173204260008201527f61644361636865373231207468652061646472657373207a65726f0000000000602082015250565b7f42616443616368654272696467653a2063616e206e6f7420636865636b20626160008201527f6c616e636520666f722061646472657373207a65726f00000000000000000000602082015250565b7f4f776e61626c653a2063616c6c6572206973206e6f7420746865206f776e6572600082015250565b7f4f776e6572206f6620746f6b656e200000000000000000000000000000000000600082015250565b50565b7f42616443616368654272696467653a2054686973206973206e6f7420616e204f60008201527f70656e53656120746f6b656e0000000000000000000000000000000000000000602082015250565b7f2069732000000000000000000000000000000000000000000000000000000000600082015250565b7f42616443616368654272696467653a20546f6b656e206964206f766572666c6f60008201527f7773000000000000000000000000000000000000000000000000000000000000602082015250565b7f42616443616368654272696467653a20746f6b656e20696420646f6573206e6f60008201527f7420657869737473000000000000000000000000000000000000000000000000602082015250565b7f42616443616368654272696467653a20746f6b656e20616c7265616479206d6960008201527f6e74656400000000000000000000000000000000000000000000000000000000602082015250565b6147a98161401a565b81146147b457600080fd5b50565b6147c08161402c565b81146147cb57600080fd5b50565b6147d781614038565b81146147e257600080fd5b50565b6147ee8161409b565b81146147f957600080fd5b50565b614805816140c9565b811461481057600080fd5b5056fea2646970667358221220809c039fc0d99e65be1004ee4415b35e9b0a36d43a7aa70a664d64d30a38b4a664736f6c6343000806003368747470733a2f2f697066732e696f2f697066732f516d536766615137734b385367755534753177545172557a656f4a384b70744157324b67566d6936415a6f6d426a3f66696c656e616d653d322e6a70656768747470733a2f2f697066732e696f2f697066732f516d536766615137734b385367755534753177545172557a656f4a384b70744157324b67566d6936415a6f6d426a3f66696c656e616d653d362e6a70656768747470733a2f2f697066732e696f2f697066732f516d536766615137734b385367755534753177545172557a656f4a384b70744157324b67566d6936415a6f6d426a3f66696c656e616d653d352e6a70656768747470733a2f2f697066732e696f2f697066732f516d536766615137734b385367755534753177545172557a656f4a384b70744157324b67566d6936415a6f6d426a3f66696c656e616d653d372e6a70656768747470733a2f2f697066732e696f2f697066732f516d536766615137734b385367755534753177545172557a656f4a384b70744157324b67566d6936415a6f6d426a3f66696c656e616d653d382e6a70656768747470733a2f2f697066732e696f2f697066732f516d536766615137734b385367755534753177545172557a656f4a384b70744157324b67566d6936415a6f6d426a3f66696c656e616d653d342e6a70656768747470733a2f2f697066732e696f2f697066732f516d536766615137734b385367755534753177545172557a656f4a384b70744157324b67566d6936415a6f6d426a3f66696c656e616d653d392e6a70656768747470733a2f2f697066732e696f2f697066732f516d536766615137734b385367755534753177545172557a656f4a384b70744157324b67566d6936415a6f6d426a3f66696c656e616d653d312e6a70656768747470733a2f2f697066732e696f2f697066732f516d536766615137734b385367755534753177545172557a656f4a384b70744157324b67566d6936415a6f6d426a3f66696c656e616d653d31302e6a70656768747470733a2f2f697066732e696f2f697066732f516d536766615137734b385367755534753177545172557a656f4a384b70744157324b67566d6936415a6f6d426a3f66696c656e616d653d332e6a706567",
  "devdoc": {
    "details": "This contracts bridges an OpenSea ERC1155 into the new Badcache ERC721.      Only owners of BadCache from OpenSea can mint new tokens once they transfer their NFT ownership to the BadcacheBridge.      An ERC721 will be minted once transfer is received",
    "kind": "dev",
    "methods": {
      "addAllowedToken(uint256,string,uint16)": {
        "details": "the owner can add new tokens into the allowed tokens list"
      },
      "checkBalance(address,uint256)": {
        "details": "check balance of an account and an id for the OpenSea ERC1155"
      },
      "constructor": {
        "details": "Initiating the tokens allowed to be received"
      },
      "getAddressesThatTransferedIds()": {
        "details": "get addreses that already sent a token to us"
      },
      "getCustomIds()": {
        "details": "get ids of custom 721 tokens that were minted"
      },
      "getIds()": {
        "details": "get ids of tokens that were transfered"
      },
      "getTransferCount()": {
        "details": "get total transfer count"
      },
      "mintBadCache721(uint256,string,address)": {
        "details": "mint a custom 721 token by the owner"
      },
      "onERC1155Received(address,address,uint256,uint256,bytes)": {
        "details": "Triggered when we receive an ERC1155 from OpenSea and calls {mintBasedOnReceiving} Requirements: - `_sender` cannot be the zero address. - `_tokenId` needs to be part of our allowedIds. - `_tokenId` must not be minted before. Emits a {Transfer} event."
      },
      "onERC721Received(address,address,uint256,bytes)": {
        "details": "Triggered when we receive an ERC1155 from OpenSea and calls {mintBasedOnReceiving} Requirements: - `_sender` cannot be the zero address. - `_tokenId` needs to be part of our allowedIds. - `_tokenId` must not be minted before. Emits a {Transfer} event."
      },
      "owner()": {
        "details": "Returns the address of the current owner."
      },
      "ownerOf1155(uint256)": {
        "details": "check owner of a token on OpenSea token"
      },
      "renounceOwnership()": {
        "details": "Leaves the contract without owner. It will not be possible to call `onlyOwner` functions anymore. Can only be called by the current owner. NOTE: Renouncing ownership will leave the contract without an owner, thereby removing any functionality that is only available to the owner."
      },
      "setBadCache721(address)": {
        "details": "sets proxied token for BadCache721. You need to transfer the ownership of the 721 to the Bridge so the bridge can mint and transfer Requirements: - `_token` must not be address zero"
      },
      "setProxiedToken(address)": {
        "details": "sets proxied token for OpenSea. You need to get it from the mainnet https://etherscan.io/address/0x495f947276749ce646f68ac8c248420045cb7b5e Requirements: - `_token` must not be address zero"
      },
      "supportsInterface(bytes4)": {
        "details": "See {IERC165-supportsInterface}."
      },
      "transferOwnership(address)": {
        "details": "Transfers ownership of the contract to a new account (`newOwner`). Can only be called by the current owner."
      },
      "transferOwnershipOf721(address)": {
        "details": "transfers the ownership of BadCache721 token"
      }
    },
    "version": 1
  },
  "userdoc": {
    "kind": "user",
    "methods": {},
    "version": 1
  },
  "storageLayout": {
    "storage": [
      {
        "astId": 114,
        "contract": "contracts/BadCacheBridgeRinkeby.sol:BadCacheBridgeRinkeby",
        "label": "_status",
        "offset": 0,
        "slot": "0",
        "type": "t_uint256"
      },
      {
        "astId": 7,
        "contract": "contracts/BadCacheBridgeRinkeby.sol:BadCacheBridgeRinkeby",
        "label": "_owner",
        "offset": 0,
        "slot": "1",
        "type": "t_address"
      },
      {
        "astId": 660,
        "contract": "contracts/BadCacheBridgeRinkeby.sol:BadCacheBridgeRinkeby",
        "label": "openseaToken",
        "offset": 0,
        "slot": "2",
        "type": "t_address"
      },
      {
        "astId": 663,
        "contract": "contracts/BadCacheBridgeRinkeby.sol:BadCacheBridgeRinkeby",
        "label": "totalTransfers",
        "offset": 0,
        "slot": "3",
        "type": "t_uint128"
      },
      {
        "astId": 666,
        "contract": "contracts/BadCacheBridgeRinkeby.sol:BadCacheBridgeRinkeby",
        "label": "senders",
        "offset": 0,
        "slot": "4",
        "type": "t_array(t_address)dyn_storage"
      },
      {
        "astId": 672,
        "contract": "contracts/BadCacheBridgeRinkeby.sol:BadCacheBridgeRinkeby",
        "label": "transfers",
        "offset": 0,
        "slot": "5",
        "type": "t_mapping(t_uint128,t_mapping(t_address,t_uint256))"
      },
      {
        "astId": 675,
        "contract": "contracts/BadCacheBridgeRinkeby.sol:BadCacheBridgeRinkeby",
        "label": "badCache721",
        "offset": 0,
        "slot": "6",
        "type": "t_address"
      },
      {
        "astId": 679,
        "contract": "contracts/BadCacheBridgeRinkeby.sol:BadCacheBridgeRinkeby",
        "label": "tokenURIs",
        "offset": 0,
        "slot": "7",
        "type": "t_mapping(t_uint256,t_string_storage)"
      },
      {
        "astId": 682,
        "contract": "contracts/BadCacheBridgeRinkeby.sol:BadCacheBridgeRinkeby",
        "label": "allowedTokens",
        "offset": 0,
        "slot": "8",
        "type": "t_array(t_uint256)dyn_storage"
      },
      {
        "astId": 686,
        "contract": "contracts/BadCacheBridgeRinkeby.sol:BadCacheBridgeRinkeby",
        "label": "oldNewTokenIdPairs",
        "offset": 0,
        "slot": "9",
        "type": "t_mapping(t_uint256,t_uint16)"
      },
      {
        "astId": 690,
        "contract": "contracts/BadCacheBridgeRinkeby.sol:BadCacheBridgeRinkeby",
        "label": "newOldTokenIdPairs",
        "offset": 0,
        "slot": "10",
        "type": "t_mapping(t_uint16,t_uint256)"
      },
      {
        "astId": 693,
        "contract": "contracts/BadCacheBridgeRinkeby.sol:BadCacheBridgeRinkeby",
        "label": "newTokenIds",
        "offset": 0,
        "slot": "11",
        "type": "t_array(t_uint16)dyn_storage"
      },
      {
        "astId": 696,
        "contract": "contracts/BadCacheBridgeRinkeby.sol:BadCacheBridgeRinkeby",
        "label": "custom721Ids",
        "offset": 0,
        "slot": "12",
        "type": "t_array(t_uint256)dyn_storage"
      }
    ],
    "types": {
      "t_address": {
        "encoding": "inplace",
        "label": "address",
        "numberOfBytes": "20"
      },
      "t_array(t_address)dyn_storage": {
        "base": "t_address",
        "encoding": "dynamic_array",
        "label": "address[]",
        "numberOfBytes": "32"
      },
      "t_array(t_uint16)dyn_storage": {
        "base": "t_uint16",
        "encoding": "dynamic_array",
        "label": "uint16[]",
        "numberOfBytes": "32"
      },
      "t_array(t_uint256)dyn_storage": {
        "base": "t_uint256",
        "encoding": "dynamic_array",
        "label": "uint256[]",
        "numberOfBytes": "32"
      },
      "t_mapping(t_address,t_uint256)": {
        "encoding": "mapping",
        "key": "t_address",
        "label": "mapping(address => uint256)",
        "numberOfBytes": "32",
        "value": "t_uint256"
      },
      "t_mapping(t_uint128,t_mapping(t_address,t_uint256))": {
        "encoding": "mapping",
        "key": "t_uint128",
        "label": "mapping(uint128 => mapping(address => uint256))",
        "numberOfBytes": "32",
        "value": "t_mapping(t_address,t_uint256)"
      },
      "t_mapping(t_uint16,t_uint256)": {
        "encoding": "mapping",
        "key": "t_uint16",
        "label": "mapping(uint16 => uint256)",
        "numberOfBytes": "32",
        "value": "t_uint256"
      },
      "t_mapping(t_uint256,t_string_storage)": {
        "encoding": "mapping",
        "key": "t_uint256",
        "label": "mapping(uint256 => string)",
        "numberOfBytes": "32",
        "value": "t_string_storage"
      },
      "t_mapping(t_uint256,t_uint16)": {
        "encoding": "mapping",
        "key": "t_uint256",
        "label": "mapping(uint256 => uint16)",
        "numberOfBytes": "32",
        "value": "t_uint16"
      },
      "t_string_storage": {
        "encoding": "bytes",
        "label": "string",
        "numberOfBytes": "32"
      },
      "t_uint128": {
        "encoding": "inplace",
        "label": "uint128",
        "numberOfBytes": "16"
      },
      "t_uint16": {
        "encoding": "inplace",
        "label": "uint16",
        "numberOfBytes": "2"
      },
      "t_uint256": {
        "encoding": "inplace",
        "label": "uint256",
        "numberOfBytes": "32"
      }
    }
  }
}