{
  "address": "0x5F819da2e4955b1d73c0eE5c749116309306C745",
  "abi": [
    {
      "inputs": [
        {
          "internalType": "string",
          "name": "name_",
          "type": "string"
        },
        {
          "internalType": "string",
          "name": "symbol_",
          "type": "string"
        }
      ],
      "stateMutability": "nonpayable",
      "type": "constructor"
    },
    {
      "anonymous": false,
      "inputs": [
        {
          "indexed": true,
          "internalType": "address",
          "name": "owner",
          "type": "address"
        },
        {
          "indexed": true,
          "internalType": "address",
          "name": "approved",
          "type": "address"
        },
        {
          "indexed": true,
          "internalType": "uint256",
          "name": "tokenId",
          "type": "uint256"
        }
      ],
      "name": "Approval",
      "type": "event"
    },
    {
      "anonymous": false,
      "inputs": [
        {
          "indexed": true,
          "internalType": "address",
          "name": "owner",
          "type": "address"
        },
        {
          "indexed": true,
          "internalType": "address",
          "name": "operator",
          "type": "address"
        },
        {
          "indexed": false,
          "internalType": "bool",
          "name": "approved",
          "type": "bool"
        }
      ],
      "name": "ApprovalForAll",
      "type": "event"
    },
    {
      "anonymous": false,
      "inputs": [
        {
          "indexed": true,
          "internalType": "address",
          "name": "previousOwner",
          "type": "address"
        },
        {
          "indexed": true,
          "internalType": "address",
          "name": "newOwner",
          "type": "address"
        }
      ],
      "name": "OwnershipTransferred",
      "type": "event"
    },
    {
      "anonymous": false,
      "inputs": [
        {
          "indexed": true,
          "internalType": "address",
          "name": "from",
          "type": "address"
        },
        {
          "indexed": true,
          "internalType": "address",
          "name": "to",
          "type": "address"
        },
        {
          "indexed": true,
          "internalType": "uint256",
          "name": "tokenId",
          "type": "uint256"
        }
      ],
      "name": "Transfer",
      "type": "event"
    },
    {
      "inputs": [
        {
          "internalType": "address",
          "name": "to",
          "type": "address"
        },
        {
          "internalType": "uint256",
          "name": "tokenId",
          "type": "uint256"
        }
      ],
      "name": "approve",
      "outputs": [],
      "stateMutability": "nonpayable",
      "type": "function"
    },
    {
      "inputs": [
        {
          "internalType": "address",
          "name": "owner",
          "type": "address"
        }
      ],
      "name": "balanceOf",
      "outputs": [
        {
          "internalType": "uint256",
          "name": "",
          "type": "uint256"
        }
      ],
      "stateMutability": "view",
      "type": "function"
    },
    {
      "inputs": [
        {
          "internalType": "uint256",
          "name": "_tokenId",
          "type": "uint256"
        }
      ],
      "name": "exists",
      "outputs": [
        {
          "internalType": "bool",
          "name": "",
          "type": "bool"
        }
      ],
      "stateMutability": "view",
      "type": "function"
    },
    {
      "inputs": [
        {
          "internalType": "uint256",
          "name": "tokenId",
          "type": "uint256"
        }
      ],
      "name": "getApproved",
      "outputs": [
        {
          "internalType": "address",
          "name": "",
          "type": "address"
        }
      ],
      "stateMutability": "view",
      "type": "function"
    },
    {
      "inputs": [],
      "name": "getMaxId",
      "outputs": [
        {
          "internalType": "uint256",
          "name": "",
          "type": "uint256"
        }
      ],
      "stateMutability": "view",
      "type": "function"
    },
    {
      "inputs": [
        {
          "internalType": "address",
          "name": "owner",
          "type": "address"
        },
        {
          "internalType": "address",
          "name": "operator",
          "type": "address"
        }
      ],
      "name": "isApprovedForAll",
      "outputs": [
        {
          "internalType": "bool",
          "name": "",
          "type": "bool"
        }
      ],
      "stateMutability": "view",
      "type": "function"
    },
    {
      "inputs": [
        {
          "internalType": "address",
          "name": "_owner",
          "type": "address"
        },
        {
          "internalType": "uint256",
          "name": "_tokenId",
          "type": "uint256"
        }
      ],
      "name": "mint",
      "outputs": [],
      "stateMutability": "nonpayable",
      "type": "function"
    },
    {
      "inputs": [],
      "name": "name",
      "outputs": [
        {
          "internalType": "string",
          "name": "",
          "type": "string"
        }
      ],
      "stateMutability": "view",
      "type": "function"
    },
    {
      "inputs": [],
      "name": "owner",
      "outputs": [
        {
          "internalType": "address",
          "name": "",
          "type": "address"
        }
      ],
      "stateMutability": "view",
      "type": "function"
    },
    {
      "inputs": [
        {
          "internalType": "uint256",
          "name": "tokenId",
          "type": "uint256"
        }
      ],
      "name": "ownerOf",
      "outputs": [
        {
          "internalType": "address",
          "name": "",
          "type": "address"
        }
      ],
      "stateMutability": "view",
      "type": "function"
    },
    {
      "inputs": [],
      "name": "renounceOwnership",
      "outputs": [],
      "stateMutability": "nonpayable",
      "type": "function"
    },
    {
      "inputs": [
        {
          "internalType": "address",
          "name": "from",
          "type": "address"
        },
        {
          "internalType": "address",
          "name": "to",
          "type": "address"
        },
        {
          "internalType": "uint256",
          "name": "tokenId",
          "type": "uint256"
        }
      ],
      "name": "safeTransferFrom",
      "outputs": [],
      "stateMutability": "nonpayable",
      "type": "function"
    },
    {
      "inputs": [
        {
          "internalType": "address",
          "name": "from",
          "type": "address"
        },
        {
          "internalType": "address",
          "name": "to",
          "type": "address"
        },
        {
          "internalType": "uint256",
          "name": "tokenId",
          "type": "uint256"
        },
        {
          "internalType": "bytes",
          "name": "_data",
          "type": "bytes"
        }
      ],
      "name": "safeTransferFrom",
      "outputs": [],
      "stateMutability": "nonpayable",
      "type": "function"
    },
    {
      "inputs": [
        {
          "internalType": "address",
          "name": "operator",
          "type": "address"
        },
        {
          "internalType": "bool",
          "name": "approved",
          "type": "bool"
        }
      ],
      "name": "setApprovalForAll",
      "outputs": [],
      "stateMutability": "nonpayable",
      "type": "function"
    },
    {
      "inputs": [
        {
          "internalType": "uint256",
          "name": "_newMaxId",
          "type": "uint256"
        }
      ],
      "name": "setMaxId",
      "outputs": [],
      "stateMutability": "nonpayable",
      "type": "function"
    },
    {
      "inputs": [
        {
          "internalType": "uint256",
          "name": "_tokenId",
          "type": "uint256"
        },
        {
          "internalType": "string",
          "name": "_tokenURI",
          "type": "string"
        }
      ],
      "name": "setTokenUri",
      "outputs": [],
      "stateMutability": "nonpayable",
      "type": "function"
    },
    {
      "inputs": [
        {
          "internalType": "bytes4",
          "name": "interfaceId",
          "type": "bytes4"
        }
      ],
      "name": "supportsInterface",
      "outputs": [
        {
          "internalType": "bool",
          "name": "",
          "type": "bool"
        }
      ],
      "stateMutability": "view",
      "type": "function"
    },
    {
      "inputs": [],
      "name": "symbol",
      "outputs": [
        {
          "internalType": "string",
          "name": "",
          "type": "string"
        }
      ],
      "stateMutability": "view",
      "type": "function"
    },
    {
      "inputs": [
        {
          "internalType": "uint256",
          "name": "tokenId",
          "type": "uint256"
        }
      ],
      "name": "tokenURI",
      "outputs": [
        {
          "internalType": "string",
          "name": "",
          "type": "string"
        }
      ],
      "stateMutability": "view",
      "type": "function"
    },
    {
      "inputs": [
        {
          "internalType": "address",
          "name": "from",
          "type": "address"
        },
        {
          "internalType": "address",
          "name": "to",
          "type": "address"
        },
        {
          "internalType": "uint256",
          "name": "tokenId",
          "type": "uint256"
        }
      ],
      "name": "transferFrom",
      "outputs": [],
      "stateMutability": "nonpayable",
      "type": "function"
    },
    {
      "inputs": [
        {
          "internalType": "address",
          "name": "newOwner",
          "type": "address"
        }
      ],
      "name": "transferOwnership",
      "outputs": [],
      "stateMutability": "nonpayable",
      "type": "function"
    }
  ],
  "transactionHash": "0xae2282295940f58c1caa7fcb31b6dd33824fef68cefb62f65389a2bb6271d710",
  "args": [
    "BadCache",
    "BadCache"
  ],
  "solcInputHash": "3bbc8e7a1d3d738771149ec0f12de8e0",
  "bytecode": "0x608060405260006008553480156200001657600080fd5b50604051620037243803806200372483398181016040528101906200003c919062000296565b818181600090805190602001906200005692919062000168565b5080600190805190602001906200006f92919062000168565b50505062000092620000866200009a60201b60201c565b620000a260201b60201c565b50506200049f565b600033905090565b6000600760009054906101000a900473ffffffffffffffffffffffffffffffffffffffff16905081600760006101000a81548173ffffffffffffffffffffffffffffffffffffffff021916908373ffffffffffffffffffffffffffffffffffffffff1602179055508173ffffffffffffffffffffffffffffffffffffffff168173ffffffffffffffffffffffffffffffffffffffff167f8be0079c531659141344cd1fd0a4f28419497f9722a3daafe3b4186f6b6457e060405160405180910390a35050565b8280546200017690620003b0565b90600052602060002090601f0160209004810192826200019a5760008555620001e6565b82601f10620001b557805160ff1916838001178555620001e6565b82800160010185558215620001e6579182015b82811115620001e5578251825591602001919060010190620001c8565b5b509050620001f59190620001f9565b5090565b5b8082111562000214576000816000905550600101620001fa565b5090565b60006200022f620002298462000344565b6200031b565b9050828152602081018484840111156200024e576200024d6200047f565b5b6200025b8482856200037a565b509392505050565b600082601f8301126200027b576200027a6200047a565b5b81516200028d84826020860162000218565b91505092915050565b60008060408385031215620002b057620002af62000489565b5b600083015167ffffffffffffffff811115620002d157620002d062000484565b5b620002df8582860162000263565b925050602083015167ffffffffffffffff81111562000303576200030262000484565b5b620003118582860162000263565b9150509250929050565b6000620003276200033a565b9050620003358282620003e6565b919050565b6000604051905090565b600067ffffffffffffffff8211156200036257620003616200044b565b5b6200036d826200048e565b9050602081019050919050565b60005b838110156200039a5780820151818401526020810190506200037d565b83811115620003aa576000848401525b50505050565b60006002820490506001821680620003c957607f821691505b60208210811415620003e057620003df6200041c565b5b50919050565b620003f1826200048e565b810181811067ffffffffffffffff821117156200041357620004126200044b565b5b80604052505050565b7f4e487b7100000000000000000000000000000000000000000000000000000000600052602260045260246000fd5b7f4e487b7100000000000000000000000000000000000000000000000000000000600052604160045260246000fd5b600080fd5b600080fd5b600080fd5b600080fd5b6000601f19601f8301169050919050565b61327580620004af6000396000f3fe608060405234801561001057600080fd5b50600436106101375760003560e01c80636352211e116100b8578063a22cb4651161007c578063a22cb46514610338578063b88d4fde14610354578063c87b56dd14610370578063d477a712146103a0578063e985e9c5146103be578063f2fde38b146103ee57610137565b80636352211e1461029257806370a08231146102c2578063715018a6146102f25780638da5cb5b146102fc57806395d89b411461031a57610137565b806323b872dd116100ff57806323b872dd146101f257806340c10f191461020e57806342842e0e1461022a5780634f558e791461024657806357f7789e1461027657610137565b806301ffc9a71461013c57806306fdde031461016c578063081812fc1461018a578063095ea7b3146101ba57806316bd8646146101d6575b600080fd5b61015660048036038101906101519190612179565b61040a565b604051610163919061262d565b60405180910390f35b6101746104ec565b6040516101819190612648565b60405180910390f35b6101a4600480360381019061019f91906121d3565b61057e565b6040516101b191906125c6565b60405180910390f35b6101d460048036038101906101cf9190612139565b610603565b005b6101f060048036038101906101eb91906121d3565b61071b565b005b61020c60048036038101906102079190612023565b6107a1565b005b61022860048036038101906102239190612139565b610801565b005b610244600480360381019061023f9190612023565b61089d565b005b610260600480360381019061025b91906121d3565b6108bd565b60405161026d919061262d565b60405180910390f35b610290600480360381019061028b9190612200565b61094b565b005b6102ac60048036038101906102a791906121d3565b6109d5565b6040516102b991906125c6565b60405180910390f35b6102dc60048036038101906102d79190611fb6565b610a87565b6040516102e991906128aa565b60405180910390f35b6102fa610b3f565b005b610304610bc7565b60405161031191906125c6565b60405180910390f35b610322610bf1565b60405161032f9190612648565b60405180910390f35b610352600480360381019061034d91906120f9565b610c83565b005b61036e60048036038101906103699190612076565b610e04565b005b61038a600480360381019061038591906121d3565b610e66565b6040516103979190612648565b60405180910390f35b6103a8610fb8565b6040516103b591906128aa565b60405180910390f35b6103d860048036038101906103d39190611fe3565b610fc2565b6040516103e5919061262d565b60405180910390f35b61040860048036038101906104039190611fb6565b611056565b005b60007f80ac58cd000000000000000000000000000000000000000000000000000000007bffffffffffffffffffffffffffffffffffffffffffffffffffffffff1916827bffffffffffffffffffffffffffffffffffffffffffffffffffffffff191614806104d557507f5b5e139f000000000000000000000000000000000000000000000000000000007bffffffffffffffffffffffffffffffffffffffffffffffffffffffff1916827bffffffffffffffffffffffffffffffffffffffffffffffffffffffff1916145b806104e557506104e48261114e565b5b9050919050565b6060600080546104fb90612b00565b80601f016020809104026020016040519081016040528092919081815260200182805461052790612b00565b80156105745780601f1061054957610100808354040283529160200191610574565b820191906000526020600020905b81548152906001019060200180831161055757829003601f168201915b5050505050905090565b6000610589826111b8565b6105c8576040517f08c379a00000000000000000000000000000000000000000000000000000000081526004016105bf906127ea565b60405180910390fd5b6004600083815260200190815260200160002060009054906101000a900473ffffffffffffffffffffffffffffffffffffffff169050919050565b600061060e826109d5565b90508073ffffffffffffffffffffffffffffffffffffffff168373ffffffffffffffffffffffffffffffffffffffff16141561067f576040517f08c379a00000000000000000000000000000000000000000000000000000000081526004016106769061286a565b60405180910390fd5b8073ffffffffffffffffffffffffffffffffffffffff1661069e611224565b73ffffffffffffffffffffffffffffffffffffffff1614806106cd57506106cc816106c7611224565b610fc2565b5b61070c576040517f08c379a00000000000000000000000000000000000000000000000000000000081526004016107039061272a565b60405180910390fd5b610716838361122c565b505050565b610723611224565b73ffffffffffffffffffffffffffffffffffffffff16610741610bc7565b73ffffffffffffffffffffffffffffffffffffffff1614610797576040517f08c379a000000000000000000000000000000000000000000000000000000000815260040161078e9061280a565b60405180910390fd5b8060088190555050565b6107b26107ac611224565b826112e5565b6107f1576040517f08c379a00000000000000000000000000000000000000000000000000000000081526004016107e89061288a565b60405180910390fd5b6107fc8383836113c3565b505050565b610809611224565b73ffffffffffffffffffffffffffffffffffffffff16610827610bc7565b73ffffffffffffffffffffffffffffffffffffffff161461087d576040517f08c379a00000000000000000000000000000000000000000000000000000000081526004016108749061280a565b60405180910390fd5b60085481111561088f57806008819055505b610899828261161f565b5050565b6108b883838360405180602001604052806000815250610e04565b505050565b60006108c7611224565b73ffffffffffffffffffffffffffffffffffffffff166108e5610bc7565b73ffffffffffffffffffffffffffffffffffffffff161461093b576040517f08c379a00000000000000000000000000000000000000000000000000000000081526004016109329061280a565b60405180910390fd5b610944826111b8565b9050919050565b610953611224565b73ffffffffffffffffffffffffffffffffffffffff16610971610bc7565b73ffffffffffffffffffffffffffffffffffffffff16146109c7576040517f08c379a00000000000000000000000000000000000000000000000000000000081526004016109be9061280a565b60405180910390fd5b6109d1828261163d565b5050565b6000806002600084815260200190815260200160002060009054906101000a900473ffffffffffffffffffffffffffffffffffffffff169050600073ffffffffffffffffffffffffffffffffffffffff168173ffffffffffffffffffffffffffffffffffffffff161415610a7e576040517f08c379a0000000000000000000000000000000000000000000000000000000008152600401610a759061276a565b60405180910390fd5b80915050919050565b60008073ffffffffffffffffffffffffffffffffffffffff168273ffffffffffffffffffffffffffffffffffffffff161415610af8576040517f08c379a0000000000000000000000000000000000000000000000000000000008152600401610aef9061274a565b60405180910390fd5b600360008373ffffffffffffffffffffffffffffffffffffffff1673ffffffffffffffffffffffffffffffffffffffff168152602001908152602001600020549050919050565b610b47611224565b73ffffffffffffffffffffffffffffffffffffffff16610b65610bc7565b73ffffffffffffffffffffffffffffffffffffffff1614610bbb576040517f08c379a0000000000000000000000000000000000000000000000000000000008152600401610bb29061280a565b60405180910390fd5b610bc560006116b1565b565b6000600760009054906101000a900473ffffffffffffffffffffffffffffffffffffffff16905090565b606060018054610c0090612b00565b80601f0160208091040260200160405190810160405280929190818152602001828054610c2c90612b00565b8015610c795780601f10610c4e57610100808354040283529160200191610c79565b820191906000526020600020905b815481529060010190602001808311610c5c57829003601f168201915b5050505050905090565b610c8b611224565b73ffffffffffffffffffffffffffffffffffffffff168273ffffffffffffffffffffffffffffffffffffffff161415610cf9576040517f08c379a0000000000000000000000000000000000000000000000000000000008152600401610cf0906126ea565b60405180910390fd5b8060056000610d06611224565b73ffffffffffffffffffffffffffffffffffffffff1673ffffffffffffffffffffffffffffffffffffffff16815260200190815260200160002060008473ffffffffffffffffffffffffffffffffffffffff1673ffffffffffffffffffffffffffffffffffffffff16815260200190815260200160002060006101000a81548160ff0219169083151502179055508173ffffffffffffffffffffffffffffffffffffffff16610db3611224565b73ffffffffffffffffffffffffffffffffffffffff167f17307eab39ab6107e8899845ad3d59bd9653f200f220920489ca2b5937696c3183604051610df8919061262d565b60405180910390a35050565b610e15610e0f611224565b836112e5565b610e54576040517f08c379a0000000000000000000000000000000000000000000000000000000008152600401610e4b9061288a565b60405180910390fd5b610e6084848484611777565b50505050565b6060610e71826111b8565b610eb0576040517f08c379a0000000000000000000000000000000000000000000000000000000008152600401610ea7906127ca565b60405180910390fd5b6000600660008481526020019081526020016000208054610ed090612b00565b80601f0160208091040260200160405190810160405280929190818152602001828054610efc90612b00565b8015610f495780601f10610f1e57610100808354040283529160200191610f49565b820191906000526020600020905b815481529060010190602001808311610f2c57829003601f168201915b505050505090506000610f5a6117d3565b9050600081511415610f70578192505050610fb3565b600082511115610fa5578082604051602001610f8d9291906125a2565b60405160208183030381529060405292505050610fb3565b610fae846117ea565b925050505b919050565b6000600854905090565b6000600560008473ffffffffffffffffffffffffffffffffffffffff1673ffffffffffffffffffffffffffffffffffffffff16815260200190815260200160002060008373ffffffffffffffffffffffffffffffffffffffff1673ffffffffffffffffffffffffffffffffffffffff16815260200190815260200160002060009054906101000a900460ff16905092915050565b61105e611224565b73ffffffffffffffffffffffffffffffffffffffff1661107c610bc7565b73ffffffffffffffffffffffffffffffffffffffff16146110d2576040517f08c379a00000000000000000000000000000000000000000000000000000000081526004016110c99061280a565b60405180910390fd5b600073ffffffffffffffffffffffffffffffffffffffff168173ffffffffffffffffffffffffffffffffffffffff161415611142576040517f08c379a00000000000000000000000000000000000000000000000000000000081526004016111399061268a565b60405180910390fd5b61114b816116b1565b50565b60007f01ffc9a7000000000000000000000000000000000000000000000000000000007bffffffffffffffffffffffffffffffffffffffffffffffffffffffff1916827bffffffffffffffffffffffffffffffffffffffffffffffffffffffff1916149050919050565b60008073ffffffffffffffffffffffffffffffffffffffff166002600084815260200190815260200160002060009054906101000a900473ffffffffffffffffffffffffffffffffffffffff1673ffffffffffffffffffffffffffffffffffffffff1614159050919050565b600033905090565b816004600083815260200190815260200160002060006101000a81548173ffffffffffffffffffffffffffffffffffffffff021916908373ffffffffffffffffffffffffffffffffffffffff160217905550808273ffffffffffffffffffffffffffffffffffffffff1661129f836109d5565b73ffffffffffffffffffffffffffffffffffffffff167f8c5be1e5ebec7d5bd14f71427d1e84f3dd0314c0f7b2291e5b200ac8c7c3b92560405160405180910390a45050565b60006112f0826111b8565b61132f576040517f08c379a00000000000000000000000000000000000000000000000000000000081526004016113269061270a565b60405180910390fd5b600061133a836109d5565b90508073ffffffffffffffffffffffffffffffffffffffff168473ffffffffffffffffffffffffffffffffffffffff1614806113a957508373ffffffffffffffffffffffffffffffffffffffff166113918461057e565b73ffffffffffffffffffffffffffffffffffffffff16145b806113ba57506113b98185610fc2565b5b91505092915050565b8273ffffffffffffffffffffffffffffffffffffffff166113e3826109d5565b73ffffffffffffffffffffffffffffffffffffffff1614611439576040517f08c379a00000000000000000000000000000000000000000000000000000000081526004016114309061282a565b60405180910390fd5b600073ffffffffffffffffffffffffffffffffffffffff168273ffffffffffffffffffffffffffffffffffffffff1614156114a9576040517f08c379a00000000000000000000000000000000000000000000000000000000081526004016114a0906126ca565b60405180910390fd5b6114b4838383611891565b6114bf60008261122c565b6001600360008573ffffffffffffffffffffffffffffffffffffffff1673ffffffffffffffffffffffffffffffffffffffff168152602001908152602001600020600082825461150f9190612a16565b925050819055506001600360008473ffffffffffffffffffffffffffffffffffffffff1673ffffffffffffffffffffffffffffffffffffffff1681526020019081526020016000206000828254611566919061298f565b92505081905550816002600083815260200190815260200160002060006101000a81548173ffffffffffffffffffffffffffffffffffffffff021916908373ffffffffffffffffffffffffffffffffffffffff160217905550808273ffffffffffffffffffffffffffffffffffffffff168473ffffffffffffffffffffffffffffffffffffffff167fddf252ad1be2c89b69c2b068fc378daa952ba7f163c4a11628f55a4df523b3ef60405160405180910390a4505050565b611639828260405180602001604052806000815250611896565b5050565b611646826111b8565b611685576040517f08c379a000000000000000000000000000000000000000000000000000000000815260040161167c9061278a565b60405180910390fd5b806006600084815260200190815260200160002090805190602001906116ac929190611dca565b505050565b6000600760009054906101000a900473ffffffffffffffffffffffffffffffffffffffff16905081600760006101000a81548173ffffffffffffffffffffffffffffffffffffffff021916908373ffffffffffffffffffffffffffffffffffffffff1602179055508173ffffffffffffffffffffffffffffffffffffffff168173ffffffffffffffffffffffffffffffffffffffff167f8be0079c531659141344cd1fd0a4f28419497f9722a3daafe3b4186f6b6457e060405160405180910390a35050565b6117828484846113c3565b61178e848484846118f1565b6117cd576040517f08c379a00000000000000000000000000000000000000000000000000000000081526004016117c49061266a565b60405180910390fd5b50505050565b606060405180602001604052806000815250905090565b60606117f5826111b8565b611834576040517f08c379a000000000000000000000000000000000000000000000000000000000815260040161182b9061284a565b60405180910390fd5b600061183e6117d3565b9050600081511161185e5760405180602001604052806000815250611889565b8061186884611a88565b6040516020016118799291906125a2565b6040516020818303038152906040525b915050919050565b505050565b6118a08383611be9565b6118ad60008484846118f1565b6118ec576040517f08c379a00000000000000000000000000000000000000000000000000000000081526004016118e39061266a565b60405180910390fd5b505050565b60006119128473ffffffffffffffffffffffffffffffffffffffff16611db7565b15611a7b578373ffffffffffffffffffffffffffffffffffffffff1663150b7a0261193b611224565b8786866040518563ffffffff1660e01b815260040161195d94939291906125e1565b602060405180830381600087803b15801561197757600080fd5b505af19250505080156119a857506040513d601f19601f820116820180604052508101906119a591906121a6565b60015b611a2b573d80600081146119d8576040519150601f19603f3d011682016040523d82523d6000602084013e6119dd565b606091505b50600081511415611a23576040517f08c379a0000000000000000000000000000000000000000000000000000000008152600401611a1a9061266a565b60405180910390fd5b805181602001fd5b63150b7a0260e01b7bffffffffffffffffffffffffffffffffffffffffffffffffffffffff1916817bffffffffffffffffffffffffffffffffffffffffffffffffffffffff191614915050611a80565b600190505b949350505050565b60606000821415611ad0576040518060400160405280600181526020017f30000000000000000000000000000000000000000000000000000000000000008152509050611be4565b600082905060005b60008214611b02578080611aeb90612b63565b915050600a82611afb91906129e5565b9150611ad8565b60008167ffffffffffffffff811115611b1e57611b1d612c99565b5b6040519080825280601f01601f191660200182016040528015611b505781602001600182028036833780820191505090505b5090505b60008514611bdd57600182611b699190612a16565b9150600a85611b789190612bac565b6030611b84919061298f565b60f81b818381518110611b9a57611b99612c6a565b5b60200101907effffffffffffffffffffffffffffffffffffffffffffffffffffffffffffff1916908160001a905350600a85611bd691906129e5565b9450611b54565b8093505050505b919050565b600073ffffffffffffffffffffffffffffffffffffffff168273ffffffffffffffffffffffffffffffffffffffff161415611c59576040517f08c379a0000000000000000000000000000000000000000000000000000000008152600401611c50906127aa565b60405180910390fd5b611c62816111b8565b15611ca2576040517f08c379a0000000000000000000000000000000000000000000000000000000008152600401611c99906126aa565b60405180910390fd5b611cae60008383611891565b6001600360008473ffffffffffffffffffffffffffffffffffffffff1673ffffffffffffffffffffffffffffffffffffffff1681526020019081526020016000206000828254611cfe919061298f565b92505081905550816002600083815260200190815260200160002060006101000a81548173ffffffffffffffffffffffffffffffffffffffff021916908373ffffffffffffffffffffffffffffffffffffffff160217905550808273ffffffffffffffffffffffffffffffffffffffff16600073ffffffffffffffffffffffffffffffffffffffff167fddf252ad1be2c89b69c2b068fc378daa952ba7f163c4a11628f55a4df523b3ef60405160405180910390a45050565b600080823b905060008111915050919050565b828054611dd690612b00565b90600052602060002090601f016020900481019282611df85760008555611e3f565b82601f10611e1157805160ff1916838001178555611e3f565b82800160010185558215611e3f579182015b82811115611e3e578251825591602001919060010190611e23565b5b509050611e4c9190611e50565b5090565b5b80821115611e69576000816000905550600101611e51565b5090565b6000611e80611e7b846128ea565b6128c5565b905082815260208101848484011115611e9c57611e9b612ccd565b5b611ea7848285612abe565b509392505050565b6000611ec2611ebd8461291b565b6128c5565b905082815260208101848484011115611ede57611edd612ccd565b5b611ee9848285612abe565b509392505050565b600081359050611f00816131e3565b92915050565b600081359050611f15816131fa565b92915050565b600081359050611f2a81613211565b92915050565b600081519050611f3f81613211565b92915050565b600082601f830112611f5a57611f59612cc8565b5b8135611f6a848260208601611e6d565b91505092915050565b600082601f830112611f8857611f87612cc8565b5b8135611f98848260208601611eaf565b91505092915050565b600081359050611fb081613228565b92915050565b600060208284031215611fcc57611fcb612cd7565b5b6000611fda84828501611ef1565b91505092915050565b60008060408385031215611ffa57611ff9612cd7565b5b600061200885828601611ef1565b925050602061201985828601611ef1565b9150509250929050565b60008060006060848603121561203c5761203b612cd7565b5b600061204a86828701611ef1565b935050602061205b86828701611ef1565b925050604061206c86828701611fa1565b9150509250925092565b600080600080608085870312156120905761208f612cd7565b5b600061209e87828801611ef1565b94505060206120af87828801611ef1565b93505060406120c087828801611fa1565b925050606085013567ffffffffffffffff8111156120e1576120e0612cd2565b5b6120ed87828801611f45565b91505092959194509250565b600080604083850312156121105761210f612cd7565b5b600061211e85828601611ef1565b925050602061212f85828601611f06565b9150509250929050565b600080604083850312156121505761214f612cd7565b5b600061215e85828601611ef1565b925050602061216f85828601611fa1565b9150509250929050565b60006020828403121561218f5761218e612cd7565b5b600061219d84828501611f1b565b91505092915050565b6000602082840312156121bc576121bb612cd7565b5b60006121ca84828501611f30565b91505092915050565b6000602082840312156121e9576121e8612cd7565b5b60006121f784828501611fa1565b91505092915050565b6000806040838503121561221757612216612cd7565b5b600061222585828601611fa1565b925050602083013567ffffffffffffffff81111561224657612245612cd2565b5b61225285828601611f73565b9150509250929050565b61226581612a4a565b82525050565b61227481612a5c565b82525050565b60006122858261294c565b61228f8185612962565b935061229f818560208601612acd565b6122a881612cdc565b840191505092915050565b60006122be82612957565b6122c88185612973565b93506122d8818560208601612acd565b6122e181612cdc565b840191505092915050565b60006122f782612957565b6123018185612984565b9350612311818560208601612acd565b80840191505092915050565b600061232a603283612973565b915061233582612ced565b604082019050919050565b600061234d602683612973565b915061235882612d3c565b604082019050919050565b6000612370601c83612973565b915061237b82612d8b565b602082019050919050565b6000612393602483612973565b915061239e82612db4565b604082019050919050565b60006123b6601983612973565b91506123c182612e03565b602082019050919050565b60006123d9602c83612973565b91506123e482612e2c565b604082019050919050565b60006123fc603883612973565b915061240782612e7b565b604082019050919050565b600061241f602a83612973565b915061242a82612eca565b604082019050919050565b6000612442602983612973565b915061244d82612f19565b604082019050919050565b6000612465602e83612973565b915061247082612f68565b604082019050919050565b6000612488602083612973565b915061249382612fb7565b602082019050919050565b60006124ab603183612973565b91506124b682612fe0565b604082019050919050565b60006124ce602c83612973565b91506124d98261302f565b604082019050919050565b60006124f1602083612973565b91506124fc8261307e565b602082019050919050565b6000612514602983612973565b915061251f826130a7565b604082019050919050565b6000612537602f83612973565b9150612542826130f6565b604082019050919050565b600061255a602183612973565b915061256582613145565b604082019050919050565b600061257d603183612973565b915061258882613194565b604082019050919050565b61259c81612ab4565b82525050565b60006125ae82856122ec565b91506125ba82846122ec565b91508190509392505050565b60006020820190506125db600083018461225c565b92915050565b60006080820190506125f6600083018761225c565b612603602083018661225c565b6126106040830185612593565b8181036060830152612622818461227a565b905095945050505050565b6000602082019050612642600083018461226b565b92915050565b6000602082019050818103600083015261266281846122b3565b905092915050565b600060208201905081810360008301526126838161231d565b9050919050565b600060208201905081810360008301526126a381612340565b9050919050565b600060208201905081810360008301526126c381612363565b9050919050565b600060208201905081810360008301526126e381612386565b9050919050565b60006020820190508181036000830152612703816123a9565b9050919050565b60006020820190508181036000830152612723816123cc565b9050919050565b60006020820190508181036000830152612743816123ef565b9050919050565b6000602082019050818103600083015261276381612412565b9050919050565b6000602082019050818103600083015261278381612435565b9050919050565b600060208201905081810360008301526127a381612458565b9050919050565b600060208201905081810360008301526127c38161247b565b9050919050565b600060208201905081810360008301526127e38161249e565b9050919050565b60006020820190508181036000830152612803816124c1565b9050919050565b60006020820190508181036000830152612823816124e4565b9050919050565b6000602082019050818103600083015261284381612507565b9050919050565b600060208201905081810360008301526128638161252a565b9050919050565b600060208201905081810360008301526128838161254d565b9050919050565b600060208201905081810360008301526128a381612570565b9050919050565b60006020820190506128bf6000830184612593565b92915050565b60006128cf6128e0565b90506128db8282612b32565b919050565b6000604051905090565b600067ffffffffffffffff82111561290557612904612c99565b5b61290e82612cdc565b9050602081019050919050565b600067ffffffffffffffff82111561293657612935612c99565b5b61293f82612cdc565b9050602081019050919050565b600081519050919050565b600081519050919050565b600082825260208201905092915050565b600082825260208201905092915050565b600081905092915050565b600061299a82612ab4565b91506129a583612ab4565b9250827fffffffffffffffffffffffffffffffffffffffffffffffffffffffffffffffff038211156129da576129d9612bdd565b5b828201905092915050565b60006129f082612ab4565b91506129fb83612ab4565b925082612a0b57612a0a612c0c565b5b828204905092915050565b6000612a2182612ab4565b9150612a2c83612ab4565b925082821015612a3f57612a3e612bdd565b5b828203905092915050565b6000612a5582612a94565b9050919050565b60008115159050919050565b60007fffffffff0000000000000000000000000000000000000000000000000000000082169050919050565b600073ffffffffffffffffffffffffffffffffffffffff82169050919050565b6000819050919050565b82818337600083830152505050565b60005b83811015612aeb578082015181840152602081019050612ad0565b83811115612afa576000848401525b50505050565b60006002820490506001821680612b1857607f821691505b60208210811415612b2c57612b2b612c3b565b5b50919050565b612b3b82612cdc565b810181811067ffffffffffffffff82111715612b5a57612b59612c99565b5b80604052505050565b6000612b6e82612ab4565b91507fffffffffffffffffffffffffffffffffffffffffffffffffffffffffffffffff821415612ba157612ba0612bdd565b5b600182019050919050565b6000612bb782612ab4565b9150612bc283612ab4565b925082612bd257612bd1612c0c565b5b828206905092915050565b7f4e487b7100000000000000000000000000000000000000000000000000000000600052601160045260246000fd5b7f4e487b7100000000000000000000000000000000000000000000000000000000600052601260045260246000fd5b7f4e487b7100000000000000000000000000000000000000000000000000000000600052602260045260246000fd5b7f4e487b7100000000000000000000000000000000000000000000000000000000600052603260045260246000fd5b7f4e487b7100000000000000000000000000000000000000000000000000000000600052604160045260246000fd5b600080fd5b600080fd5b600080fd5b600080fd5b6000601f19601f8301169050919050565b7f4552433732313a207472616e7366657220746f206e6f6e20455243373231526560008201527f63656976657220696d706c656d656e7465720000000000000000000000000000602082015250565b7f4f776e61626c653a206e6577206f776e657220697320746865207a65726f206160008201527f6464726573730000000000000000000000000000000000000000000000000000602082015250565b7f4552433732313a20746f6b656e20616c7265616479206d696e74656400000000600082015250565b7f4552433732313a207472616e7366657220746f20746865207a65726f2061646460008201527f7265737300000000000000000000000000000000000000000000000000000000602082015250565b7f4552433732313a20617070726f766520746f2063616c6c657200000000000000600082015250565b7f4552433732313a206f70657261746f7220717565727920666f72206e6f6e657860008201527f697374656e7420746f6b656e0000000000000000000000000000000000000000602082015250565b7f4552433732313a20617070726f76652063616c6c6572206973206e6f74206f7760008201527f6e6572206e6f7220617070726f76656420666f7220616c6c0000000000000000602082015250565b7f4552433732313a2062616c616e636520717565727920666f7220746865207a6560008201527f726f206164647265737300000000000000000000000000000000000000000000602082015250565b7f4552433732313a206f776e657220717565727920666f72206e6f6e657869737460008201527f656e7420746f6b656e0000000000000000000000000000000000000000000000602082015250565b7f45524337323155524953746f726167653a2055524920736574206f66206e6f6e60008201527f6578697374656e7420746f6b656e000000000000000000000000000000000000602082015250565b7f4552433732313a206d696e7420746f20746865207a65726f2061646472657373600082015250565b7f45524337323155524953746f726167653a2055524920717565727920666f722060008201527f6e6f6e6578697374656e7420746f6b656e000000000000000000000000000000602082015250565b7f4552433732313a20617070726f76656420717565727920666f72206e6f6e657860008201527f697374656e7420746f6b656e0000000000000000000000000000000000000000602082015250565b7f4f776e61626c653a2063616c6c6572206973206e6f7420746865206f776e6572600082015250565b7f4552433732313a207472616e73666572206f6620746f6b656e2074686174206960008201527f73206e6f74206f776e0000000000000000000000000000000000000000000000602082015250565b7f4552433732314d657461646174613a2055524920717565727920666f72206e6f60008201527f6e6578697374656e7420746f6b656e0000000000000000000000000000000000602082015250565b7f4552433732313a20617070726f76616c20746f2063757272656e74206f776e6560008201527f7200000000000000000000000000000000000000000000000000000000000000602082015250565b7f4552433732313a207472616e736665722063616c6c6572206973206e6f74206f60008201527f776e6572206e6f7220617070726f766564000000000000000000000000000000602082015250565b6131ec81612a4a565b81146131f757600080fd5b50565b61320381612a5c565b811461320e57600080fd5b50565b61321a81612a68565b811461322557600080fd5b50565b61323181612ab4565b811461323c57600080fd5b5056fea2646970667358221220f8520c98a2d23756f27d385e5f6166f77eebeee252e9045765aad1d41ca6e33964736f6c63430008060033",
  "devdoc": {
    "kind": "dev",
    "methods": {
      "approve(address,uint256)": {
        "details": "See {IERC721-approve}."
      },
      "balanceOf(address)": {
        "details": "See {IERC721-balanceOf}."
      },
      "getApproved(uint256)": {
        "details": "See {IERC721-getApproved}."
      },
      "isApprovedForAll(address,address)": {
        "details": "See {IERC721-isApprovedForAll}."
      },
      "name()": {
        "details": "See {IERC721Metadata-name}."
      },
      "owner()": {
        "details": "Returns the address of the current owner."
      },
      "ownerOf(uint256)": {
        "details": "See {IERC721-ownerOf}."
      },
      "renounceOwnership()": {
        "details": "Leaves the contract without owner. It will not be possible to call `onlyOwner` functions anymore. Can only be called by the current owner. NOTE: Renouncing ownership will leave the contract without an owner, thereby removing any functionality that is only available to the owner."
      },
      "safeTransferFrom(address,address,uint256)": {
        "details": "See {IERC721-safeTransferFrom}."
      },
      "safeTransferFrom(address,address,uint256,bytes)": {
        "details": "See {IERC721-safeTransferFrom}."
      },
      "setApprovalForAll(address,bool)": {
        "details": "See {IERC721-setApprovalForAll}."
      },
      "supportsInterface(bytes4)": {
        "details": "See {IERC165-supportsInterface}."
      },
      "symbol()": {
        "details": "See {IERC721Metadata-symbol}."
      },
      "tokenURI(uint256)": {
        "details": "See {IERC721Metadata-tokenURI}."
      },
      "transferFrom(address,address,uint256)": {
        "details": "See {IERC721-transferFrom}."
      },
      "transferOwnership(address)": {
        "details": "Transfers ownership of the contract to a new account (`newOwner`). Can only be called by the current owner."
      }
    },
    "version": 1
  },
  "userdoc": {
    "kind": "user",
    "methods": {},
    "version": 1
  },
  "storageLayout": {
    "storage": [
      {
        "astId": 129,
        "contract": "contracts/core/BadCache.sol:BadCache",
        "label": "_name",
        "offset": 0,
        "slot": "0",
        "type": "t_string_storage"
      },
      {
        "astId": 131,
        "contract": "contracts/core/BadCache.sol:BadCache",
        "label": "_symbol",
        "offset": 0,
        "slot": "1",
        "type": "t_string_storage"
      },
      {
        "astId": 135,
        "contract": "contracts/core/BadCache.sol:BadCache",
        "label": "_owners",
        "offset": 0,
        "slot": "2",
        "type": "t_mapping(t_uint256,t_address)"
      },
      {
        "astId": 139,
        "contract": "contracts/core/BadCache.sol:BadCache",
        "label": "_balances",
        "offset": 0,
        "slot": "3",
        "type": "t_mapping(t_address,t_uint256)"
      },
      {
        "astId": 143,
        "contract": "contracts/core/BadCache.sol:BadCache",
        "label": "_tokenApprovals",
        "offset": 0,
        "slot": "4",
        "type": "t_mapping(t_uint256,t_address)"
      },
      {
        "astId": 149,
        "contract": "contracts/core/BadCache.sol:BadCache",
        "label": "_operatorApprovals",
        "offset": 0,
        "slot": "5",
        "type": "t_mapping(t_address,t_mapping(t_address,t_bool))"
      },
      {
        "astId": 1068,
        "contract": "contracts/core/BadCache.sol:BadCache",
        "label": "_tokenURIs",
        "offset": 0,
        "slot": "6",
        "type": "t_mapping(t_uint256,t_string_storage)"
      },
      {
        "astId": 7,
        "contract": "contracts/core/BadCache.sol:BadCache",
        "label": "_owner",
        "offset": 0,
        "slot": "7",
        "type": "t_address"
      },
      {
        "astId": 1777,
        "contract": "contracts/core/BadCache.sol:BadCache",
        "label": "maxId",
        "offset": 0,
        "slot": "8",
        "type": "t_uint256"
      }
    ],
    "types": {
      "t_address": {
        "encoding": "inplace",
        "label": "address",
        "numberOfBytes": "20"
      },
      "t_bool": {
        "encoding": "inplace",
        "label": "bool",
        "numberOfBytes": "1"
      },
      "t_mapping(t_address,t_bool)": {
        "encoding": "mapping",
        "key": "t_address",
        "label": "mapping(address => bool)",
        "numberOfBytes": "32",
        "value": "t_bool"
      },
      "t_mapping(t_address,t_mapping(t_address,t_bool))": {
        "encoding": "mapping",
        "key": "t_address",
        "label": "mapping(address => mapping(address => bool))",
        "numberOfBytes": "32",
        "value": "t_mapping(t_address,t_bool)"
      },
      "t_mapping(t_address,t_uint256)": {
        "encoding": "mapping",
        "key": "t_address",
        "label": "mapping(address => uint256)",
        "numberOfBytes": "32",
        "value": "t_uint256"
      },
      "t_mapping(t_uint256,t_address)": {
        "encoding": "mapping",
        "key": "t_uint256",
        "label": "mapping(uint256 => address)",
        "numberOfBytes": "32",
        "value": "t_address"
      },
      "t_mapping(t_uint256,t_string_storage)": {
        "encoding": "mapping",
        "key": "t_uint256",
        "label": "mapping(uint256 => string)",
        "numberOfBytes": "32",
        "value": "t_string_storage"
      },
      "t_string_storage": {
        "encoding": "bytes",
        "label": "string",
        "numberOfBytes": "32"
      },
      "t_uint256": {
        "encoding": "inplace",
        "label": "uint256",
        "numberOfBytes": "32"
      }
    }
  }
}