{
  "address": "0xCaca38C3efcB0D741A44d832d4eA026FfE36222B",
  "abi": [
    {
      "inputs": [],
      "stateMutability": "nonpayable",
      "type": "constructor"
    },
    {
      "anonymous": false,
      "inputs": [
        {
          "indexed": true,
          "internalType": "address",
          "name": "previousOwner",
          "type": "address"
        },
        {
          "indexed": true,
          "internalType": "address",
          "name": "newOwner",
          "type": "address"
        }
      ],
      "name": "OwnershipTransferred",
      "type": "event"
    },
    {
      "stateMutability": "payable",
      "type": "fallback"
    },
    {
      "inputs": [
        {
          "internalType": "address",
          "name": "account",
          "type": "address"
        },
        {
          "internalType": "uint256",
          "name": "id",
          "type": "uint256"
        }
      ],
      "name": "checkBalance",
      "outputs": [
        {
          "internalType": "uint256",
          "name": "count",
          "type": "uint256"
        }
      ],
      "stateMutability": "view",
      "type": "function"
    },
    {
      "inputs": [],
      "name": "getAddressesThatTransferedIds",
      "outputs": [
        {
          "internalType": "address[]",
          "name": "",
          "type": "address[]"
        }
      ],
      "stateMutability": "view",
      "type": "function"
    },
    {
      "inputs": [],
      "name": "getIds",
      "outputs": [
        {
          "internalType": "uint256[]",
          "name": "",
          "type": "uint256[]"
        }
      ],
      "stateMutability": "view",
      "type": "function"
    },
    {
      "inputs": [],
      "name": "getTransferCount",
      "outputs": [
        {
          "internalType": "uint128",
          "name": "",
          "type": "uint128"
        }
      ],
      "stateMutability": "view",
      "type": "function"
    },
    {
      "inputs": [
        {
          "internalType": "address",
          "name": "",
          "type": "address"
        },
        {
          "internalType": "address",
          "name": "",
          "type": "address"
        },
        {
          "internalType": "uint256[]",
          "name": "",
          "type": "uint256[]"
        },
        {
          "internalType": "uint256[]",
          "name": "",
          "type": "uint256[]"
        },
        {
          "internalType": "bytes",
          "name": "",
          "type": "bytes"
        }
      ],
      "name": "onERC1155BatchReceived",
      "outputs": [
        {
          "internalType": "bytes4",
          "name": "",
          "type": "bytes4"
        }
      ],
      "stateMutability": "nonpayable",
      "type": "function"
    },
    {
      "inputs": [
        {
          "internalType": "address",
          "name": "sender",
          "type": "address"
        },
        {
          "internalType": "address",
          "name": "receiver",
          "type": "address"
        },
        {
          "internalType": "uint256",
          "name": "id",
          "type": "uint256"
        },
        {
          "internalType": "uint256",
          "name": "amount",
          "type": "uint256"
        },
        {
          "internalType": "bytes",
          "name": "data",
          "type": "bytes"
        }
      ],
      "name": "onERC1155Received",
      "outputs": [
        {
          "internalType": "bytes4",
          "name": "",
          "type": "bytes4"
        }
      ],
      "stateMutability": "nonpayable",
      "type": "function"
    },
    {
      "inputs": [],
      "name": "openseaToken",
      "outputs": [
        {
          "internalType": "address",
          "name": "",
          "type": "address"
        }
      ],
      "stateMutability": "view",
      "type": "function"
    },
    {
      "inputs": [],
      "name": "owner",
      "outputs": [
        {
          "internalType": "address",
          "name": "",
          "type": "address"
        }
      ],
      "stateMutability": "view",
      "type": "function"
    },
    {
      "inputs": [
        {
          "internalType": "uint256",
          "name": "id",
          "type": "uint256"
        }
      ],
      "name": "ownerOf",
      "outputs": [
        {
          "internalType": "bool",
          "name": "",
          "type": "bool"
        }
      ],
      "stateMutability": "view",
      "type": "function"
    },
    {
      "inputs": [],
      "name": "renounceOwnership",
      "outputs": [],
      "stateMutability": "nonpayable",
      "type": "function"
    },
    {
      "inputs": [],
      "name": "resetState",
      "outputs": [],
      "stateMutability": "nonpayable",
      "type": "function"
    },
    {
      "inputs": [
        {
          "internalType": "address",
          "name": "_token",
          "type": "address"
        }
      ],
      "name": "setProxiedToken",
      "outputs": [],
      "stateMutability": "nonpayable",
      "type": "function"
    },
    {
      "inputs": [
        {
          "internalType": "bytes4",
          "name": "interfaceId",
          "type": "bytes4"
        }
      ],
      "name": "supportsInterface",
      "outputs": [
        {
          "internalType": "bool",
          "name": "",
          "type": "bool"
        }
      ],
      "stateMutability": "view",
      "type": "function"
    },
    {
      "inputs": [
        {
          "internalType": "address",
          "name": "newOwner",
          "type": "address"
        }
      ],
      "name": "transferOwnership",
      "outputs": [],
      "stateMutability": "nonpayable",
      "type": "function"
    },
    {
      "inputs": [
        {
          "internalType": "address",
          "name": "_sender",
          "type": "address"
        },
        {
          "internalType": "uint256",
          "name": "_tokenId",
          "type": "uint256"
        }
      ],
      "name": "updateTransfersPublic",
      "outputs": [
        {
          "internalType": "uint256",
          "name": "count",
          "type": "uint256"
        }
      ],
      "stateMutability": "nonpayable",
      "type": "function"
    },
    {
      "stateMutability": "payable",
      "type": "receive"
    }
  ],
  "transactionHash": "0x7f4f22aa7ea726661596668b276af1878ee3fae7b00c76707d165730f31c2ef5",
  "args": [],
  "solcInputHash": "c1e7f5e3388f1bf10432ea897e949b07",
  "bytecode": "0x608060405273495f947276749ce646f68ac8c248420045cb7b5e600360006101000a81548173ffffffffffffffffffffffffffffffffffffffff021916908373ffffffffffffffffffffffffffffffffffffffff1602179055506000600460006101000a8154816fffffffffffffffffffffffffffffffff02191690836fffffffffffffffffffffffffffffffff160217905550348015620000a057600080fd5b506001600081905550620000c9620000bd6200015e60201b60201c565b6200016660201b60201c565b620000d96200015e60201b60201c565b73ffffffffffffffffffffffffffffffffffffffff16620000ff6200022c60201b60201c565b73ffffffffffffffffffffffffffffffffffffffff161462000158576040517f08c379a00000000000000000000000000000000000000000000000000000000081526004016200014f906200027d565b60405180910390fd5b620002d9565b600033905090565b6000600160009054906101000a900473ffffffffffffffffffffffffffffffffffffffff16905081600160006101000a81548173ffffffffffffffffffffffffffffffffffffffff021916908373ffffffffffffffffffffffffffffffffffffffff1602179055508173ffffffffffffffffffffffffffffffffffffffff168173ffffffffffffffffffffffffffffffffffffffff167f8be0079c531659141344cd1fd0a4f28419497f9722a3daafe3b4186f6b6457e060405160405180910390a35050565b6000600160009054906101000a900473ffffffffffffffffffffffffffffffffffffffff16905090565b6000620002656020836200029f565b91506200027282620002b0565b602082019050919050565b60006020820190508181036000830152620002988162000256565b9050919050565b600082825260208201905092915050565b7f4f776e61626c653a2063616c6c6572206973206e6f7420746865206f776e6572600082015250565b6121b880620002e96000396000f3fe6080604052600436106100ec5760003560e01c8063715018a61161008a578063bc197c8111610059578063bc197c8114610310578063f23a6e611461034d578063f2fde38b1461038a578063f9e19fa5146103b3576100fb565b8063715018a61461026657806385159c0b1461027d5780638da5cb5b146102ba578063a6640020146102e5576100fb565b806335b9dec9116100c657806335b9dec9146101985780634d7b9bd5146101c35780636352211e146102005780636df6149a1461023d576100fb565b806301ffc9a714610105578063040e55f5146101425780632b1056631461016d576100fb565b366100fb576100f96103ca565b005b6101036103ca565b005b34801561011157600080fd5b5061012c6004803603810190610127919061199a565b61042c565b6040516101399190611cb6565b60405180910390f35b34801561014e57600080fd5b506101576104a6565b6040516101649190611d70565b60405180910390f35b34801561017957600080fd5b506101826104cc565b60405161018f9190611c94565b60405180910390f35b3480156101a457600080fd5b506101ad6107cf565b6040516101ba9190611c72565b60405180910390f35b3480156101cf57600080fd5b506101ea60048036038101906101e5919061195a565b61085d565b6040516101f79190611d8b565b60405180910390f35b34801561020c57600080fd5b50610227600480360381019061022291906119c7565b610951565b6040516102349190611cb6565b60405180910390f35b34801561024957600080fd5b50610264600480360381019061025f91906117c7565b610a48565b005b34801561027257600080fd5b5061027b610b4f565b005b34801561028957600080fd5b506102a4600480360381019061029f919061195a565b610bd7565b6040516102b19190611d8b565b60405180910390f35b3480156102c657600080fd5b506102cf610c7f565b6040516102dc9190611c2e565b60405180910390f35b3480156102f157600080fd5b506102fa610ca9565b6040516103079190611c2e565b60405180910390f35b34801561031c57600080fd5b50610337600480360381019061033291906117f4565b610ccf565b6040516103449190611cd1565b60405180910390f35b34801561035957600080fd5b50610374600480360381019061036f91906118c3565b610ce4565b6040516103819190611cd1565b60405180910390f35b34801561039657600080fd5b506103b160048036038101906103ac91906117c7565b610db0565b005b3480156103bf57600080fd5b506103c8610ea8565b005b6104186000368080601f016020809104026020016040519081016040528093929190818152602001838380828437600081840152601f19601f8201169050808301925050505050505061107e565b61042134611117565b61042a326111b0565b565b60007f4e2312e0000000000000000000000000000000000000000000000000000000007bffffffffffffffffffffffffffffffffffffffffffffffffffffffff1916827bffffffffffffffffffffffffffffffffffffffffffffffffffffffff1916148061049f575061049e82611249565b5b9050919050565b6000600460009054906101000a90046fffffffffffffffffffffffffffffffff16905090565b60606000600460009054906101000a90046fffffffffffffffffffffffffffffffff166fffffffffffffffffffffffffffffffff1667ffffffffffffffff81111561051a5761051961206c565b5b6040519080825280602002602001820160405280156105485781602001602082028036833780820191505090505b50905060005b600460009054906101000a90046fffffffffffffffffffffffffffffffff166fffffffffffffffffffffffffffffffff16816fffffffffffffffffffffffffffffffff1610156107c75761066560066000836fffffffffffffffffffffffffffffffff166fffffffffffffffffffffffffffffffff16815260200190815260200160002060006005846fffffffffffffffffffffffffffffffff16815481106105fa576105f961203d565b5b9060005260206000200160009054906101000a900473ffffffffffffffffffffffffffffffffffffffff1673ffffffffffffffffffffffffffffffffffffffff1673ffffffffffffffffffffffffffffffffffffffff16815260200190815260200160002054611117565b6106be6005826fffffffffffffffffffffffffffffffff168154811061068e5761068d61203d565b5b9060005260206000200160009054906101000a900473ffffffffffffffffffffffffffffffffffffffff166111b0565b60066000826fffffffffffffffffffffffffffffffff166fffffffffffffffffffffffffffffffff16815260200190815260200160002060006005836fffffffffffffffffffffffffffffffff168154811061071d5761071c61203d565b5b9060005260206000200160009054906101000a900473ffffffffffffffffffffffffffffffffffffffff1673ffffffffffffffffffffffffffffffffffffffff1673ffffffffffffffffffffffffffffffffffffffff1681526020019081526020016000205482826fffffffffffffffffffffffffffffffff16815181106107a8576107a761203d565b5b60200260200101818152505080806107bf90611fd5565b91505061054e565b508091505090565b6060600580548060200260200160405190810160405280929190818152602001828054801561085357602002820191906000526020600020905b8160009054906101000a900473ffffffffffffffffffffffffffffffffffffffff1673ffffffffffffffffffffffffffffffffffffffff1681526020019060010190808311610809575b5050505050905090565b600061089d6040518060400160405280600d81526020017f436865636b2062616c616e6365000000000000000000000000000000000000008152506112b3565b600360009054906101000a900473ffffffffffffffffffffffffffffffffffffffff1673ffffffffffffffffffffffffffffffffffffffff1662fdd58e84846040518363ffffffff1660e01b81526004016108f9929190611c49565b60206040518083038186803b15801561091157600080fd5b505afa158015610925573d6000803e3d6000fd5b505050506040513d601f19601f8201168201806040525081019061094991906119f4565b905092915050565b60006109916040518060400160405280600781526020017f6f776e65724f66000000000000000000000000000000000000000000000000008152506112b3565b6000600360009054906101000a900473ffffffffffffffffffffffffffffffffffffffff1673ffffffffffffffffffffffffffffffffffffffff1662fdd58e33856040518363ffffffff1660e01b81526004016109ef929190611c49565b60206040518083038186803b158015610a0757600080fd5b505afa158015610a1b573d6000803e3d6000fd5b505050506040513d601f19601f82011682018060405250810190610a3f91906119f4565b14159050919050565b610a5061134c565b73ffffffffffffffffffffffffffffffffffffffff16610a6e610c7f565b73ffffffffffffffffffffffffffffffffffffffff1614610ac4576040517f08c379a0000000000000000000000000000000000000000000000000000000008152600401610abb90611d50565b60405180910390fd5b610b026040518060400160405280600f81526020017f73657450726f78696564546f6b656e00000000000000000000000000000000008152506112b3565b610b0b816111b0565b80600360006101000a81548173ffffffffffffffffffffffffffffffffffffffff021916908373ffffffffffffffffffffffffffffffffffffffff16021790555050565b610b5761134c565b73ffffffffffffffffffffffffffffffffffffffff16610b75610c7f565b73ffffffffffffffffffffffffffffffffffffffff1614610bcb576040517f08c379a0000000000000000000000000000000000000000000000000000000008152600401610bc290611d50565b60405180910390fd5b610bd56000611354565b565b6000610be161134c565b73ffffffffffffffffffffffffffffffffffffffff16610bff610c7f565b73ffffffffffffffffffffffffffffffffffffffff1614610c55576040517f08c379a0000000000000000000000000000000000000000000000000000000008152600401610c4c90611d50565b60405180910390fd5b6000610c61848461141a565b9050806fffffffffffffffffffffffffffffffff1691505092915050565b6000600160009054906101000a900473ffffffffffffffffffffffffffffffffffffffff16905090565b600360009054906101000a900473ffffffffffffffffffffffffffffffffffffffff1681565b600063bc197c8160e01b905095945050505050565b6000610d246040518060400160405280600e81526020017f526563656976656420746f6b656e0000000000000000000000000000000000008152506112b3565b610d2d84611117565b610d3683611117565b610d3f866111b0565b610d8d6000368080601f016020809104026020016040519081016040528093929190818152602001838380828437600081840152601f19601f8201169050808301925050505050505061107e565b610d97868561141a565b50610da586868686866115e9565b905095945050505050565b610db861134c565b73ffffffffffffffffffffffffffffffffffffffff16610dd6610c7f565b73ffffffffffffffffffffffffffffffffffffffff1614610e2c576040517f08c379a0000000000000000000000000000000000000000000000000000000008152600401610e2390611d50565b60405180910390fd5b600073ffffffffffffffffffffffffffffffffffffffff168173ffffffffffffffffffffffffffffffffffffffff161415610e9c576040517f08c379a0000000000000000000000000000000000000000000000000000000008152600401610e9390611d30565b60405180910390fd5b610ea581611354565b50565b610eb061134c565b73ffffffffffffffffffffffffffffffffffffffff16610ece610c7f565b73ffffffffffffffffffffffffffffffffffffffff1614610f24576040517f08c379a0000000000000000000000000000000000000000000000000000000008152600401610f1b90611d50565b60405180910390fd5b60005b600460009054906101000a90046fffffffffffffffffffffffffffffffff166fffffffffffffffffffffffffffffffff16816fffffffffffffffffffffffffffffffff16101561104c5760066000826fffffffffffffffffffffffffffffffff166fffffffffffffffffffffffffffffffff16815260200190815260200160002060006005836fffffffffffffffffffffffffffffffff1681548110610fd057610fcf61203d565b5b9060005260206000200160009054906101000a900473ffffffffffffffffffffffffffffffffffffffff1673ffffffffffffffffffffffffffffffffffffffff1673ffffffffffffffffffffffffffffffffffffffff16815260200190815260200160002060009055808061104490611fd5565b915050610f27565b506005600061105b9190611627565b600460006101000a8154906fffffffffffffffffffffffffffffffff0219169055565b611114816040516024016110929190611cec565b6040516020818303038152906040527f0be77f56000000000000000000000000000000000000000000000000000000007bffffffffffffffffffffffffffffffffffffffffffffffffffffffff19166020820180517bffffffffffffffffffffffffffffffffffffffffffffffffffffffff83818316178352505050506115fe565b50565b6111ad8160405160240161112b9190611d8b565b6040516020818303038152906040527ff5b1bba9000000000000000000000000000000000000000000000000000000007bffffffffffffffffffffffffffffffffffffffffffffffffffffffff19166020820180517bffffffffffffffffffffffffffffffffffffffffffffffffffffffff83818316178352505050506115fe565b50565b611246816040516024016111c49190611c2e565b6040516020818303038152906040527f2c2ecbc2000000000000000000000000000000000000000000000000000000007bffffffffffffffffffffffffffffffffffffffffffffffffffffffff19166020820180517bffffffffffffffffffffffffffffffffffffffffffffffffffffffff83818316178352505050506115fe565b50565b60007f01ffc9a7000000000000000000000000000000000000000000000000000000007bffffffffffffffffffffffffffffffffffffffffffffffffffffffff1916827bffffffffffffffffffffffffffffffffffffffffffffffffffffffff1916149050919050565b611349816040516024016112c79190611d0e565b6040516020818303038152906040527f41304fac000000000000000000000000000000000000000000000000000000007bffffffffffffffffffffffffffffffffffffffffffffffffffffffff19166020820180517bffffffffffffffffffffffffffffffffffffffffffffffffffffffff83818316178352505050506115fe565b50565b600033905090565b6000600160009054906101000a900473ffffffffffffffffffffffffffffffffffffffff16905081600160006101000a81548173ffffffffffffffffffffffffffffffffffffffff021916908373ffffffffffffffffffffffffffffffffffffffff1602179055508173ffffffffffffffffffffffffffffffffffffffff168173ffffffffffffffffffffffffffffffffffffffff167f8be0079c531659141344cd1fd0a4f28419497f9722a3daafe3b4186f6b6457e060405160405180910390a35050565b60006005839080600181540180825580915050600190039060005260206000200160009091909190916101000a81548173ffffffffffffffffffffffffffffffffffffffff021916908373ffffffffffffffffffffffffffffffffffffffff1602179055506114bd6040518060400160405280600881526020017f53617665642069640000000000000000000000000000000000000000000000008152506112b3565b6114c682611117565b8160066000600460009054906101000a90046fffffffffffffffffffffffffffffffff166fffffffffffffffffffffffffffffffff166fffffffffffffffffffffffffffffffff16815260200190815260200160002060008573ffffffffffffffffffffffffffffffffffffffff1673ffffffffffffffffffffffffffffffffffffffff168152602001908152602001600020819055506004600081819054906101000a90046fffffffffffffffffffffffffffffffff168092919061158b90611fd5565b91906101000a8154816fffffffffffffffffffffffffffffffff02191690836fffffffffffffffffffffffffffffffff16021790555050600460009054906101000a90046fffffffffffffffffffffffffffffffff16905092915050565b600063f23a6e6160e01b905095945050505050565b60008151905060006a636f6e736f6c652e6c6f679050602083016000808483855afa5050505050565b50805460008255906000526020600020908101906116459190611648565b50565b5b80821115611661576000816000905550600101611649565b5090565b600061167861167384611dcb565b611da6565b9050808382526020820190508285602086028201111561169b5761169a6120a0565b5b60005b858110156116cb57816116b1888261179d565b84526020840193506020830192505060018101905061169e565b5050509392505050565b60006116e86116e384611df7565b611da6565b905082815260208101848484011115611704576117036120a5565b5b61170f848285611f62565b509392505050565b6000813590506117268161213d565b92915050565b600082601f8301126117415761174061209b565b5b8135611751848260208601611665565b91505092915050565b60008135905061176981612154565b92915050565b600082601f8301126117845761178361209b565b5b81356117948482602086016116d5565b91505092915050565b6000813590506117ac8161216b565b92915050565b6000815190506117c18161216b565b92915050565b6000602082840312156117dd576117dc6120af565b5b60006117eb84828501611717565b91505092915050565b600080600080600060a086880312156118105761180f6120af565b5b600061181e88828901611717565b955050602061182f88828901611717565b945050604086013567ffffffffffffffff8111156118505761184f6120aa565b5b61185c8882890161172c565b935050606086013567ffffffffffffffff81111561187d5761187c6120aa565b5b6118898882890161172c565b925050608086013567ffffffffffffffff8111156118aa576118a96120aa565b5b6118b68882890161176f565b9150509295509295909350565b600080600080600060a086880312156118df576118de6120af565b5b60006118ed88828901611717565b95505060206118fe88828901611717565b945050604061190f8882890161179d565b93505060606119208882890161179d565b925050608086013567ffffffffffffffff811115611941576119406120aa565b5b61194d8882890161176f565b9150509295509295909350565b60008060408385031215611971576119706120af565b5b600061197f85828601611717565b92505060206119908582860161179d565b9150509250929050565b6000602082840312156119b0576119af6120af565b5b60006119be8482850161175a565b91505092915050565b6000602082840312156119dd576119dc6120af565b5b60006119eb8482850161179d565b91505092915050565b600060208284031215611a0a57611a096120af565b5b6000611a18848285016117b2565b91505092915050565b6000611a2d8383611a51565b60208301905092915050565b6000611a458383611c10565b60208301905092915050565b611a5a81611ed2565b82525050565b611a6981611ed2565b82525050565b6000611a7a82611e48565b611a848185611e8e565b9350611a8f83611e28565b8060005b83811015611ac0578151611aa78882611a21565b9750611ab283611e74565b925050600181019050611a93565b5085935050505092915050565b6000611ad882611e53565b611ae28185611e9f565b9350611aed83611e38565b8060005b83811015611b1e578151611b058882611a39565b9750611b1083611e81565b925050600181019050611af1565b5085935050505092915050565b611b3481611ee4565b82525050565b611b4381611ef0565b82525050565b6000611b5482611e5e565b611b5e8185611eb0565b9350611b6e818560208601611f71565b611b77816120b4565b840191505092915050565b6000611b8d82611e69565b611b978185611ec1565b9350611ba7818560208601611f71565b611bb0816120b4565b840191505092915050565b6000611bc8602683611ec1565b9150611bd3826120c5565b604082019050919050565b6000611beb602083611ec1565b9150611bf682612114565b602082019050919050565b611c0a81611f1c565b82525050565b611c1981611f58565b82525050565b611c2881611f58565b82525050565b6000602082019050611c436000830184611a60565b92915050565b6000604082019050611c5e6000830185611a60565b611c6b6020830184611c1f565b9392505050565b60006020820190508181036000830152611c8c8184611a6f565b905092915050565b60006020820190508181036000830152611cae8184611acd565b905092915050565b6000602082019050611ccb6000830184611b2b565b92915050565b6000602082019050611ce66000830184611b3a565b92915050565b60006020820190508181036000830152611d068184611b49565b905092915050565b60006020820190508181036000830152611d288184611b82565b905092915050565b60006020820190508181036000830152611d4981611bbb565b9050919050565b60006020820190508181036000830152611d6981611bde565b9050919050565b6000602082019050611d856000830184611c01565b92915050565b6000602082019050611da06000830184611c1f565b92915050565b6000611db0611dc1565b9050611dbc8282611fa4565b919050565b6000604051905090565b600067ffffffffffffffff821115611de657611de561206c565b5b602082029050602081019050919050565b600067ffffffffffffffff821115611e1257611e1161206c565b5b611e1b826120b4565b9050602081019050919050565b6000819050602082019050919050565b6000819050602082019050919050565b600081519050919050565b600081519050919050565b600081519050919050565b600081519050919050565b6000602082019050919050565b6000602082019050919050565b600082825260208201905092915050565b600082825260208201905092915050565b600082825260208201905092915050565b600082825260208201905092915050565b6000611edd82611f38565b9050919050565b60008115159050919050565b60007fffffffff0000000000000000000000000000000000000000000000000000000082169050919050565b60006fffffffffffffffffffffffffffffffff82169050919050565b600073ffffffffffffffffffffffffffffffffffffffff82169050919050565b6000819050919050565b82818337600083830152505050565b60005b83811015611f8f578082015181840152602081019050611f74565b83811115611f9e576000848401525b50505050565b611fad826120b4565b810181811067ffffffffffffffff82111715611fcc57611fcb61206c565b5b80604052505050565b6000611fe082611f1c565b91506fffffffffffffffffffffffffffffffff8214156120035761200261200e565b5b600182019050919050565b7f4e487b7100000000000000000000000000000000000000000000000000000000600052601160045260246000fd5b7f4e487b7100000000000000000000000000000000000000000000000000000000600052603260045260246000fd5b7f4e487b7100000000000000000000000000000000000000000000000000000000600052604160045260246000fd5b600080fd5b600080fd5b600080fd5b600080fd5b600080fd5b6000601f19601f8301169050919050565b7f4f776e61626c653a206e6577206f776e657220697320746865207a65726f206160008201527f6464726573730000000000000000000000000000000000000000000000000000602082015250565b7f4f776e61626c653a2063616c6c6572206973206e6f7420746865206f776e6572600082015250565b61214681611ed2565b811461215157600080fd5b50565b61215d81611ef0565b811461216857600080fd5b50565b61217481611f58565b811461217f57600080fd5b5056fea26469706673582212205ae1dd4ff3f41eda8586eb3861638fec9293c022ae2ff848ac59fe085d15248764736f6c63430008060033",
  "devdoc": {
    "kind": "dev",
    "methods": {
      "owner()": {
        "details": "Returns the address of the current owner."
      },
      "renounceOwnership()": {
        "details": "Leaves the contract without owner. It will not be possible to call `onlyOwner` functions anymore. Can only be called by the current owner. NOTE: Renouncing ownership will leave the contract without an owner, thereby removing any functionality that is only available to the owner."
      },
      "supportsInterface(bytes4)": {
        "details": "See {IERC165-supportsInterface}."
      },
      "transferOwnership(address)": {
        "details": "Transfers ownership of the contract to a new account (`newOwner`). Can only be called by the current owner."
      }
    },
    "version": 1
  },
  "userdoc": {
    "kind": "user",
    "methods": {},
    "version": 1
  },
  "storageLayout": {
    "storage": [
      {
        "astId": 114,
        "contract": "contracts/BCB.sol:BCB",
        "label": "_status",
        "offset": 0,
        "slot": "0",
        "type": "t_uint256"
      },
      {
        "astId": 7,
        "contract": "contracts/BCB.sol:BCB",
        "label": "_owner",
        "offset": 0,
        "slot": "1",
        "type": "t_address"
      },
      {
        "astId": 465,
        "contract": "contracts/BCB.sol:BCB",
        "label": "allowedAssets",
        "offset": 0,
        "slot": "2",
        "type": "t_mapping(t_string_memory_ptr,t_string_storage)"
      },
      {
        "astId": 468,
        "contract": "contracts/BCB.sol:BCB",
        "label": "openseaToken",
        "offset": 0,
        "slot": "3",
        "type": "t_address"
      },
      {
        "astId": 471,
        "contract": "contracts/BCB.sol:BCB",
        "label": "totalTransfers",
        "offset": 0,
        "slot": "4",
        "type": "t_uint128"
      },
      {
        "astId": 474,
        "contract": "contracts/BCB.sol:BCB",
        "label": "senders",
        "offset": 0,
        "slot": "5",
        "type": "t_array(t_address)dyn_storage"
      },
      {
        "astId": 480,
        "contract": "contracts/BCB.sol:BCB",
        "label": "transfers",
        "offset": 0,
        "slot": "6",
        "type": "t_mapping(t_uint128,t_mapping(t_address,t_uint256))"
      }
    ],
    "types": {
      "t_address": {
        "encoding": "inplace",
        "label": "address",
        "numberOfBytes": "20"
      },
      "t_array(t_address)dyn_storage": {
        "base": "t_address",
        "encoding": "dynamic_array",
        "label": "address[]",
        "numberOfBytes": "32"
      },
      "t_mapping(t_address,t_uint256)": {
        "encoding": "mapping",
        "key": "t_address",
        "label": "mapping(address => uint256)",
        "numberOfBytes": "32",
        "value": "t_uint256"
      },
      "t_mapping(t_string_memory_ptr,t_string_storage)": {
        "encoding": "mapping",
        "key": "t_string_memory_ptr",
        "label": "mapping(string => string)",
        "numberOfBytes": "32",
        "value": "t_string_storage"
      },
      "t_mapping(t_uint128,t_mapping(t_address,t_uint256))": {
        "encoding": "mapping",
        "key": "t_uint128",
        "label": "mapping(uint128 => mapping(address => uint256))",
        "numberOfBytes": "32",
        "value": "t_mapping(t_address,t_uint256)"
      },
      "t_string_memory_ptr": {
        "encoding": "bytes",
        "label": "string",
        "numberOfBytes": "32"
      },
      "t_string_storage": {
        "encoding": "bytes",
        "label": "string",
        "numberOfBytes": "32"
      },
      "t_uint128": {
        "encoding": "inplace",
        "label": "uint128",
        "numberOfBytes": "16"
      },
      "t_uint256": {
        "encoding": "inplace",
        "label": "uint256",
        "numberOfBytes": "32"
      }
    }
  }
}