{
  "address": "0x0D6FA146577AdbF9B86718f306e1c180e46c6Fc7",
  "abi": [
    {
      "inputs": [
        {
          "internalType": "string",
          "name": "name_",
          "type": "string"
        },
        {
          "internalType": "string",
          "name": "symbol_",
          "type": "string"
        }
      ],
      "stateMutability": "nonpayable",
      "type": "constructor"
    },
    {
      "anonymous": false,
      "inputs": [
        {
          "indexed": true,
          "internalType": "address",
          "name": "owner",
          "type": "address"
        },
        {
          "indexed": true,
          "internalType": "address",
          "name": "approved",
          "type": "address"
        },
        {
          "indexed": true,
          "internalType": "uint256",
          "name": "tokenId",
          "type": "uint256"
        }
      ],
      "name": "Approval",
      "type": "event"
    },
    {
      "anonymous": false,
      "inputs": [
        {
          "indexed": true,
          "internalType": "address",
          "name": "owner",
          "type": "address"
        },
        {
          "indexed": true,
          "internalType": "address",
          "name": "operator",
          "type": "address"
        },
        {
          "indexed": false,
          "internalType": "bool",
          "name": "approved",
          "type": "bool"
        }
      ],
      "name": "ApprovalForAll",
      "type": "event"
    },
    {
      "anonymous": false,
      "inputs": [
        {
          "indexed": true,
          "internalType": "address",
          "name": "previousOwner",
          "type": "address"
        },
        {
          "indexed": true,
          "internalType": "address",
          "name": "newOwner",
          "type": "address"
        }
      ],
      "name": "OwnershipTransferred",
      "type": "event"
    },
    {
      "anonymous": false,
      "inputs": [
        {
          "indexed": true,
          "internalType": "address",
          "name": "from",
          "type": "address"
        },
        {
          "indexed": true,
          "internalType": "address",
          "name": "to",
          "type": "address"
        },
        {
          "indexed": true,
          "internalType": "uint256",
          "name": "tokenId",
          "type": "uint256"
        }
      ],
      "name": "Transfer",
      "type": "event"
    },
    {
      "inputs": [
        {
          "internalType": "address",
          "name": "to",
          "type": "address"
        },
        {
          "internalType": "uint256",
          "name": "tokenId",
          "type": "uint256"
        }
      ],
      "name": "approve",
      "outputs": [],
      "stateMutability": "nonpayable",
      "type": "function"
    },
    {
      "inputs": [
        {
          "internalType": "address",
          "name": "owner",
          "type": "address"
        }
      ],
      "name": "balanceOf",
      "outputs": [
        {
          "internalType": "uint256",
          "name": "",
          "type": "uint256"
        }
      ],
      "stateMutability": "view",
      "type": "function"
    },
    {
      "inputs": [
        {
          "internalType": "uint256",
          "name": "_tokenId",
          "type": "uint256"
        }
      ],
      "name": "exists",
      "outputs": [
        {
          "internalType": "bool",
          "name": "",
          "type": "bool"
        }
      ],
      "stateMutability": "view",
      "type": "function"
    },
    {
      "inputs": [
        {
          "internalType": "uint256",
          "name": "tokenId",
          "type": "uint256"
        }
      ],
      "name": "getApproved",
      "outputs": [
        {
          "internalType": "address",
          "name": "",
          "type": "address"
        }
      ],
      "stateMutability": "view",
      "type": "function"
    },
    {
      "inputs": [
        {
          "internalType": "address",
          "name": "owner",
          "type": "address"
        },
        {
          "internalType": "address",
          "name": "operator",
          "type": "address"
        }
      ],
      "name": "isApprovedForAll",
      "outputs": [
        {
          "internalType": "bool",
          "name": "",
          "type": "bool"
        }
      ],
      "stateMutability": "view",
      "type": "function"
    },
    {
      "inputs": [
        {
          "internalType": "address",
          "name": "_owner",
          "type": "address"
        },
        {
          "internalType": "uint256",
          "name": "_tokenId",
          "type": "uint256"
        }
      ],
      "name": "mint",
      "outputs": [],
      "stateMutability": "nonpayable",
      "type": "function"
    },
    {
      "inputs": [],
      "name": "name",
      "outputs": [
        {
          "internalType": "string",
          "name": "",
          "type": "string"
        }
      ],
      "stateMutability": "view",
      "type": "function"
    },
    {
      "inputs": [],
      "name": "owner",
      "outputs": [
        {
          "internalType": "address",
          "name": "",
          "type": "address"
        }
      ],
      "stateMutability": "view",
      "type": "function"
    },
    {
      "inputs": [
        {
          "internalType": "uint256",
          "name": "tokenId",
          "type": "uint256"
        }
      ],
      "name": "ownerOf",
      "outputs": [
        {
          "internalType": "address",
          "name": "",
          "type": "address"
        }
      ],
      "stateMutability": "view",
      "type": "function"
    },
    {
      "inputs": [],
      "name": "renounceOwnership",
      "outputs": [],
      "stateMutability": "nonpayable",
      "type": "function"
    },
    {
      "inputs": [
        {
          "internalType": "address",
          "name": "from",
          "type": "address"
        },
        {
          "internalType": "address",
          "name": "to",
          "type": "address"
        },
        {
          "internalType": "uint256",
          "name": "tokenId",
          "type": "uint256"
        }
      ],
      "name": "safeTransferFrom",
      "outputs": [],
      "stateMutability": "nonpayable",
      "type": "function"
    },
    {
      "inputs": [
        {
          "internalType": "address",
          "name": "from",
          "type": "address"
        },
        {
          "internalType": "address",
          "name": "to",
          "type": "address"
        },
        {
          "internalType": "uint256",
          "name": "tokenId",
          "type": "uint256"
        },
        {
          "internalType": "bytes",
          "name": "_data",
          "type": "bytes"
        }
      ],
      "name": "safeTransferFrom",
      "outputs": [],
      "stateMutability": "nonpayable",
      "type": "function"
    },
    {
      "inputs": [
        {
          "internalType": "address",
          "name": "operator",
          "type": "address"
        },
        {
          "internalType": "bool",
          "name": "approved",
          "type": "bool"
        }
      ],
      "name": "setApprovalForAll",
      "outputs": [],
      "stateMutability": "nonpayable",
      "type": "function"
    },
    {
      "inputs": [
        {
          "internalType": "uint256",
          "name": "_tokenId",
          "type": "uint256"
        },
        {
          "internalType": "string",
          "name": "_tokenURI",
          "type": "string"
        }
      ],
      "name": "setTokenUri",
      "outputs": [],
      "stateMutability": "nonpayable",
      "type": "function"
    },
    {
      "inputs": [
        {
          "internalType": "bytes4",
          "name": "interfaceId",
          "type": "bytes4"
        }
      ],
      "name": "supportsInterface",
      "outputs": [
        {
          "internalType": "bool",
          "name": "",
          "type": "bool"
        }
      ],
      "stateMutability": "view",
      "type": "function"
    },
    {
      "inputs": [],
      "name": "symbol",
      "outputs": [
        {
          "internalType": "string",
          "name": "",
          "type": "string"
        }
      ],
      "stateMutability": "view",
      "type": "function"
    },
    {
      "inputs": [
        {
          "internalType": "uint256",
          "name": "tokenId",
          "type": "uint256"
        }
      ],
      "name": "tokenURI",
      "outputs": [
        {
          "internalType": "string",
          "name": "",
          "type": "string"
        }
      ],
      "stateMutability": "view",
      "type": "function"
    },
    {
      "inputs": [
        {
          "internalType": "address",
          "name": "from",
          "type": "address"
        },
        {
          "internalType": "address",
          "name": "to",
          "type": "address"
        },
        {
          "internalType": "uint256",
          "name": "tokenId",
          "type": "uint256"
        }
      ],
      "name": "transferFrom",
      "outputs": [],
      "stateMutability": "nonpayable",
      "type": "function"
    },
    {
      "inputs": [
        {
          "internalType": "address",
          "name": "newOwner",
          "type": "address"
        }
      ],
      "name": "transferOwnership",
      "outputs": [],
      "stateMutability": "nonpayable",
      "type": "function"
    }
  ],
  "transactionHash": "0xd83ec1c22b63eb32aa790b56968932af337797d6b473826cf2e419dff4ac7acc",
  "args": [
    "RestoredCache",
    "RestoredCache"
  ],
  "solcInputHash": "a8b388765206d881cf55e0a05d610c60",
  "bytecode": "0x60806040523480156200001157600080fd5b5060405162001fa238038062001fa283398101604081905262000034916200023b565b8151829082906200004d906000906020850190620000de565b50805162000063906001906020840190620000de565b505050620000806200007a6200008860201b60201c565b6200008c565b5050620002f8565b3390565b600780546001600160a01b038381166001600160a01b0319831681179093556040519116919082907f8be0079c531659141344cd1fd0a4f28419497f9722a3daafe3b4186f6b6457e090600090a35050565b828054620000ec90620002a5565b90600052602060002090601f0160209004810192826200011057600085556200015b565b82601f106200012b57805160ff19168380011785556200015b565b828001600101855582156200015b579182015b828111156200015b5782518255916020019190600101906200013e565b50620001699291506200016d565b5090565b5b808211156200016957600081556001016200016e565b600082601f8301126200019657600080fd5b81516001600160401b0380821115620001b357620001b3620002e2565b604051601f8301601f19908116603f01168101908282118183101715620001de57620001de620002e2565b81604052838152602092508683858801011115620001fb57600080fd5b600091505b838210156200021f578582018301518183018401529082019062000200565b83821115620002315760008385830101525b9695505050505050565b600080604083850312156200024f57600080fd5b82516001600160401b03808211156200026757600080fd5b620002758683870162000184565b935060208501519150808211156200028c57600080fd5b506200029b8582860162000184565b9150509250929050565b600181811c90821680620002ba57607f821691505b60208210811415620002dc57634e487b7160e01b600052602260045260246000fd5b50919050565b634e487b7160e01b600052604160045260246000fd5b611c9a80620003086000396000f3fe608060405234801561001057600080fd5b50600436106101515760003560e01c80636352211e116100cd578063a22cb46511610081578063c87b56dd11610066578063c87b56dd146102ad578063e985e9c5146102c0578063f2fde38b146102fc57600080fd5b8063a22cb46514610287578063b88d4fde1461029a57600080fd5b8063715018a6116100b2578063715018a6146102665780638da5cb5b1461026e57806395d89b411461027f57600080fd5b80636352211e1461023257806370a082311461024557600080fd5b806323b872dd1161012457806342842e0e1161010957806342842e0e146101f95780634f558e791461020c57806357f7789e1461021f57600080fd5b806323b872dd146101d357806340c10f19146101e657600080fd5b806301ffc9a71461015657806306fdde031461017e578063081812fc14610193578063095ea7b3146101be575b600080fd5b6101696101643660046119c5565b61030f565b60405190151581526020015b60405180910390f35b6101866103ac565b6040516101759190611b0a565b6101a66101a13660046119ff565b61043e565b6040516001600160a01b039091168152602001610175565b6101d16101cc36600461199b565b6104d8565b005b6101d16101e13660046118a7565b61060a565b6101d16101f436600461199b565b610691565b6101d16102073660046118a7565b6106f9565b61016961021a3660046119ff565b610714565b6101d161022d366004611a18565b610733565b6101a66102403660046119ff565b610797565b610258610253366004611859565b610822565b604051908152602001610175565b6101d16108bc565b6007546001600160a01b03166101a6565b610186610922565b6101d161029536600461195f565b610931565b6101d16102a83660046118e3565b6109f6565b6101866102bb3660046119ff565b610a84565b6101696102ce366004611874565b6001600160a01b03918216600090815260056020908152604080832093909416825291909152205460ff1690565b6101d161030a366004611859565b610c17565b60006001600160e01b031982167f80ac58cd00000000000000000000000000000000000000000000000000000000148061037257506001600160e01b031982167f5b5e139f00000000000000000000000000000000000000000000000000000000145b806103a657507f01ffc9a7000000000000000000000000000000000000000000000000000000006001600160e01b03198316145b92915050565b6060600080546103bb90611b8c565b80601f01602080910402602001604051908101604052809291908181526020018280546103e790611b8c565b80156104345780601f1061040957610100808354040283529160200191610434565b820191906000526020600020905b81548152906001019060200180831161041757829003601f168201915b5050505050905090565b6000818152600260205260408120546001600160a01b03166104bc5760405162461bcd60e51b815260206004820152602c60248201527f4552433732313a20617070726f76656420717565727920666f72206e6f6e657860448201526b34b9ba32b73a103a37b5b2b760a11b60648201526084015b60405180910390fd5b506000908152600460205260409020546001600160a01b031690565b60006104e382610797565b9050806001600160a01b0316836001600160a01b0316141561056d5760405162461bcd60e51b815260206004820152602160248201527f4552433732313a20617070726f76616c20746f2063757272656e74206f776e6560448201527f720000000000000000000000000000000000000000000000000000000000000060648201526084016104b3565b336001600160a01b0382161480610589575061058981336102ce565b6105fb5760405162461bcd60e51b815260206004820152603860248201527f4552433732313a20617070726f76652063616c6c6572206973206e6f74206f7760448201527f6e6572206e6f7220617070726f76656420666f7220616c6c000000000000000060648201526084016104b3565b6106058383610cf9565b505050565b6106143382610d74565b6106865760405162461bcd60e51b815260206004820152603160248201527f4552433732313a207472616e736665722063616c6c6572206973206e6f74206f60448201527f776e6572206e6f7220617070726f76656400000000000000000000000000000060648201526084016104b3565b610605838383610e67565b6007546001600160a01b031633146106eb5760405162461bcd60e51b815260206004820181905260248201527f4f776e61626c653a2063616c6c6572206973206e6f7420746865206f776e657260448201526064016104b3565b6106f58282611041565b5050565b610605838383604051806020016040528060008152506109f6565b6000818152600260205260408120546001600160a01b031615156103a6565b6007546001600160a01b0316331461078d5760405162461bcd60e51b815260206004820181905260248201527f4f776e61626c653a2063616c6c6572206973206e6f7420746865206f776e657260448201526064016104b3565b6106f5828261105b565b6000818152600260205260408120546001600160a01b0316806103a65760405162461bcd60e51b815260206004820152602960248201527f4552433732313a206f776e657220717565727920666f72206e6f6e657869737460448201527f656e7420746f6b656e000000000000000000000000000000000000000000000060648201526084016104b3565b60006001600160a01b0382166108a05760405162461bcd60e51b815260206004820152602a60248201527f4552433732313a2062616c616e636520717565727920666f7220746865207a6560448201527f726f20616464726573730000000000000000000000000000000000000000000060648201526084016104b3565b506001600160a01b031660009081526003602052604090205490565b6007546001600160a01b031633146109165760405162461bcd60e51b815260206004820181905260248201527f4f776e61626c653a2063616c6c6572206973206e6f7420746865206f776e657260448201526064016104b3565b6109206000611104565b565b6060600180546103bb90611b8c565b6001600160a01b03821633141561098a5760405162461bcd60e51b815260206004820152601960248201527f4552433732313a20617070726f766520746f2063616c6c65720000000000000060448201526064016104b3565b3360008181526005602090815260408083206001600160a01b03871680855290835292819020805460ff191686151590811790915590519081529192917f17307eab39ab6107e8899845ad3d59bd9653f200f220920489ca2b5937696c31910160405180910390a35050565b610a003383610d74565b610a725760405162461bcd60e51b815260206004820152603160248201527f4552433732313a207472616e736665722063616c6c6572206973206e6f74206f60448201527f776e6572206e6f7220617070726f76656400000000000000000000000000000060648201526084016104b3565b610a7e84848484611163565b50505050565b6000818152600260205260409020546060906001600160a01b0316610b115760405162461bcd60e51b815260206004820152603160248201527f45524337323155524953746f726167653a2055524920717565727920666f722060448201527f6e6f6e6578697374656e7420746f6b656e00000000000000000000000000000060648201526084016104b3565b60008281526006602052604081208054610b2a90611b8c565b80601f0160208091040260200160405190810160405280929190818152602001828054610b5690611b8c565b8015610ba35780601f10610b7857610100808354040283529160200191610ba3565b820191906000526020600020905b815481529060010190602001808311610b8657829003601f168201915b505050505090506000610bc160408051602081019091526000815290565b9050805160001415610bd4575092915050565b815115610c06578082604051602001610bee929190611a9f565b60405160208183030381529060405292505050919050565b610c0f846111e1565b949350505050565b6007546001600160a01b03163314610c715760405162461bcd60e51b815260206004820181905260248201527f4f776e61626c653a2063616c6c6572206973206e6f7420746865206f776e657260448201526064016104b3565b6001600160a01b038116610ced5760405162461bcd60e51b815260206004820152602660248201527f4f776e61626c653a206e6577206f776e657220697320746865207a65726f206160448201527f646472657373000000000000000000000000000000000000000000000000000060648201526084016104b3565b610cf681611104565b50565b6000818152600460205260409020805473ffffffffffffffffffffffffffffffffffffffff19166001600160a01b0384169081179091558190610d3b82610797565b6001600160a01b03167f8c5be1e5ebec7d5bd14f71427d1e84f3dd0314c0f7b2291e5b200ac8c7c3b92560405160405180910390a45050565b6000818152600260205260408120546001600160a01b0316610ded5760405162461bcd60e51b815260206004820152602c60248201527f4552433732313a206f70657261746f7220717565727920666f72206e6f6e657860448201526b34b9ba32b73a103a37b5b2b760a11b60648201526084016104b3565b6000610df883610797565b9050806001600160a01b0316846001600160a01b03161480610e335750836001600160a01b0316610e288461043e565b6001600160a01b0316145b80610c0f57506001600160a01b0380821660009081526005602090815260408083209388168352929052205460ff16610c0f565b826001600160a01b0316610e7a82610797565b6001600160a01b031614610ef65760405162461bcd60e51b815260206004820152602960248201527f4552433732313a207472616e73666572206f6620746f6b656e2074686174206960448201527f73206e6f74206f776e000000000000000000000000000000000000000000000060648201526084016104b3565b6001600160a01b038216610f715760405162461bcd60e51b8152602060048201526024808201527f4552433732313a207472616e7366657220746f20746865207a65726f2061646460448201527f726573730000000000000000000000000000000000000000000000000000000060648201526084016104b3565b610f7c600082610cf9565b6001600160a01b0383166000908152600360205260408120805460019290610fa5908490611b49565b90915550506001600160a01b0382166000908152600360205260408120805460019290610fd3908490611b1d565b9091555050600081815260026020526040808220805473ffffffffffffffffffffffffffffffffffffffff19166001600160a01b0386811691821790925591518493918716917fddf252ad1be2c89b69c2b068fc378daa952ba7f163c4a11628f55a4df523b3ef91a4505050565b6106f58282604051806020016040528060008152506112d7565b6000828152600260205260409020546001600160a01b03166110e55760405162461bcd60e51b815260206004820152602e60248201527f45524337323155524953746f726167653a2055524920736574206f66206e6f6e60448201527f6578697374656e7420746f6b656e00000000000000000000000000000000000060648201526084016104b3565b600082815260066020908152604090912082516106059284019061172e565b600780546001600160a01b0383811673ffffffffffffffffffffffffffffffffffffffff19831681179093556040519116919082907f8be0079c531659141344cd1fd0a4f28419497f9722a3daafe3b4186f6b6457e090600090a35050565b61116e848484610e67565b61117a84848484611355565b610a7e5760405162461bcd60e51b815260206004820152603260248201527f4552433732313a207472616e7366657220746f206e6f6e20455243373231526560448201527131b2b4bb32b91034b6b83632b6b2b73a32b960711b60648201526084016104b3565b6000818152600260205260409020546060906001600160a01b031661126e5760405162461bcd60e51b815260206004820152602f60248201527f4552433732314d657461646174613a2055524920717565727920666f72206e6f60448201527f6e6578697374656e7420746f6b656e000000000000000000000000000000000060648201526084016104b3565b600061128560408051602081019091526000815290565b905060008151116112a557604051806020016040528060008152506112d0565b806112af846114ad565b6040516020016112c0929190611a9f565b6040516020818303038152906040525b9392505050565b6112e183836115df565b6112ee6000848484611355565b6106055760405162461bcd60e51b815260206004820152603260248201527f4552433732313a207472616e7366657220746f206e6f6e20455243373231526560448201527131b2b4bb32b91034b6b83632b6b2b73a32b960711b60648201526084016104b3565b60006001600160a01b0384163b156114a257604051630a85bd0160e11b81526001600160a01b0385169063150b7a0290611399903390899088908890600401611ace565b602060405180830381600087803b1580156113b357600080fd5b505af19250505080156113e3575060408051601f3d908101601f191682019092526113e0918101906119e2565b60015b611488573d808015611411576040519150601f19603f3d011682016040523d82523d6000602084013e611416565b606091505b5080516114805760405162461bcd60e51b815260206004820152603260248201527f4552433732313a207472616e7366657220746f206e6f6e20455243373231526560448201527131b2b4bb32b91034b6b83632b6b2b73a32b960711b60648201526084016104b3565b805181602001fd5b6001600160e01b031916630a85bd0160e11b149050610c0f565b506001949350505050565b6060816114ed57505060408051808201909152600181527f3000000000000000000000000000000000000000000000000000000000000000602082015290565b8160005b8115611517578061150181611bc7565b91506115109050600a83611b35565b91506114f1565b60008167ffffffffffffffff81111561153257611532611c38565b6040519080825280601f01601f19166020018201604052801561155c576020820181803683370190505b5090505b8415610c0f57611571600183611b49565b915061157e600a86611be2565b611589906030611b1d565b60f81b81838151811061159e5761159e611c22565b60200101907effffffffffffffffffffffffffffffffffffffffffffffffffffffffffffff1916908160001a9053506115d8600a86611b35565b9450611560565b6001600160a01b0382166116355760405162461bcd60e51b815260206004820181905260248201527f4552433732313a206d696e7420746f20746865207a65726f206164647265737360448201526064016104b3565b6000818152600260205260409020546001600160a01b03161561169a5760405162461bcd60e51b815260206004820152601c60248201527f4552433732313a20746f6b656e20616c7265616479206d696e7465640000000060448201526064016104b3565b6001600160a01b03821660009081526003602052604081208054600192906116c3908490611b1d565b9091555050600081815260026020526040808220805473ffffffffffffffffffffffffffffffffffffffff19166001600160a01b03861690811790915590518392907fddf252ad1be2c89b69c2b068fc378daa952ba7f163c4a11628f55a4df523b3ef908290a45050565b82805461173a90611b8c565b90600052602060002090601f01602090048101928261175c57600085556117a2565b82601f1061177557805160ff19168380011785556117a2565b828001600101855582156117a2579182015b828111156117a2578251825591602001919060010190611787565b506117ae9291506117b2565b5090565b5b808211156117ae57600081556001016117b3565b600067ffffffffffffffff808411156117e2576117e2611c38565b604051601f8501601f19908116603f0116810190828211818310171561180a5761180a611c38565b8160405280935085815286868601111561182357600080fd5b858560208301376000602087830101525050509392505050565b80356001600160a01b038116811461185457600080fd5b919050565b60006020828403121561186b57600080fd5b6112d08261183d565b6000806040838503121561188757600080fd5b6118908361183d565b915061189e6020840161183d565b90509250929050565b6000806000606084860312156118bc57600080fd5b6118c58461183d565b92506118d36020850161183d565b9150604084013590509250925092565b600080600080608085870312156118f957600080fd5b6119028561183d565b93506119106020860161183d565b925060408501359150606085013567ffffffffffffffff81111561193357600080fd5b8501601f8101871361194457600080fd5b611953878235602084016117c7565b91505092959194509250565b6000806040838503121561197257600080fd5b61197b8361183d565b91506020830135801515811461199057600080fd5b809150509250929050565b600080604083850312156119ae57600080fd5b6119b78361183d565b946020939093013593505050565b6000602082840312156119d757600080fd5b81356112d081611c4e565b6000602082840312156119f457600080fd5b81516112d081611c4e565b600060208284031215611a1157600080fd5b5035919050565b60008060408385031215611a2b57600080fd5b82359150602083013567ffffffffffffffff811115611a4957600080fd5b8301601f81018513611a5a57600080fd5b611a69858235602084016117c7565b9150509250929050565b60008151808452611a8b816020860160208601611b60565b601f01601f19169290920160200192915050565b60008351611ab1818460208801611b60565b835190830190611ac5818360208801611b60565b01949350505050565b60006001600160a01b03808716835280861660208401525083604083015260806060830152611b006080830184611a73565b9695505050505050565b6020815260006112d06020830184611a73565b60008219821115611b3057611b30611bf6565b500190565b600082611b4457611b44611c0c565b500490565b600082821015611b5b57611b5b611bf6565b500390565b60005b83811015611b7b578181015183820152602001611b63565b83811115610a7e5750506000910152565b600181811c90821680611ba057607f821691505b60208210811415611bc157634e487b7160e01b600052602260045260246000fd5b50919050565b6000600019821415611bdb57611bdb611bf6565b5060010190565b600082611bf157611bf1611c0c565b500690565b634e487b7160e01b600052601160045260246000fd5b634e487b7160e01b600052601260045260246000fd5b634e487b7160e01b600052603260045260246000fd5b634e487b7160e01b600052604160045260246000fd5b6001600160e01b031981168114610cf657600080fdfea264697066735822122075be09fea471aa0fd964696d12d15dce931e0be956ab0b45618b5c86a0e6934064736f6c63430008060033",
  "devdoc": {
    "kind": "dev",
    "methods": {
      "approve(address,uint256)": {
        "details": "See {IERC721-approve}."
      },
      "balanceOf(address)": {
        "details": "See {IERC721-balanceOf}."
      },
      "getApproved(uint256)": {
        "details": "See {IERC721-getApproved}."
      },
      "isApprovedForAll(address,address)": {
        "details": "See {IERC721-isApprovedForAll}."
      },
      "name()": {
        "details": "See {IERC721Metadata-name}."
      },
      "owner()": {
        "details": "Returns the address of the current owner."
      },
      "ownerOf(uint256)": {
        "details": "See {IERC721-ownerOf}."
      },
      "renounceOwnership()": {
        "details": "Leaves the contract without owner. It will not be possible to call `onlyOwner` functions anymore. Can only be called by the current owner. NOTE: Renouncing ownership will leave the contract without an owner, thereby removing any functionality that is only available to the owner."
      },
      "safeTransferFrom(address,address,uint256)": {
        "details": "See {IERC721-safeTransferFrom}."
      },
      "safeTransferFrom(address,address,uint256,bytes)": {
        "details": "See {IERC721-safeTransferFrom}."
      },
      "setApprovalForAll(address,bool)": {
        "details": "See {IERC721-setApprovalForAll}."
      },
      "supportsInterface(bytes4)": {
        "details": "See {IERC165-supportsInterface}."
      },
      "symbol()": {
        "details": "See {IERC721Metadata-symbol}."
      },
      "tokenURI(uint256)": {
        "details": "See {IERC721Metadata-tokenURI}."
      },
      "transferFrom(address,address,uint256)": {
        "details": "See {IERC721-transferFrom}."
      },
      "transferOwnership(address)": {
        "details": "Transfers ownership of the contract to a new account (`newOwner`). Can only be called by the current owner."
      }
    },
    "version": 1
  },
  "userdoc": {
    "kind": "user",
    "methods": {},
    "version": 1
  },
  "storageLayout": {
    "storage": [
      {
        "astId": 1517,
        "contract": "contracts/core/restored/RestoredCache.sol:RestoredCache",
        "label": "_name",
        "offset": 0,
        "slot": "0",
        "type": "t_string_storage"
      },
      {
        "astId": 1519,
        "contract": "contracts/core/restored/RestoredCache.sol:RestoredCache",
        "label": "_symbol",
        "offset": 0,
        "slot": "1",
        "type": "t_string_storage"
      },
      {
        "astId": 1523,
        "contract": "contracts/core/restored/RestoredCache.sol:RestoredCache",
        "label": "_owners",
        "offset": 0,
        "slot": "2",
        "type": "t_mapping(t_uint256,t_address)"
      },
      {
        "astId": 1527,
        "contract": "contracts/core/restored/RestoredCache.sol:RestoredCache",
        "label": "_balances",
        "offset": 0,
        "slot": "3",
        "type": "t_mapping(t_address,t_uint256)"
      },
      {
        "astId": 1531,
        "contract": "contracts/core/restored/RestoredCache.sol:RestoredCache",
        "label": "_tokenApprovals",
        "offset": 0,
        "slot": "4",
        "type": "t_mapping(t_uint256,t_address)"
      },
      {
        "astId": 1537,
        "contract": "contracts/core/restored/RestoredCache.sol:RestoredCache",
        "label": "_operatorApprovals",
        "offset": 0,
        "slot": "5",
        "type": "t_mapping(t_address,t_mapping(t_address,t_bool))"
      },
      {
        "astId": 2456,
        "contract": "contracts/core/restored/RestoredCache.sol:RestoredCache",
        "label": "_tokenURIs",
        "offset": 0,
        "slot": "6",
        "type": "t_mapping(t_uint256,t_string_storage)"
      },
      {
        "astId": 7,
        "contract": "contracts/core/restored/RestoredCache.sol:RestoredCache",
        "label": "_owner",
        "offset": 0,
        "slot": "7",
        "type": "t_address"
      }
    ],
    "types": {
      "t_address": {
        "encoding": "inplace",
        "label": "address",
        "numberOfBytes": "20"
      },
      "t_bool": {
        "encoding": "inplace",
        "label": "bool",
        "numberOfBytes": "1"
      },
      "t_mapping(t_address,t_bool)": {
        "encoding": "mapping",
        "key": "t_address",
        "label": "mapping(address => bool)",
        "numberOfBytes": "32",
        "value": "t_bool"
      },
      "t_mapping(t_address,t_mapping(t_address,t_bool))": {
        "encoding": "mapping",
        "key": "t_address",
        "label": "mapping(address => mapping(address => bool))",
        "numberOfBytes": "32",
        "value": "t_mapping(t_address,t_bool)"
      },
      "t_mapping(t_address,t_uint256)": {
        "encoding": "mapping",
        "key": "t_address",
        "label": "mapping(address => uint256)",
        "numberOfBytes": "32",
        "value": "t_uint256"
      },
      "t_mapping(t_uint256,t_address)": {
        "encoding": "mapping",
        "key": "t_uint256",
        "label": "mapping(uint256 => address)",
        "numberOfBytes": "32",
        "value": "t_address"
      },
      "t_mapping(t_uint256,t_string_storage)": {
        "encoding": "mapping",
        "key": "t_uint256",
        "label": "mapping(uint256 => string)",
        "numberOfBytes": "32",
        "value": "t_string_storage"
      },
      "t_string_storage": {
        "encoding": "bytes",
        "label": "string",
        "numberOfBytes": "32"
      },
      "t_uint256": {
        "encoding": "inplace",
        "label": "uint256",
        "numberOfBytes": "32"
      }
    }
  }
}