{
  "address": "0x3448DF602D47Fd49fE52a699507546F6435D47b4",
  "abi": [
    {
      "inputs": [],
      "stateMutability": "nonpayable",
      "type": "constructor"
    },
    {
      "anonymous": false,
      "inputs": [
        {
          "indexed": true,
          "internalType": "address",
          "name": "_sender",
          "type": "address"
        },
        {
          "indexed": true,
          "internalType": "uint256",
          "name": "_tokenId",
          "type": "uint256"
        }
      ],
      "name": "MintedBadCache721",
      "type": "event"
    },
    {
      "anonymous": false,
      "inputs": [
        {
          "indexed": true,
          "internalType": "address",
          "name": "previousOwner",
          "type": "address"
        },
        {
          "indexed": true,
          "internalType": "address",
          "name": "newOwner",
          "type": "address"
        }
      ],
      "name": "OwnershipTransferred",
      "type": "event"
    },
    {
      "anonymous": false,
      "inputs": [
        {
          "indexed": true,
          "internalType": "address",
          "name": "_sender",
          "type": "address"
        },
        {
          "indexed": true,
          "internalType": "address",
          "name": "_receiver",
          "type": "address"
        },
        {
          "indexed": true,
          "internalType": "uint256",
          "name": "_tokenId",
          "type": "uint256"
        }
      ],
      "name": "ReceivedTransferFromBadCache721",
      "type": "event"
    },
    {
      "anonymous": false,
      "inputs": [
        {
          "indexed": true,
          "internalType": "address",
          "name": "_sender",
          "type": "address"
        },
        {
          "indexed": true,
          "internalType": "address",
          "name": "_receiver",
          "type": "address"
        },
        {
          "indexed": true,
          "internalType": "uint256",
          "name": "_tokenId",
          "type": "uint256"
        },
        {
          "indexed": false,
          "internalType": "uint256",
          "name": "_amount",
          "type": "uint256"
        }
      ],
      "name": "ReceivedTransferFromOpenSea",
      "type": "event"
    },
    {
      "inputs": [
        {
          "internalType": "uint256",
          "name": "_tokenId",
          "type": "uint256"
        },
        {
          "internalType": "string",
          "name": "_uri",
          "type": "string"
        },
        {
          "internalType": "uint16",
          "name": "_newTokenId",
          "type": "uint16"
        }
      ],
      "name": "addAllowedToken",
      "outputs": [],
      "stateMutability": "nonpayable",
      "type": "function"
    },
    {
      "inputs": [
        {
          "internalType": "address",
          "name": "_account",
          "type": "address"
        },
        {
          "internalType": "uint256",
          "name": "_tokenId",
          "type": "uint256"
        }
      ],
      "name": "checkBalance",
      "outputs": [
        {
          "internalType": "uint256",
          "name": "",
          "type": "uint256"
        }
      ],
      "stateMutability": "view",
      "type": "function"
    },
    {
      "inputs": [],
      "name": "getAddressesThatTransferedIds",
      "outputs": [
        {
          "internalType": "address[]",
          "name": "",
          "type": "address[]"
        }
      ],
      "stateMutability": "view",
      "type": "function"
    },
    {
      "inputs": [],
      "name": "getBadCache721Proxiedtoken",
      "outputs": [
        {
          "internalType": "address",
          "name": "",
          "type": "address"
        }
      ],
      "stateMutability": "view",
      "type": "function"
    },
    {
      "inputs": [],
      "name": "getCustomIds",
      "outputs": [
        {
          "internalType": "uint256[]",
          "name": "",
          "type": "uint256[]"
        }
      ],
      "stateMutability": "view",
      "type": "function"
    },
    {
      "inputs": [],
      "name": "getIds",
      "outputs": [
        {
          "internalType": "uint256[]",
          "name": "",
          "type": "uint256[]"
        }
      ],
      "stateMutability": "view",
      "type": "function"
    },
    {
      "inputs": [],
      "name": "getOpenSeaProxiedtoken",
      "outputs": [
        {
          "internalType": "address",
          "name": "",
          "type": "address"
        }
      ],
      "stateMutability": "view",
      "type": "function"
    },
    {
      "inputs": [],
      "name": "getTransferCount",
      "outputs": [
        {
          "internalType": "uint128",
          "name": "",
          "type": "uint128"
        }
      ],
      "stateMutability": "view",
      "type": "function"
    },
    {
      "inputs": [
        {
          "internalType": "uint256",
          "name": "_tokenId",
          "type": "uint256"
        },
        {
          "internalType": "string",
          "name": "_uri",
          "type": "string"
        },
        {
          "internalType": "address",
          "name": "_owner",
          "type": "address"
        }
      ],
      "name": "mintBadCache721",
      "outputs": [],
      "stateMutability": "nonpayable",
      "type": "function"
    },
    {
      "inputs": [
        {
          "internalType": "address",
          "name": "",
          "type": "address"
        },
        {
          "internalType": "address",
          "name": "",
          "type": "address"
        },
        {
          "internalType": "uint256[]",
          "name": "",
          "type": "uint256[]"
        },
        {
          "internalType": "uint256[]",
          "name": "",
          "type": "uint256[]"
        },
        {
          "internalType": "bytes",
          "name": "",
          "type": "bytes"
        }
      ],
      "name": "onERC1155BatchReceived",
      "outputs": [
        {
          "internalType": "bytes4",
          "name": "",
          "type": "bytes4"
        }
      ],
      "stateMutability": "nonpayable",
      "type": "function"
    },
    {
      "inputs": [
        {
          "internalType": "address",
          "name": "_sender",
          "type": "address"
        },
        {
          "internalType": "address",
          "name": "_receiver",
          "type": "address"
        },
        {
          "internalType": "uint256",
          "name": "_tokenId",
          "type": "uint256"
        },
        {
          "internalType": "uint256",
          "name": "_amount",
          "type": "uint256"
        },
        {
          "internalType": "bytes",
          "name": "_data",
          "type": "bytes"
        }
      ],
      "name": "onERC1155Received",
      "outputs": [
        {
          "internalType": "bytes4",
          "name": "",
          "type": "bytes4"
        }
      ],
      "stateMutability": "nonpayable",
      "type": "function"
    },
    {
      "inputs": [
        {
          "internalType": "address",
          "name": "_sender",
          "type": "address"
        },
        {
          "internalType": "address",
          "name": "_receiver",
          "type": "address"
        },
        {
          "internalType": "uint256",
          "name": "_tokenId",
          "type": "uint256"
        },
        {
          "internalType": "bytes",
          "name": "_data",
          "type": "bytes"
        }
      ],
      "name": "onERC721Received",
      "outputs": [
        {
          "internalType": "bytes4",
          "name": "",
          "type": "bytes4"
        }
      ],
      "stateMutability": "nonpayable",
      "type": "function"
    },
    {
      "inputs": [],
      "name": "owner",
      "outputs": [
        {
          "internalType": "address",
          "name": "",
          "type": "address"
        }
      ],
      "stateMutability": "view",
      "type": "function"
    },
    {
      "inputs": [
        {
          "internalType": "uint256",
          "name": "_tokenId",
          "type": "uint256"
        }
      ],
      "name": "ownerOf1155",
      "outputs": [
        {
          "internalType": "bool",
          "name": "",
          "type": "bool"
        }
      ],
      "stateMutability": "view",
      "type": "function"
    },
    {
      "inputs": [],
      "name": "renounceOwnership",
      "outputs": [],
      "stateMutability": "nonpayable",
      "type": "function"
    },
    {
      "inputs": [
        {
          "internalType": "address",
          "name": "_token",
          "type": "address"
        }
      ],
      "name": "setBadCache721",
      "outputs": [],
      "stateMutability": "nonpayable",
      "type": "function"
    },
    {
      "inputs": [
        {
          "internalType": "address",
          "name": "_token",
          "type": "address"
        }
      ],
      "name": "setProxiedToken",
      "outputs": [],
      "stateMutability": "nonpayable",
      "type": "function"
    },
    {
      "inputs": [
        {
          "internalType": "bytes4",
          "name": "interfaceId",
          "type": "bytes4"
        }
      ],
      "name": "supportsInterface",
      "outputs": [
        {
          "internalType": "bool",
          "name": "",
          "type": "bool"
        }
      ],
      "stateMutability": "view",
      "type": "function"
    },
    {
      "inputs": [
        {
          "internalType": "uint256",
          "name": "_tokenId",
          "type": "uint256"
        },
        {
          "internalType": "address",
          "name": "_owner",
          "type": "address"
        }
      ],
      "name": "transferBadCache1155",
      "outputs": [],
      "stateMutability": "nonpayable",
      "type": "function"
    },
    {
      "inputs": [
        {
          "internalType": "uint256",
          "name": "_tokenId",
          "type": "uint256"
        },
        {
          "internalType": "address",
          "name": "_owner",
          "type": "address"
        }
      ],
      "name": "transferBadCache721",
      "outputs": [],
      "stateMutability": "nonpayable",
      "type": "function"
    },
    {
      "inputs": [
        {
          "internalType": "address",
          "name": "newOwner",
          "type": "address"
        }
      ],
      "name": "transferOwnership",
      "outputs": [],
      "stateMutability": "nonpayable",
      "type": "function"
    },
    {
      "inputs": [
        {
          "internalType": "address",
          "name": "_newOwner",
          "type": "address"
        }
      ],
      "name": "transferOwnershipOf721",
      "outputs": [],
      "stateMutability": "nonpayable",
      "type": "function"
    }
  ],
  "transactionHash": "0xfcf394330781b8561bc7d6407aff5d31ab97cb08b626a64dbf038fc46d77e1da",
  "args": [],
  "solcInputHash": "392e283507b793675854261d1e36373d",
  "bytecode": "0x608060405273495f947276749ce646f68ac8c248420045cb7b5e600260006101000a81548173ffffffffffffffffffffffffffffffffffffffff021916908373ffffffffffffffffffffffffffffffffffffffff1602179055506000600360006101000a8154816fffffffffffffffffffffffffffffffff02191690836fffffffffffffffffffffffffffffffff1602179055506000600660006101000a81548173ffffffffffffffffffffffffffffffffffffffff021916908373ffffffffffffffffffffffffffffffffffffffff160217905550348015620000e257600080fd5b5060016000819055506200010b620000ff620001b060201b60201c565b620001b860201b60201c565b6200011b620001b060201b60201c565b73ffffffffffffffffffffffffffffffffffffffff16620001416200027e60201b60201c565b73ffffffffffffffffffffffffffffffffffffffff16146200019a576040517f08c379a0000000000000000000000000000000000000000000000000000000008152600401620001919062002318565b60405180910390fd5b620001aa620002a860201b60201c565b620023d9565b600033905090565b6000600160009054906101000a900473ffffffffffffffffffffffffffffffffffffffff16905081600160006101000a81548173ffffffffffffffffffffffffffffffffffffffff021916908373ffffffffffffffffffffffffffffffffffffffff1602179055508173ffffffffffffffffffffffffffffffffffffffff168173ffffffffffffffffffffffffffffffffffffffff167f8be0079c531659141344cd1fd0a4f28419497f9722a3daafe3b4186f6b6457e060405160405180910390a35050565b6000600160009054906101000a900473ffffffffffffffffffffffffffffffffffffffff16905090565b620002f57fbd40add28615febf5bda18afea24c7908695210b0000000000002900000000016040518060800160405280604a815260200162008404604a91396001620020be60201b60201c565b620003427fbd40add28615febf5bda18afea24c7908695210b0000000000002a00000000016040518060800160405280604a8152602001620079c6604a91396002620020be60201b60201c565b6200038f7fbd40add28615febf5bda18afea24c7908695210b0000000000002b00000000016040518060800160405280604a815260200162006a42604a91396003620020be60201b60201c565b620003dc7fbd40add28615febf5bda18afea24c7908695210b0000000000002c00000000016040518060800160405280604a8152602001620083ba604a91396004620020be60201b60201c565b620004297fbd40add28615febf5bda18afea24c7908695210b0000000000002d00000000016040518060800160405280604a8152602001620074cd604a91396005620020be60201b60201c565b620004767fbd40add28615febf5bda18afea24c7908695210b0000000000002e00000000016040518060800160405280604a81526020016200768e604a91396006620020be60201b60201c565b620004c37fbd40add28615febf5bda18afea24c7908695210b0000000000002f00000000016040518060800160405280604a815260200162008499604a91396007620020be60201b60201c565b620005107fbd40add28615febf5bda18afea24c7908695210b0000000000003000000000016040518060800160405280604a815260200162007a5b604a91396008620020be60201b60201c565b6200055d7fbd40add28615febf5bda18afea24c7908695210b0000000000003100000000016040518060800160405280604a815260200162007cb3604a91396009620020be60201b60201c565b620005aa7fbd40add28615febf5bda18afea24c7908695210b0000000000003200000000016040518060800160405280604b815260200162007a10604b9139600a620020be60201b60201c565b620005f77fbd40add28615febf5bda18afea24c7908695210b0000000000003300000000016040518060800160405280604b815260200162007feb604b9139600b620020be60201b60201c565b620006447fbd40add28615febf5bda18afea24c7908695210b0000000000003400000000016040518060800160405280604b81526020016200797b604b9139600c620020be60201b60201c565b620006917fbd40add28615febf5bda18afea24c7908695210b0000000000003500000000016040518060800160405280604b81526020016200730b604b9139600d620020be60201b60201c565b620006de7fbd40add28615febf5bda18afea24c7908695210b0000000000003600000000016040518060800160405280604b8152602001620073a1604b9139600e620020be60201b60201c565b6200072b7fbd40add28615febf5bda18afea24c7908695210b0000000000003700000000016040518060800160405280604b815260200162007fa0604b9139600f620020be60201b60201c565b620007787fbd40add28615febf5bda18afea24c7908695210b0000000000003800000000016040518060800160405280604b8152602001620071df604b91396010620020be60201b60201c565b620007c57fbd40add28615febf5bda18afea24c7908695210b0000000000003900000000016040518060800160405280604b815260200162007562604b91396011620020be60201b60201c565b620008127fbd40add28615febf5bda18afea24c7908695210b0000000000003a00000000016040518060800160405280604b815260200162007643604b91396012620020be60201b60201c565b6200085f7fbd40add28615febf5bda18afea24c7908695210b0000000000003b00000000016040518060800160405280604b8152602001620076d8604b91396013620020be60201b60201c565b620008ac7fbd40add28615febf5bda18afea24c7908695210b0000000000003c00000000016040518060800160405280604b8152602001620069f7604b91396014620020be60201b60201c565b620008f97fbd40add28615febf5bda18afea24c7908695210b0000000000003d00000000016040518060800160405280604b815260200162006f3c604b91396015620020be60201b60201c565b620009467fbd40add28615febf5bda18afea24c7908695210b0000000000003e00000000016040518060800160405280604b815260200162007b86604b91396016620020be60201b60201c565b620009937fbd40add28615febf5bda18afea24c7908695210b0000000000003f00000000016040518060800160405280604b815260200162007aa5604b91396017620020be60201b60201c565b620009e07fbd40add28615febf5bda18afea24c7908695210b0000000000004000000000016040518060800160405280604b8152602001620070b3604b91396018620020be60201b60201c565b62000a2d7fbd40add28615febf5bda18afea24c7908695210b0000000000004100000000016040518060800160405280604b8152602001620070fe604b91396019620020be60201b60201c565b62000a7a7fbd40add28615febf5bda18afea24c7908695210b0000000000004200000000016040518060800160405280604b815260200162006d7a604b9139601a620020be60201b60201c565b62000ac77fbd40add28615febf5bda18afea24c7908695210b0000000000004300000000016040518060800160405280604b815260200162006ce4604b9139601b620020be60201b60201c565b62000b147fbd40add28615febf5bda18afea24c7908695210b0000000000004400000000016040518060800160405280604b8152602001620081f8604b9139601c620020be60201b60201c565b62000b617fbd40add28615febf5bda18afea24c7908695210b0000000000004500000000016040518060800160405280604b815260200162008324604b9139601d620020be60201b60201c565b62000bae7fbd40add28615febf5bda18afea24c7908695210b0000000000004600000000016040518060800160405280604b815260200162006dc5604b9139601e620020be60201b60201c565b62000bfb7fbd40add28615febf5bda18afea24c7908695210b0000000000004700000000016040518060800160405280604b815260200162006c03604b9139601f620020be60201b60201c565b62000c487fbd40add28615febf5bda18afea24c7908695210b0000000000004800000000016040518060800160405280604b815260200162007c68604b91396020620020be60201b60201c565b62000c957fbd40add28615febf5bda18afea24c7908695210b0000000000004900000000016040518060800160405280604b8152602001620085c4604b91396021620020be60201b60201c565b62000ce27fbd40add28615febf5bda18afea24c7908695210b0000000000004a00000000016040518060800160405280604b815260200162007517604b91396022620020be60201b60201c565b62000d2f7fbd40add28615febf5bda18afea24c7908695210b0000000000004b00000000016040518060800160405280604b8152602001620069ac604b91396023620020be60201b60201c565b62000d7c7fbd40add28615febf5bda18afea24c7908695210b0000000000004c00000000016040518060800160405280604b815260200162007f55604b91396024620020be60201b60201c565b62000dc97fbd40add28615febf5bda18afea24c7908695210b0000000000004d00000000016040518060800160405280604b8152602001620075f8604b91396025620020be60201b60201c565b62000e167fbd40add28615febf5bda18afea24c7908695210b0000000000004e00000000016040518060800160405280604b815260200162007356604b91396026620020be60201b60201c565b62000e637fbd40add28615febf5bda18afea24c7908695210b0000000000004f00000000016040518060800160405280604b8152602001620081ad604b91396027620020be60201b60201c565b62000eb07fbd40add28615febf5bda18afea24c7908695210b0000000000005000000000016040518060800160405280604b815260200162007723604b91396028620020be60201b60201c565b62000efd7fbd40add28615febf5bda18afea24c7908695210b0000000000005100000000016040518060800160405280604b815260200162006bb8604b91396029620020be60201b60201c565b62000f4a7fbd40add28615febf5bda18afea24c7908695210b0000000000005200000000016040518060800160405280604b815260200162008579604b9139602a620020be60201b60201c565b62000f977fbd40add28615febf5bda18afea24c7908695210b0000000000005300000000016040518060800160405280604b815260200162008243604b9139602b620020be60201b60201c565b62000fe47fbd40add28615febf5bda18afea24c7908695210b0000000000005400000000016040518060800160405280604b8152602001620077b9604b9139602c620020be60201b60201c565b620010317fbd40add28615febf5bda18afea24c7908695210b0000000000005500000000016040518060800160405280604b815260200162006c4e604b9139602d620020be60201b60201c565b6200107e7fbd40add28615febf5bda18afea24c7908695210b0000000000005600000000016040518060800160405280604b815260200162007275604b9139602e620020be60201b60201c565b620010cb7fbd40add28615febf5bda18afea24c7908695210b0000000000005700000000016040518060800160405280604b8152602001620080cc604b9139602f620020be60201b60201c565b620011187fbd40add28615febf5bda18afea24c7908695210b0000000000005800000000016040518060800160405280604b81526020016200789a604b91396030620020be60201b60201c565b620011657fbd40add28615febf5bda18afea24c7908695210b0000000000005900000000016040518060800160405280604b8152602001620082d9604b91396031620020be60201b60201c565b620011b27fbd40add28615febf5bda18afea24c7908695210b0000000000005a00000000016040518060800160405280604b815260200162006ea6604b91396032620020be60201b60201c565b620011ff7fbd40add28615febf5bda18afea24c7908695210b0000000000005b00000000016040518060800160405280604b815260200162008162604b91396033620020be60201b60201c565b6200124c7fbd40add28615febf5bda18afea24c7908695210b0000000000005c00000000016040518060800160405280604b815260200162007ebf604b91396034620020be60201b60201c565b620012997fbd40add28615febf5bda18afea24c7908695210b0000000000005d00000000016040518060800160405280604b815260200162006e10604b91396035620020be60201b60201c565b620012e67fbd40add28615febf5bda18afea24c7908695210b0000000000005e00000000016040518060800160405280604b81526020016200784f604b91396036620020be60201b60201c565b620013337fbd40add28615febf5bda18afea24c7908695210b0000000000005f00000000016040518060800160405280604b815260200162007804604b91396037620020be60201b60201c565b620013807fbd40add28615febf5bda18afea24c7908695210b0000000000006000000000016040518060800160405280604b815260200162006916604b91396038620020be60201b60201c565b620013cd7fbd40add28615febf5bda18afea24c7908695210b0000000000006100000000016040518060800160405280604b815260200162007d93604b91396039620020be60201b60201c565b6200141a7fbd40add28615febf5bda18afea24c7908695210b0000000000006200000000016040518060800160405280604b8152602001620068cb604b9139603a620020be60201b60201c565b620014677fbd40add28615febf5bda18afea24c7908695210b0000000000006300000000016040518060800160405280604b815260200162008036604b9139603b620020be60201b60201c565b620014b47fbd40add28615febf5bda18afea24c7908695210b0000000000006400000000016040518060800160405280604b815260200162006fd2604b9139603c620020be60201b60201c565b620015017fbd40add28615febf5bda18afea24c7908695210b0000000000006500000000016040518060800160405280604b815260200162006d2f604b9139603d620020be60201b60201c565b6200154e7fbd40add28615febf5bda18afea24c7908695210b0000000000006600000000016040518060800160405280604b8152602001620078e5604b9139603e620020be60201b60201c565b6200159b7fbd40add28615febf5bda18afea24c7908695210b0000000000006700000000016040518060800160405280604b815260200162006961604b9139603f620020be60201b60201c565b620015e87fbd40add28615febf5bda18afea24c7908695210b0000000000006800000000016040518060800160405280604b815260200162007c1d604b91396040620020be60201b60201c565b620016357fbd40add28615febf5bda18afea24c7908695210b0000000000006900000000016040518060800160405280604b815260200162008081604b91396041620020be60201b60201c565b620016827fbd40add28615febf5bda18afea24c7908695210b0000000000006a00000000016040518060800160405280604b815260200162006b6d604b91396042620020be60201b60201c565b620016cf7fbd40add28615febf5bda18afea24c7908695210b0000000000006b00000000016040518060800160405280604b8152602001620073ec604b91396043620020be60201b60201c565b6200171c7fbd40add28615febf5bda18afea24c7908695210b0000000000006c00000000016040518060800160405280604b815260200162007af0604b91396044620020be60201b60201c565b620017697fbd40add28615febf5bda18afea24c7908695210b0000000000006d00000000016040518060800160405280604b81526020016200701d604b91396045620020be60201b60201c565b620017b67fbd40add28615febf5bda18afea24c7908695210b0000000000006e00000000016040518060800160405280604b815260200162007dde604b91396046620020be60201b60201c565b620018037fbd40add28615febf5bda18afea24c7908695210b0000000000006f00000000016040518060800160405280604b815260200162007b3b604b91396047620020be60201b60201c565b620018507fbd40add28615febf5bda18afea24c7908695210b0000000000007000000000016040518060800160405280604b815260200162007149604b91396048620020be60201b60201c565b6200189d7fbd40add28615febf5bda18afea24c7908695210b0000000000007100000000016040518060800160405280604b81526020016200776e604b91396049620020be60201b60201c565b620018ea7fbd40add28615febf5bda18afea24c7908695210b0000000000007200000000016040518060800160405280604b815260200162008117604b9139604a620020be60201b60201c565b620019377fbd40add28615febf5bda18afea24c7908695210b0000000000007300000000016040518060800160405280604b815260200162007d48604b9139604b620020be60201b60201c565b620019847fbd40add28615febf5bda18afea24c7908695210b0000000000007400000000016040518060800160405280604b81526020016200828e604b9139604c620020be60201b60201c565b620019d17fbd40add28615febf5bda18afea24c7908695210b0000000000007500000000016040518060800160405280604b8152602001620075ad604b9139604d620020be60201b60201c565b62001a1e7fbd40add28615febf5bda18afea24c7908695210b0000000000007600000000016040518060800160405280604b81526020016200844e604b9139604e620020be60201b60201c565b62001a6b7fbd40add28615febf5bda18afea24c7908695210b0000000000007700000000016040518060800160405280604b815260200162006ef1604b9139604f620020be60201b60201c565b62001ab87fbd40add28615febf5bda18afea24c7908695210b0000000000007800000000016040518060800160405280604b8152602001620084e3604b91396050620020be60201b60201c565b62001b057fbd40add28615febf5bda18afea24c7908695210b0000000000007900000000016040518060800160405280604b815260200162007482604b91396051620020be60201b60201c565b62001b527fbd40add28615febf5bda18afea24c7908695210b0000000000007a00000000016040518060800160405280604b815260200162007f0a604b91396052620020be60201b60201c565b62001b9f7fbd40add28615febf5bda18afea24c7908695210b0000000000007b00000000016040518060800160405280604b815260200162006c99604b91396053620020be60201b60201c565b62001bec7fbd40add28615febf5bda18afea24c7908695210b0000000000007c00000000016040518060800160405280604b815260200162007e29604b91396054620020be60201b60201c565b62001c397fbd40add28615febf5bda18afea24c7908695210b0000000000007d00000000016040518060800160405280604b815260200162007930604b91396055620020be60201b60201c565b62001c867fbd40add28615febf5bda18afea24c7908695210b0000000000007e00000000016040518060800160405280604b815260200162006b22604b91396056620020be60201b60201c565b62001cd37fbd40add28615febf5bda18afea24c7908695210b0000000000007f00000000016040518060800160405280604b815260200162006f87604b91396057620020be60201b60201c565b62001d207fbd40add28615febf5bda18afea24c7908695210b0000000000008000000000016040518060800160405280604b815260200162007194604b91396058620020be60201b60201c565b62001d6d7fbd40add28615febf5bda18afea24c7908695210b0000000000008100000000016040518060800160405280604b815260200162007e74604b91396059620020be60201b60201c565b62001dba7fbd40add28615febf5bda18afea24c7908695210b0000000000008200000000016040518060800160405280604b8152602001620072c0604b9139605a620020be60201b60201c565b62001e077fbd40add28615febf5bda18afea24c7908695210b0000000000008300000000016040518060800160405280604b815260200162007437604b9139605b620020be60201b60201c565b62001e547fbd40add28615febf5bda18afea24c7908695210b0000000000008400000000016040518060800160405280604b81526020016200852e604b9139605c620020be60201b60201c565b62001ea17fbd40add28615febf5bda18afea24c7908695210b0000000000008500000000016040518060800160405280604b81526020016200722a604b9139605d620020be60201b60201c565b62001eee7fbd40add28615febf5bda18afea24c7908695210b0000000000008600000000016040518060800160405280604b815260200162006ad7604b9139605e620020be60201b60201c565b62001f3b7fbd40add28615febf5bda18afea24c7908695210b0000000000008700000000016040518060800160405280604b81526020016200836f604b9139605f620020be60201b60201c565b62001f887fbd40add28615febf5bda18afea24c7908695210b0000000000008800000000016040518060800160405280604b815260200162006a8c604b91396060620020be60201b60201c565b62001fd57fbd40add28615febf5bda18afea24c7908695210b0000000000008900000000016040518060800160405280604b815260200162006e5b604b91396061620020be60201b60201c565b620020227fbd40add28615febf5bda18afea24c7908695210b0000000000008a00000000016040518060800160405280604b815260200162007cfd604b91396062620020be60201b60201c565b6200206f7fbd40add28615febf5bda18afea24c7908695210b0000000000008b00000000016040518060800160405280604b815260200162007068604b91396063620020be60201b60201c565b620020bc7fbd40add28615febf5bda18afea24c7908695210b0000000000008c00000000016040518060800160405280604c815260200162007bd1604c91396064620020be60201b60201c565b565b620020ce620001b060201b60201c565b73ffffffffffffffffffffffffffffffffffffffff16620020f46200027e60201b60201c565b73ffffffffffffffffffffffffffffffffffffffff16146200214d576040517f08c379a0000000000000000000000000000000000000000000000000000000008152600401620021449062002318565b60405180910390fd5b6008839080600181540180825580915050600190039060005260206000200160009091909190915055806009600085815260200190815260200160002060006101000a81548161ffff021916908361ffff160217905550600b8190806001815401808255809150506001900390600052602060002090601091828204019190066002029091909190916101000a81548161ffff021916908361ffff16021790555081600760008361ffff16815260200190815260200160002090805190602001906200221b92919062002241565b5082600a60008361ffff1661ffff16815260200190815260200160002081905550505050565b8280546200224f906200234b565b90600052602060002090601f016020900481019282620022735760008555620022bf565b82601f106200228e57805160ff1916838001178555620022bf565b82800160010185558215620022bf579182015b82811115620022be578251825591602001919060010190620022a1565b5b509050620022ce9190620022d2565b5090565b5b80821115620022ed576000816000905550600101620022d3565b5090565b6000620023006020836200233a565b91506200230d82620023b0565b602082019050919050565b600060208201905081810360008301526200233381620022f1565b9050919050565b600082825260208201905092915050565b600060028204905060018216806200236457607f821691505b602082108114156200237b576200237a62002381565b5b50919050565b7f4e487b7100000000000000000000000000000000000000000000000000000000600052602260045260246000fd5b7f4f776e61626c653a2063616c6c6572206973206e6f7420746865206f776e6572600082015250565b6144e280620023e96000396000f3fe608060405234801561001057600080fd5b50600436106101425760003560e01c80635e8e733b116100b857806399d2b1b11161007c57806399d2b1b114610353578063a88d2c291461036f578063bc197c811461038b578063f12c5869146103bb578063f23a6e61146103d7578063f2fde38b1461040757610142565b80635e8e733b146102d5578063638d23e6146102f35780636df6149a1461030f578063715018a61461032b5780638da5cb5b1461033557610142565b8063182da92d1161010a578063182da92d146102115780632b1056631461022d57806335b9dec91461024b57806338960930146102695780634d7b9bd51461028757806354ffbf07146102b757610142565b806301ffc9a714610147578063037679e914610177578063037eb7f9146101a7578063040e55f5146101c3578063150b7a02146101e1575b600080fd5b610161600480360381019061015c919061329d565b610423565b60405161016e9190613926565b60405180910390f35b610191600480360381019061018c91906132ca565b61049d565b60405161019e9190613926565b60405180910390f35b6101c160048036038101906101bc9190613324565b610555565b005b6101cb6107ad565b6040516101d89190613b3c565b60405180910390f35b6101fb60048036038101906101f69190613116565b6107d3565b6040516102089190613941565b60405180910390f35b61022b60048036038101906102269190612fed565b610982565b005b610235610afe565b6040516102429190613904565b60405180910390f35b610253610cdb565b60405161026091906138e2565b60405180910390f35b610271610d69565b60405161027e919061380f565b60405180910390f35b6102a1600480360381019061029c9190613230565b610d93565b6040516102ae9190613b57565b60405180910390f35b6102bf610f70565b6040516102cc9190613904565b60405180910390f35b6102dd611063565b6040516102ea919061380f565b60405180910390f35b61030d60048036038101906103089190613324565b61108d565b005b61032960048036038101906103249190612fed565b6112e2565b005b610333611412565b005b61033d61149a565b60405161034a919061380f565b60405180910390f35b61036d600480360381019061036891906133d3565b6114c4565b005b61038960048036038101906103849190613364565b611632565b005b6103a560048036038101906103a09190613047565b611a92565b6040516103b29190613941565b60405180910390f35b6103d560048036038101906103d09190612fed565b611aa7565b005b6103f160048036038101906103ec9190613199565b611bd7565b6040516103fe9190613941565b60405180910390f35b610421600480360381019061041c9190612fed565b611c6d565b005b60007f4e2312e0000000000000000000000000000000000000000000000000000000007bffffffffffffffffffffffffffffffffffffffffffffffffffffffff1916827bffffffffffffffffffffffffffffffffffffffffffffffffffffffff19161480610496575061049582611d65565b5b9050919050565b600080600260009054906101000a900473ffffffffffffffffffffffffffffffffffffffff1673ffffffffffffffffffffffffffffffffffffffff1662fdd58e33856040518363ffffffff1660e01b81526004016104fc9291906138b9565b60206040518083038186803b15801561051457600080fd5b505afa158015610528573d6000803e3d6000fd5b505050506040513d601f19601f8201168201806040525081019061054c91906132f7565b14159050919050565b61055d611dcf565b73ffffffffffffffffffffffffffffffffffffffff1661057b61149a565b73ffffffffffffffffffffffffffffffffffffffff16146105d1576040517f08c379a00000000000000000000000000000000000000000000000000000000081526004016105c890613a7c565b60405180910390fd5b816000805b600b80549050816fffffffffffffffffffffffffffffffff1610156106625782600b826fffffffffffffffffffffffffffffffff168154811061061c5761061b613f33565b5b90600052602060002090601091828204019190066002029054906101000a900461ffff1661ffff16141561064f57600191505b808061065a90613e9c565b9150506105d6565b50806106a3576040517f08c379a000000000000000000000000000000000000000000000000000000000815260040161069a90613a1c565b60405180910390fd5b600073ffffffffffffffffffffffffffffffffffffffff168373ffffffffffffffffffffffffffffffffffffffff161415610713576040517f08c379a000000000000000000000000000000000000000000000000000000000815260040161070a90613a9c565b60405180910390fd5b600260009054906101000a900473ffffffffffffffffffffffffffffffffffffffff1673ffffffffffffffffffffffffffffffffffffffff1663f242432a30858760016040518563ffffffff1660e01b81526004016107759493929190613861565b600060405180830381600087803b15801561078f57600080fd5b505af11580156107a3573d6000803e3d6000fd5b5050505050505050565b6000600360009054906101000a90046fffffffffffffffffffffffffffffffff16905090565b60008073ffffffffffffffffffffffffffffffffffffffff168573ffffffffffffffffffffffffffffffffffffffff161415610844576040517f08c379a000000000000000000000000000000000000000000000000000000000815260040161083b906139fc565b60405180910390fd5b3073ffffffffffffffffffffffffffffffffffffffff168573ffffffffffffffffffffffffffffffffffffffff16141561088b5761088485858585611dd7565b905061097a565b61ffff80168311156108d2576040517f08c379a00000000000000000000000000000000000000000000000000000000081526004016108c990613adc565b60405180910390fd5b3073ffffffffffffffffffffffffffffffffffffffff168573ffffffffffffffffffffffffffffffffffffffff16146109105761090f8584611deb565b5b828473ffffffffffffffffffffffffffffffffffffffff168673ffffffffffffffffffffffffffffffffffffffff167f8b4cef469eefc3a170ec7442a9c195091083f374fe03cc766d3f998d41f1e3cc60405160405180910390a461097785858585611dd7565b90505b949350505050565b61098a611dcf565b73ffffffffffffffffffffffffffffffffffffffff166109a861149a565b73ffffffffffffffffffffffffffffffffffffffff16146109fe576040517f08c379a00000000000000000000000000000000000000000000000000000000081526004016109f590613a7c565b60405180910390fd5b600073ffffffffffffffffffffffffffffffffffffffff168173ffffffffffffffffffffffffffffffffffffffff161415610a6e576040517f08c379a0000000000000000000000000000000000000000000000000000000008152600401610a659061395c565b60405180910390fd5b600660009054906101000a900473ffffffffffffffffffffffffffffffffffffffff1673ffffffffffffffffffffffffffffffffffffffff1663f2fde38b826040518263ffffffff1660e01b8152600401610ac9919061380f565b600060405180830381600087803b158015610ae357600080fd5b505af1158015610af7573d6000803e3d6000fd5b5050505050565b60606000600360009054906101000a90046fffffffffffffffffffffffffffffffff166fffffffffffffffffffffffffffffffff1667ffffffffffffffff811115610b4c57610b4b613f62565b5b604051908082528060200260200182016040528015610b7a5781602001602082028036833780820191505090505b50905060005b600360009054906101000a90046fffffffffffffffffffffffffffffffff166fffffffffffffffffffffffffffffffff16816fffffffffffffffffffffffffffffffff161015610cd35760056000826fffffffffffffffffffffffffffffffff166fffffffffffffffffffffffffffffffff16815260200190815260200160002060006004836fffffffffffffffffffffffffffffffff1681548110610c2957610c28613f33565b5b9060005260206000200160009054906101000a900473ffffffffffffffffffffffffffffffffffffffff1673ffffffffffffffffffffffffffffffffffffffff1673ffffffffffffffffffffffffffffffffffffffff1681526020019081526020016000205482826fffffffffffffffffffffffffffffffff1681518110610cb457610cb3613f33565b5b6020026020010181815250508080610ccb90613e9c565b915050610b80565b508091505090565b60606004805480602002602001604051908101604052809291908181526020018280548015610d5f57602002820191906000526020600020905b8160009054906101000a900473ffffffffffffffffffffffffffffffffffffffff1673ffffffffffffffffffffffffffffffffffffffff1681526020019060010190808311610d15575b5050505050905090565b6000600260009054906101000a900473ffffffffffffffffffffffffffffffffffffffff16905090565b6000816000805b600880549050816fffffffffffffffffffffffffffffffff161015610e0957826008826fffffffffffffffffffffffffffffffff1681548110610de057610ddf613f33565b5b90600052602060002001541415610df657600191505b8080610e0190613e9c565b915050610d9a565b5080610e4a576040517f08c379a0000000000000000000000000000000000000000000000000000000008152600401610e4190613afc565b60405180910390fd5b600073ffffffffffffffffffffffffffffffffffffffff168573ffffffffffffffffffffffffffffffffffffffff161415610eba576040517f08c379a0000000000000000000000000000000000000000000000000000000008152600401610eb190613a5c565b60405180910390fd5b600260009054906101000a900473ffffffffffffffffffffffffffffffffffffffff1673ffffffffffffffffffffffffffffffffffffffff1662fdd58e86866040518363ffffffff1660e01b8152600401610f169291906138b9565b60206040518083038186803b158015610f2e57600080fd5b505afa158015610f42573d6000803e3d6000fd5b505050506040513d601f19601f82011682018060405250810190610f6691906132f7565b9250505092915050565b60606000600c8054905067ffffffffffffffff811115610f9357610f92613f62565b5b604051908082528060200260200182016040528015610fc15781602001602082028036833780820191505090505b50905060005b600c80549050816fffffffffffffffffffffffffffffffff16101561105b57600c816fffffffffffffffffffffffffffffffff168154811061100c5761100b613f33565b5b906000526020600020015482826fffffffffffffffffffffffffffffffff168151811061103c5761103b613f33565b5b602002602001018181525050808061105390613e9c565b915050610fc7565b508091505090565b6000600660009054906101000a900473ffffffffffffffffffffffffffffffffffffffff16905090565b611095611dcf565b73ffffffffffffffffffffffffffffffffffffffff166110b361149a565b73ffffffffffffffffffffffffffffffffffffffff1614611109576040517f08c379a000000000000000000000000000000000000000000000000000000000815260040161110090613a7c565b60405180910390fd5b816000805b600b80549050816fffffffffffffffffffffffffffffffff16101561119a5782600b826fffffffffffffffffffffffffffffffff168154811061115457611153613f33565b5b90600052602060002090601091828204019190066002029054906101000a900461ffff1661ffff16141561118757600191505b808061119290613e9c565b91505061110e565b50806111db576040517f08c379a00000000000000000000000000000000000000000000000000000000081526004016111d290613a1c565b60405180910390fd5b600073ffffffffffffffffffffffffffffffffffffffff168373ffffffffffffffffffffffffffffffffffffffff16141561124b576040517f08c379a0000000000000000000000000000000000000000000000000000000008152600401611242906139dc565b60405180910390fd5b600660009054906101000a900473ffffffffffffffffffffffffffffffffffffffff1673ffffffffffffffffffffffffffffffffffffffff166342842e0e3085876040518463ffffffff1660e01b81526004016112aa9392919061382a565b600060405180830381600087803b1580156112c457600080fd5b505af11580156112d8573d6000803e3d6000fd5b5050505050505050565b6112ea611dcf565b73ffffffffffffffffffffffffffffffffffffffff1661130861149a565b73ffffffffffffffffffffffffffffffffffffffff161461135e576040517f08c379a000000000000000000000000000000000000000000000000000000000815260040161135590613a7c565b60405180910390fd5b600073ffffffffffffffffffffffffffffffffffffffff168173ffffffffffffffffffffffffffffffffffffffff1614156113ce576040517f08c379a00000000000000000000000000000000000000000000000000000000081526004016113c59061399c565b60405180910390fd5b80600260006101000a81548173ffffffffffffffffffffffffffffffffffffffff021916908373ffffffffffffffffffffffffffffffffffffffff16021790555050565b61141a611dcf565b73ffffffffffffffffffffffffffffffffffffffff1661143861149a565b73ffffffffffffffffffffffffffffffffffffffff161461148e576040517f08c379a000000000000000000000000000000000000000000000000000000000815260040161148590613a7c565b60405180910390fd5b611498600061207d565b565b6000600160009054906101000a900473ffffffffffffffffffffffffffffffffffffffff16905090565b6114cc611dcf565b73ffffffffffffffffffffffffffffffffffffffff166114ea61149a565b73ffffffffffffffffffffffffffffffffffffffff1614611540576040517f08c379a000000000000000000000000000000000000000000000000000000000815260040161153790613a7c565b60405180910390fd5b6008839080600181540180825580915050600190039060005260206000200160009091909190915055806009600085815260200190815260200160002060006101000a81548161ffff021916908361ffff160217905550600b8190806001815401808255809150506001900390600052602060002090601091828204019190066002029091909190916101000a81548161ffff021916908361ffff16021790555081600760008361ffff168152602001908152602001600020908051906020019061160c929190612d39565b5082600a60008361ffff1661ffff16815260200190815260200160002081905550505050565b61163a611dcf565b73ffffffffffffffffffffffffffffffffffffffff1661165861149a565b73ffffffffffffffffffffffffffffffffffffffff16146116ae576040517f08c379a00000000000000000000000000000000000000000000000000000000081526004016116a590613a7c565b60405180910390fd5b600073ffffffffffffffffffffffffffffffffffffffff168173ffffffffffffffffffffffffffffffffffffffff16141561171e576040517f08c379a0000000000000000000000000000000000000000000000000000000008152600401611715906139bc565b60405180910390fd5b600660009054906101000a900473ffffffffffffffffffffffffffffffffffffffff1673ffffffffffffffffffffffffffffffffffffffff16634f558e79846040518263ffffffff1660e01b81526004016117799190613b57565b60206040518083038186803b15801561179157600080fd5b505afa1580156117a5573d6000803e3d6000fd5b505050506040513d601f19601f820116820180604052508101906117c99190613270565b80156118aa57503073ffffffffffffffffffffffffffffffffffffffff16600660009054906101000a900473ffffffffffffffffffffffffffffffffffffffff1673ffffffffffffffffffffffffffffffffffffffff16636352211e856040518263ffffffff1660e01b81526004016118429190613b57565b60206040518083038186803b15801561185a57600080fd5b505afa15801561186e573d6000803e3d6000fd5b505050506040513d601f19601f82011682018060405250810190611892919061301a565b73ffffffffffffffffffffffffffffffffffffffff16145b1561194557600660009054906101000a900473ffffffffffffffffffffffffffffffffffffffff1673ffffffffffffffffffffffffffffffffffffffff166342842e0e3083866040518463ffffffff1660e01b815260040161190e9392919061382a565b600060405180830381600087803b15801561192857600080fd5b505af115801561193c573d6000803e3d6000fd5b50505050611a8d565b600660009054906101000a900473ffffffffffffffffffffffffffffffffffffffff1673ffffffffffffffffffffffffffffffffffffffff16634f558e79846040518263ffffffff1660e01b81526004016119a09190613b57565b60206040518083038186803b1580156119b857600080fd5b505afa1580156119cc573d6000803e3d6000fd5b505050506040513d601f19601f820116820180604052508101906119f09190613270565b15611a30576040517f08c379a0000000000000000000000000000000000000000000000000000000008152600401611a2790613b1c565b60405180910390fd5b611a3b838284612143565b600c83908060018154018082558091505060019003906000526020600020016000909190919091505581600760008581526020019081526020016000209080519060200190611a8b929190612d39565b505b505050565b600063bc197c8160e01b905095945050505050565b611aaf611dcf565b73ffffffffffffffffffffffffffffffffffffffff16611acd61149a565b73ffffffffffffffffffffffffffffffffffffffff1614611b23576040517f08c379a0000000000000000000000000000000000000000000000000000000008152600401611b1a90613a7c565b60405180910390fd5b600073ffffffffffffffffffffffffffffffffffffffff168173ffffffffffffffffffffffffffffffffffffffff161415611b93576040517f08c379a0000000000000000000000000000000000000000000000000000000008152600401611b8a90613a3c565b60405180910390fd5b80600660006101000a81548173ffffffffffffffffffffffffffffffffffffffff021916908373ffffffffffffffffffffffffffffffffffffffff16021790555050565b6000611be3868561233b565b50611bee86856126d8565b50838573ffffffffffffffffffffffffffffffffffffffff168773ffffffffffffffffffffffffffffffffffffffff167f6304c1ee3c752f0228b32650bfddc4332b2a60084c685fdd9e9ee74201fa6e6f86604051611c4d9190613b57565b60405180910390a4611c628686868686612bab565b905095945050505050565b611c75611dcf565b73ffffffffffffffffffffffffffffffffffffffff16611c9361149a565b73ffffffffffffffffffffffffffffffffffffffff1614611ce9576040517f08c379a0000000000000000000000000000000000000000000000000000000008152600401611ce090613a7c565b60405180910390fd5b600073ffffffffffffffffffffffffffffffffffffffff168173ffffffffffffffffffffffffffffffffffffffff161415611d59576040517f08c379a0000000000000000000000000000000000000000000000000000000008152600401611d509061397c565b60405180910390fd5b611d628161207d565b50565b60007f01ffc9a7000000000000000000000000000000000000000000000000000000007bffffffffffffffffffffffffffffffffffffffffffffffffffffffff1916827bffffffffffffffffffffffffffffffffffffffffffffffffffffffff1916149050919050565b600033905090565b600063150b7a0260e01b9050949350505050565b806000805b600b80549050816fffffffffffffffffffffffffffffffff161015611e7c5782600b826fffffffffffffffffffffffffffffffff1681548110611e3657611e35613f33565b5b90600052602060002090601091828204019190066002029054906101000a900461ffff1661ffff161415611e6957600191505b8080611e7490613e9c565b915050611df0565b5080611ebd576040517f08c379a0000000000000000000000000000000000000000000000000000000008152600401611eb490613a1c565b60405180910390fd5b60005b600480549050816effffffffffffffffffffffffffffff161015611fc7578473ffffffffffffffffffffffffffffffffffffffff166004826effffffffffffffffffffffffffffff1681548110611f1a57611f19613f33565b5b9060005260206000200160009054906101000a900473ffffffffffffffffffffffffffffffffffffffff1673ffffffffffffffffffffffffffffffffffffffff161415611fb4576004816effffffffffffffffffffffffffffff1681548110611f8657611f85613f33565b5b9060005260206000200160006101000a81549073ffffffffffffffffffffffffffffffffffffffff02191690555b8080611fbf90613e64565b915050611ec0565b50600260009054906101000a900473ffffffffffffffffffffffffffffffffffffffff1673ffffffffffffffffffffffffffffffffffffffff1663f242432a3086600a60008861ffff1661ffff1681526020019081526020016000205460016040518563ffffffff1660e01b81526004016120459493929190613861565b600060405180830381600087803b15801561205f57600080fd5b505af1158015612073573d6000803e3d6000fd5b5050505050505050565b6000600160009054906101000a900473ffffffffffffffffffffffffffffffffffffffff16905081600160006101000a81548173ffffffffffffffffffffffffffffffffffffffff021916908373ffffffffffffffffffffffffffffffffffffffff1602179055508173ffffffffffffffffffffffffffffffffffffffff168173ffffffffffffffffffffffffffffffffffffffff167f8be0079c531659141344cd1fd0a4f28419497f9722a3daafe3b4186f6b6457e060405160405180910390a35050565b600660009054906101000a900473ffffffffffffffffffffffffffffffffffffffff1673ffffffffffffffffffffffffffffffffffffffff166340c10f1930856040518363ffffffff1660e01b81526004016121a09291906138b9565b600060405180830381600087803b1580156121ba57600080fd5b505af11580156121ce573d6000803e3d6000fd5b50505050600660009054906101000a900473ffffffffffffffffffffffffffffffffffffffff1673ffffffffffffffffffffffffffffffffffffffff166357f7789e84836040518363ffffffff1660e01b815260040161222f929190613b72565b600060405180830381600087803b15801561224957600080fd5b505af115801561225d573d6000803e3d6000fd5b50505050600660009054906101000a900473ffffffffffffffffffffffffffffffffffffffff1673ffffffffffffffffffffffffffffffffffffffff166342842e0e3084866040518463ffffffff1660e01b81526004016122c09392919061382a565b600060405180830381600087803b1580156122da57600080fd5b505af11580156122ee573d6000803e3d6000fd5b50505050828273ffffffffffffffffffffffffffffffffffffffff167fc9df5098516ab2a8b9281c29482b47b41af365e6e56ecb40909bdc960bda328160405160405180910390a3505050565b6000816000805b600880549050816fffffffffffffffffffffffffffffffff1610156123b157826008826fffffffffffffffffffffffffffffffff168154811061238857612387613f33565b5b9060005260206000200154141561239e57600191505b80806123a990613e9c565b915050612342565b50806123f2576040517f08c379a00000000000000000000000000000000000000000000000000000000081526004016123e990613afc565b60405180910390fd5b600073ffffffffffffffffffffffffffffffffffffffff168573ffffffffffffffffffffffffffffffffffffffff161415612462576040517f08c379a0000000000000000000000000000000000000000000000000000000008152600401612459906139fc565b60405180910390fd5b6000600260009054906101000a900473ffffffffffffffffffffffffffffffffffffffff1673ffffffffffffffffffffffffffffffffffffffff1662fdd58e30876040518363ffffffff1660e01b81526004016124c09291906138b9565b60206040518083038186803b1580156124d857600080fd5b505afa1580156124ec573d6000803e3d6000fd5b505050506040513d601f19601f8201168201806040525081019061251091906132f7565b11612550576040517f08c379a000000000000000000000000000000000000000000000000000000000815260040161254790613abc565b60405180910390fd5b6004859080600181540180825580915050600190039060005260206000200160009091909190916101000a81548173ffffffffffffffffffffffffffffffffffffffff021916908373ffffffffffffffffffffffffffffffffffffffff1602179055508360056000600360009054906101000a90046fffffffffffffffffffffffffffffffff166fffffffffffffffffffffffffffffffff166fffffffffffffffffffffffffffffffff16815260200190815260200160002060008773ffffffffffffffffffffffffffffffffffffffff1673ffffffffffffffffffffffffffffffffffffffff168152602001908152602001600020819055506003600081819054906101000a90046fffffffffffffffffffffffffffffffff168092919061267890613e9c565b91906101000a8154816fffffffffffffffffffffffffffffffff02191690836fffffffffffffffffffffffffffffffff16021790555050600360009054906101000a90046fffffffffffffffffffffffffffffffff169250505092915050565b6000816000805b600880549050816fffffffffffffffffffffffffffffffff16101561274e57826008826fffffffffffffffffffffffffffffffff168154811061272557612724613f33565b5b9060005260206000200154141561273b57600191505b808061274690613e9c565b9150506126df565b508061278f576040517f08c379a000000000000000000000000000000000000000000000000000000000815260040161278690613afc565b60405180910390fd5b600073ffffffffffffffffffffffffffffffffffffffff168573ffffffffffffffffffffffffffffffffffffffff1614156127ff576040517f08c379a00000000000000000000000000000000000000000000000000000000081526004016127f6906139bc565b60405180910390fd5b60006009600086815260200190815260200160002060009054906101000a900461ffff1661ffff169050600660009054906101000a900473ffffffffffffffffffffffffffffffffffffffff1673ffffffffffffffffffffffffffffffffffffffff16634f558e79826040518263ffffffff1660e01b81526004016128849190613b57565b60206040518083038186803b15801561289c57600080fd5b505afa1580156128b0573d6000803e3d6000fd5b505050506040513d601f19601f820116820180604052508101906128d49190613270565b80156129b557503073ffffffffffffffffffffffffffffffffffffffff16600660009054906101000a900473ffffffffffffffffffffffffffffffffffffffff1673ffffffffffffffffffffffffffffffffffffffff16636352211e836040518263ffffffff1660e01b815260040161294d9190613b57565b60206040518083038186803b15801561296557600080fd5b505afa158015612979573d6000803e3d6000fd5b505050506040513d601f19601f8201168201806040525081019061299d919061301a565b73ffffffffffffffffffffffffffffffffffffffff16145b15612a5557600660009054906101000a900473ffffffffffffffffffffffffffffffffffffffff1673ffffffffffffffffffffffffffffffffffffffff166342842e0e3088846040518463ffffffff1660e01b8152600401612a199392919061382a565b600060405180830381600087803b158015612a3357600080fd5b505af1158015612a47573d6000803e3d6000fd5b505050506001935050612ba3565b600660009054906101000a900473ffffffffffffffffffffffffffffffffffffffff1673ffffffffffffffffffffffffffffffffffffffff16634f558e79826040518263ffffffff1660e01b8152600401612ab09190613b57565b60206040518083038186803b158015612ac857600080fd5b505afa158015612adc573d6000803e3d6000fd5b505050506040513d601f19601f82011682018060405250810190612b009190613270565b15612b40576040517f08c379a0000000000000000000000000000000000000000000000000000000008152600401612b3790613b1c565b60405180910390fd5b6000811415612b84576040517f08c379a0000000000000000000000000000000000000000000000000000000008152600401612b7b90613a1c565b60405180910390fd5b6000612b8f82612bc0565b9050612b9c828883612143565b6001945050505b505092915050565b600063f23a6e6160e01b905095945050505050565b6060816000805b600b80549050816fffffffffffffffffffffffffffffffff161015612c535782600b826fffffffffffffffffffffffffffffffff1681548110612c0d57612c0c613f33565b5b90600052602060002090601091828204019190066002029054906101000a900461ffff1661ffff161415612c4057600191505b8080612c4b90613e9c565b915050612bc7565b5080612c94576040517f08c379a0000000000000000000000000000000000000000000000000000000008152600401612c8b90613a1c565b60405180910390fd5b600760008581526020019081526020016000208054612cb290613e01565b80601f0160208091040260200160405190810160405280929190818152602001828054612cde90613e01565b8015612d2b5780601f10612d0057610100808354040283529160200191612d2b565b820191906000526020600020905b815481529060010190602001808311612d0e57829003601f168201915b505050505092505050919050565b828054612d4590613e01565b90600052602060002090601f016020900481019282612d675760008555612dae565b82601f10612d8057805160ff1916838001178555612dae565b82800160010185558215612dae579182015b82811115612dad578251825591602001919060010190612d92565b5b509050612dbb9190612dbf565b5090565b5b80821115612dd8576000816000905550600101612dc0565b5090565b6000612def612dea84613bc7565b613ba2565b90508083825260208201905082856020860282011115612e1257612e11613f96565b5b60005b85811015612e425781612e288882612fc3565b845260208401935060208301925050600181019050612e15565b5050509392505050565b6000612e5f612e5a84613bf3565b613ba2565b905082815260208101848484011115612e7b57612e7a613f9b565b5b612e86848285613dbf565b509392505050565b6000612ea1612e9c84613c24565b613ba2565b905082815260208101848484011115612ebd57612ebc613f9b565b5b612ec8848285613dbf565b509392505050565b600081359050612edf81614439565b92915050565b600081519050612ef481614439565b92915050565b600082601f830112612f0f57612f0e613f91565b5b8135612f1f848260208601612ddc565b91505092915050565b600081519050612f3781614450565b92915050565b600081359050612f4c81614467565b92915050565b600082601f830112612f6757612f66613f91565b5b8135612f77848260208601612e4c565b91505092915050565b600082601f830112612f9557612f94613f91565b5b8135612fa5848260208601612e8e565b91505092915050565b600081359050612fbd8161447e565b92915050565b600081359050612fd281614495565b92915050565b600081519050612fe781614495565b92915050565b60006020828403121561300357613002613fa5565b5b600061301184828501612ed0565b91505092915050565b6000602082840312156130305761302f613fa5565b5b600061303e84828501612ee5565b91505092915050565b600080600080600060a0868803121561306357613062613fa5565b5b600061307188828901612ed0565b955050602061308288828901612ed0565b945050604086013567ffffffffffffffff8111156130a3576130a2613fa0565b5b6130af88828901612efa565b935050606086013567ffffffffffffffff8111156130d0576130cf613fa0565b5b6130dc88828901612efa565b925050608086013567ffffffffffffffff8111156130fd576130fc613fa0565b5b61310988828901612f52565b9150509295509295909350565b600080600080608085870312156131305761312f613fa5565b5b600061313e87828801612ed0565b945050602061314f87828801612ed0565b935050604061316087828801612fc3565b925050606085013567ffffffffffffffff81111561318157613180613fa0565b5b61318d87828801612f52565b91505092959194509250565b600080600080600060a086880312156131b5576131b4613fa5565b5b60006131c388828901612ed0565b95505060206131d488828901612ed0565b94505060406131e588828901612fc3565b93505060606131f688828901612fc3565b925050608086013567ffffffffffffffff81111561321757613216613fa0565b5b61322388828901612f52565b9150509295509295909350565b6000806040838503121561324757613246613fa5565b5b600061325585828601612ed0565b925050602061326685828601612fc3565b9150509250929050565b60006020828403121561328657613285613fa5565b5b600061329484828501612f28565b91505092915050565b6000602082840312156132b3576132b2613fa5565b5b60006132c184828501612f3d565b91505092915050565b6000602082840312156132e0576132df613fa5565b5b60006132ee84828501612fc3565b91505092915050565b60006020828403121561330d5761330c613fa5565b5b600061331b84828501612fd8565b91505092915050565b6000806040838503121561333b5761333a613fa5565b5b600061334985828601612fc3565b925050602061335a85828601612ed0565b9150509250929050565b60008060006060848603121561337d5761337c613fa5565b5b600061338b86828701612fc3565b935050602084013567ffffffffffffffff8111156133ac576133ab613fa0565b5b6133b886828701612f80565b92505060406133c986828701612ed0565b9150509250925092565b6000806000606084860312156133ec576133eb613fa5565b5b60006133fa86828701612fc3565b935050602084013567ffffffffffffffff81111561341b5761341a613fa0565b5b61342786828701612f80565b925050604061343886828701612fae565b9150509250925092565b600061344e8383613472565b60208301905092915050565b600061346683836137f1565b60208301905092915050565b61347b81613cf4565b82525050565b61348a81613cf4565b82525050565b600061349b82613c75565b6134a58185613cb0565b93506134b083613c55565b8060005b838110156134e15781516134c88882613442565b97506134d383613c96565b9250506001810190506134b4565b5085935050505092915050565b60006134f982613c80565b6135038185613cc1565b935061350e83613c65565b8060005b8381101561353f578151613526888261345a565b975061353183613ca3565b925050600181019050613512565b5085935050505092915050565b61355581613d06565b82525050565b61356481613d12565b82525050565b61357381613dad565b82525050565b600061358482613c8b565b61358e8185613ce3565b935061359e818560208601613dce565b6135a781613faa565b840191505092915050565b60006135bf603583613ce3565b91506135ca82613fbb565b604082019050919050565b60006135e2602683613ce3565b91506135ed8261400a565b604082019050919050565b6000613605603583613ce3565b915061361082614059565b604082019050919050565b6000613628603c83613ce3565b9150613633826140a8565b604082019050919050565b600061364b603e83613ce3565b9150613656826140f7565b604082019050919050565b600061366e603483613ce3565b915061367982614146565b604082019050919050565b6000613691602c83613ce3565b915061369c82614195565b604082019050919050565b60006136b4603b83613ce3565b91506136bf826141e4565b604082019050919050565b60006136d7603683613ce3565b91506136e282614233565b604082019050919050565b60006136fa602083613ce3565b915061370582614282565b602082019050919050565b600061371d603f83613ce3565b9150613728826142ab565b604082019050919050565b6000613740600083613cd2565b915061374b826142fa565b600082019050919050565b6000613763602c83613ce3565b915061376e826142fd565b604082019050919050565b6000613786602283613ce3565b91506137918261434c565b604082019050919050565b60006137a9602883613ce3565b91506137b48261439b565b604082019050919050565b60006137cc602483613ce3565b91506137d7826143ea565b604082019050919050565b6137eb81613d59565b82525050565b6137fa81613da3565b82525050565b61380981613da3565b82525050565b60006020820190506138246000830184613481565b92915050565b600060608201905061383f6000830186613481565b61384c6020830185613481565b6138596040830184613800565b949350505050565b600060a0820190506138766000830187613481565b6138836020830186613481565b6138906040830185613800565b61389d606083018461356a565b81810360808301526138ae81613733565b905095945050505050565b60006040820190506138ce6000830185613481565b6138db6020830184613800565b9392505050565b600060208201905081810360008301526138fc8184613490565b905092915050565b6000602082019050818103600083015261391e81846134ee565b905092915050565b600060208201905061393b600083018461354c565b92915050565b6000602082019050613956600083018461355b565b92915050565b60006020820190508181036000830152613975816135b2565b9050919050565b60006020820190508181036000830152613995816135d5565b9050919050565b600060208201905081810360008301526139b5816135f8565b9050919050565b600060208201905081810360008301526139d58161361b565b9050919050565b600060208201905081810360008301526139f58161363e565b9050919050565b60006020820190508181036000830152613a1581613661565b9050919050565b60006020820190508181036000830152613a3581613684565b9050919050565b60006020820190508181036000830152613a55816136a7565b9050919050565b60006020820190508181036000830152613a75816136ca565b9050919050565b60006020820190508181036000830152613a95816136ed565b9050919050565b60006020820190508181036000830152613ab581613710565b9050919050565b60006020820190508181036000830152613ad581613756565b9050919050565b60006020820190508181036000830152613af581613779565b9050919050565b60006020820190508181036000830152613b158161379c565b9050919050565b60006020820190508181036000830152613b35816137bf565b9050919050565b6000602082019050613b5160008301846137e2565b92915050565b6000602082019050613b6c6000830184613800565b92915050565b6000604082019050613b876000830185613800565b8181036020830152613b998184613579565b90509392505050565b6000613bac613bbd565b9050613bb88282613e33565b919050565b6000604051905090565b600067ffffffffffffffff821115613be257613be1613f62565b5b602082029050602081019050919050565b600067ffffffffffffffff821115613c0e57613c0d613f62565b5b613c1782613faa565b9050602081019050919050565b600067ffffffffffffffff821115613c3f57613c3e613f62565b5b613c4882613faa565b9050602081019050919050565b6000819050602082019050919050565b6000819050602082019050919050565b600081519050919050565b600081519050919050565b600081519050919050565b6000602082019050919050565b6000602082019050919050565b600082825260208201905092915050565b600082825260208201905092915050565b600082825260208201905092915050565b600082825260208201905092915050565b6000613cff82613d83565b9050919050565b60008115159050919050565b60007fffffffff0000000000000000000000000000000000000000000000000000000082169050919050565b60006effffffffffffffffffffffffffffff82169050919050565b60006fffffffffffffffffffffffffffffffff82169050919050565b600061ffff82169050919050565b600073ffffffffffffffffffffffffffffffffffffffff82169050919050565b6000819050919050565b6000613db882613da3565b9050919050565b82818337600083830152505050565b60005b83811015613dec578082015181840152602081019050613dd1565b83811115613dfb576000848401525b50505050565b60006002820490506001821680613e1957607f821691505b60208210811415613e2d57613e2c613f04565b5b50919050565b613e3c82613faa565b810181811067ffffffffffffffff82111715613e5b57613e5a613f62565b5b80604052505050565b6000613e6f82613d3e565b91506effffffffffffffffffffffffffffff821415613e9157613e90613ed5565b5b600182019050919050565b6000613ea782613d59565b91506fffffffffffffffffffffffffffffffff821415613eca57613ec9613ed5565b5b600182019050919050565b7f4e487b7100000000000000000000000000000000000000000000000000000000600052601160045260246000fd5b7f4e487b7100000000000000000000000000000000000000000000000000000000600052602260045260246000fd5b7f4e487b7100000000000000000000000000000000000000000000000000000000600052603260045260246000fd5b7f4e487b7100000000000000000000000000000000000000000000000000000000600052604160045260246000fd5b600080fd5b600080fd5b600080fd5b600080fd5b600080fd5b6000601f19601f8301169050919050565b7f42616443616368654272696467653a206e6577206f776e65722063616e206e6f60008201527f7420626520746865207a65726f20616464726573730000000000000000000000602082015250565b7f4f776e61626c653a206e6577206f776e657220697320746865207a65726f206160008201527f6464726573730000000000000000000000000000000000000000000000000000602082015250565b7f42616443616368654272696467653a2063616e206e6f7420736574206173207060008201527f726f7879207468652061646472657373207a65726f0000000000000000000000602082015250565b7f42616443616368654272696467653a2063616e206e6f74206d696e742061206e60008201527f657720746f6b656e20746f20746865207a65726f206164647265737300000000602082015250565b7f42616443616368654272696467653a2063616e206e6f742073656e642061204260008201527f6164436163686537323120746f207468652061646472657373207a65726f0000602082015250565b7f42616443616368654272696467653a2063616e206e6f7420757064617465206660008201527f726f6d20746865207a65726f2061646472657373000000000000000000000000602082015250565b7f42616443616368654272696467653a206e657720746f6b656e20696420646f6560008201527f73206e6f74206578697374730000000000000000000000000000000000000000602082015250565b7f42616443616368654272696467653a2063616e206e6f7420736574206173204260008201527f61644361636865373231207468652061646472657373207a65726f0000000000602082015250565b7f42616443616368654272696467653a2063616e206e6f7420636865636b20626160008201527f6c616e636520666f722061646472657373207a65726f00000000000000000000602082015250565b7f4f776e61626c653a2063616c6c6572206973206e6f7420746865206f776e6572600082015250565b7f42616443616368654272696467653a2063616e206e6f742073656e642061204260008201527f616443616368653131353520746f207468652061646472657373207a65726f00602082015250565b50565b7f42616443616368654272696467653a2054686973206973206e6f7420616e204f60008201527f70656e53656120746f6b656e0000000000000000000000000000000000000000602082015250565b7f42616443616368654272696467653a20546f6b656e206964206f766572666c6f60008201527f7773000000000000000000000000000000000000000000000000000000000000602082015250565b7f42616443616368654272696467653a20746f6b656e20696420646f6573206e6f60008201527f7420657869737473000000000000000000000000000000000000000000000000602082015250565b7f42616443616368654272696467653a20746f6b656e20616c7265616479206d6960008201527f6e74656400000000000000000000000000000000000000000000000000000000602082015250565b61444281613cf4565b811461444d57600080fd5b50565b61445981613d06565b811461446457600080fd5b50565b61447081613d12565b811461447b57600080fd5b50565b61448781613d75565b811461449257600080fd5b50565b61449e81613da3565b81146144a957600080fd5b5056fea2646970667358221220296f92d78c2035a76ef0150f9388dd68777e70263a69f96ebd6e6bd05de0eb0264736f6c6343000806003368747470733a2f2f697066732e696f2f697066732f516d5953554b6571354474384d325242743775396636335177577664504e61777236476a6334376a6461557235432f35382e6a736f6e68747470733a2f2f697066732e696f2f697066732f516d5953554b6571354474384d325242743775396636335177577664504e61777236476a6334376a6461557235432f35362e6a736f6e68747470733a2f2f697066732e696f2f697066732f516d5953554b6571354474384d325242743775396636335177577664504e61777236476a6334376a6461557235432f36332e6a736f6e68747470733a2f2f697066732e696f2f697066732f516d5953554b6571354474384d325242743775396636335177577664504e61777236476a6334376a6461557235432f33352e6a736f6e68747470733a2f2f697066732e696f2f697066732f516d5953554b6571354474384d325242743775396636335177577664504e61777236476a6334376a6461557235432f32302e6a736f6e68747470733a2f2f697066732e696f2f697066732f516d5953554b6571354474384d325242743775396636335177577664504e61777236476a6334376a6461557235432f332e6a736f6e68747470733a2f2f697066732e696f2f697066732f516d5953554b6571354474384d325242743775396636335177577664504e61777236476a6334376a6461557235432f39362e6a736f6e68747470733a2f2f697066732e696f2f697066732f516d5953554b6571354474384d325242743775396636335177577664504e61777236476a6334376a6461557235432f39342e6a736f6e68747470733a2f2f697066732e696f2f697066732f516d5953554b6571354474384d325242743775396636335177577664504e61777236476a6334376a6461557235432f38362e6a736f6e68747470733a2f2f697066732e696f2f697066732f516d5953554b6571354474384d325242743775396636335177577664504e61777236476a6334376a6461557235432f36362e6a736f6e68747470733a2f2f697066732e696f2f697066732f516d5953554b6571354474384d325242743775396636335177577664504e61777236476a6334376a6461557235432f34312e6a736f6e68747470733a2f2f697066732e696f2f697066732f516d5953554b6571354474384d325242743775396636335177577664504e61777236476a6334376a6461557235432f33312e6a736f6e68747470733a2f2f697066732e696f2f697066732f516d5953554b6571354474384d325242743775396636335177577664504e61777236476a6334376a6461557235432f34352e6a736f6e68747470733a2f2f697066732e696f2f697066732f516d5953554b6571354474384d325242743775396636335177577664504e61777236476a6334376a6461557235432f38332e6a736f6e68747470733a2f2f697066732e696f2f697066732f516d5953554b6571354474384d325242743775396636335177577664504e61777236476a6334376a6461557235432f32372e6a736f6e68747470733a2f2f697066732e696f2f697066732f516d5953554b6571354474384d325242743775396636335177577664504e61777236476a6334376a6461557235432f36312e6a736f6e68747470733a2f2f697066732e696f2f697066732f516d5953554b6571354474384d325242743775396636335177577664504e61777236476a6334376a6461557235432f32362e6a736f6e68747470733a2f2f697066732e696f2f697066732f516d5953554b6571354474384d325242743775396636335177577664504e61777236476a6334376a6461557235432f33302e6a736f6e68747470733a2f2f697066732e696f2f697066732f516d5953554b6571354474384d325242743775396636335177577664504e61777236476a6334376a6461557235432f35332e6a736f6e68747470733a2f2f697066732e696f2f697066732f516d5953554b6571354474384d325242743775396636335177577664504e61777236476a6334376a6461557235432f39372e6a736f6e68747470733a2f2f697066732e696f2f697066732f516d5953554b6571354474384d325242743775396636335177577664504e61777236476a6334376a6461557235432f35302e6a736f6e68747470733a2f2f697066732e696f2f697066732f516d5953554b6571354474384d325242743775396636335177577664504e61777236476a6334376a6461557235432f37392e6a736f6e68747470733a2f2f697066732e696f2f697066732f516d5953554b6571354474384d325242743775396636335177577664504e61777236476a6334376a6461557235432f32312e6a736f6e68747470733a2f2f697066732e696f2f697066732f516d5953554b6571354474384d325242743775396636335177577664504e61777236476a6334376a6461557235432f38372e6a736f6e68747470733a2f2f697066732e696f2f697066732f516d5953554b6571354474384d325242743775396636335177577664504e61777236476a6334376a6461557235432f36302e6a736f6e68747470733a2f2f697066732e696f2f697066732f516d5953554b6571354474384d325242743775396636335177577664504e61777236476a6334376a6461557235432f36392e6a736f6e68747470733a2f2f697066732e696f2f697066732f516d5953554b6571354474384d325242743775396636335177577664504e61777236476a6334376a6461557235432f39392e6a736f6e68747470733a2f2f697066732e696f2f697066732f516d5953554b6571354474384d325242743775396636335177577664504e61777236476a6334376a6461557235432f32342e6a736f6e68747470733a2f2f697066732e696f2f697066732f516d5953554b6571354474384d325242743775396636335177577664504e61777236476a6334376a6461557235432f32352e6a736f6e68747470733a2f2f697066732e696f2f697066732f516d5953554b6571354474384d325242743775396636335177577664504e61777236476a6334376a6461557235432f37322e6a736f6e68747470733a2f2f697066732e696f2f697066732f516d5953554b6571354474384d325242743775396636335177577664504e61777236476a6334376a6461557235432f38382e6a736f6e68747470733a2f2f697066732e696f2f697066732f516d5953554b6571354474384d325242743775396636335177577664504e61777236476a6334376a6461557235432f31362e6a736f6e68747470733a2f2f697066732e696f2f697066732f516d5953554b6571354474384d325242743775396636335177577664504e61777236476a6334376a6461557235432f39332e6a736f6e68747470733a2f2f697066732e696f2f697066732f516d5953554b6571354474384d325242743775396636335177577664504e61777236476a6334376a6461557235432f34362e6a736f6e68747470733a2f2f697066732e696f2f697066732f516d5953554b6571354474384d325242743775396636335177577664504e61777236476a6334376a6461557235432f39302e6a736f6e68747470733a2f2f697066732e696f2f697066732f516d5953554b6571354474384d325242743775396636335177577664504e61777236476a6334376a6461557235432f31332e6a736f6e68747470733a2f2f697066732e696f2f697066732f516d5953554b6571354474384d325242743775396636335177577664504e61777236476a6334376a6461557235432f33382e6a736f6e68747470733a2f2f697066732e696f2f697066732f516d5953554b6571354474384d325242743775396636335177577664504e61777236476a6334376a6461557235432f31342e6a736f6e68747470733a2f2f697066732e696f2f697066732f516d5953554b6571354474384d325242743775396636335177577664504e61777236476a6334376a6461557235432f36372e6a736f6e68747470733a2f2f697066732e696f2f697066732f516d5953554b6571354474384d325242743775396636335177577664504e61777236476a6334376a6461557235432f39312e6a736f6e68747470733a2f2f697066732e696f2f697066732f516d5953554b6571354474384d325242743775396636335177577664504e61777236476a6334376a6461557235432f38312e6a736f6e68747470733a2f2f697066732e696f2f697066732f516d5953554b6571354474384d325242743775396636335177577664504e61777236476a6334376a6461557235432f352e6a736f6e68747470733a2f2f697066732e696f2f697066732f516d5953554b6571354474384d325242743775396636335177577664504e61777236476a6334376a6461557235432f33342e6a736f6e68747470733a2f2f697066732e696f2f697066732f516d5953554b6571354474384d325242743775396636335177577664504e61777236476a6334376a6461557235432f31372e6a736f6e68747470733a2f2f697066732e696f2f697066732f516d5953554b6571354474384d325242743775396636335177577664504e61777236476a6334376a6461557235432f37372e6a736f6e68747470733a2f2f697066732e696f2f697066732f516d5953554b6571354474384d325242743775396636335177577664504e61777236476a6334376a6461557235432f33372e6a736f6e68747470733a2f2f697066732e696f2f697066732f516d5953554b6571354474384d325242743775396636335177577664504e61777236476a6334376a6461557235432f31382e6a736f6e68747470733a2f2f697066732e696f2f697066732f516d5953554b6571354474384d325242743775396636335177577664504e61777236476a6334376a6461557235432f362e6a736f6e68747470733a2f2f697066732e696f2f697066732f516d5953554b6571354474384d325242743775396636335177577664504e61777236476a6334376a6461557235432f31392e6a736f6e68747470733a2f2f697066732e696f2f697066732f516d5953554b6571354474384d325242743775396636335177577664504e61777236476a6334376a6461557235432f34302e6a736f6e68747470733a2f2f697066732e696f2f697066732f516d5953554b6571354474384d325242743775396636335177577664504e61777236476a6334376a6461557235432f37332e6a736f6e68747470733a2f2f697066732e696f2f697066732f516d5953554b6571354474384d325242743775396636335177577664504e61777236476a6334376a6461557235432f34342e6a736f6e68747470733a2f2f697066732e696f2f697066732f516d5953554b6571354474384d325242743775396636335177577664504e61777236476a6334376a6461557235432f35352e6a736f6e68747470733a2f2f697066732e696f2f697066732f516d5953554b6571354474384d325242743775396636335177577664504e61777236476a6334376a6461557235432f35342e6a736f6e68747470733a2f2f697066732e696f2f697066732f516d5953554b6571354474384d325242743775396636335177577664504e61777236476a6334376a6461557235432f34382e6a736f6e68747470733a2f2f697066732e696f2f697066732f516d5953554b6571354474384d325242743775396636335177577664504e61777236476a6334376a6461557235432f36322e6a736f6e68747470733a2f2f697066732e696f2f697066732f516d5953554b6571354474384d325242743775396636335177577664504e61777236476a6334376a6461557235432f38352e6a736f6e68747470733a2f2f697066732e696f2f697066732f516d5953554b6571354474384d325242743775396636335177577664504e61777236476a6334376a6461557235432f31322e6a736f6e68747470733a2f2f697066732e696f2f697066732f516d5953554b6571354474384d325242743775396636335177577664504e61777236476a6334376a6461557235432f322e6a736f6e68747470733a2f2f697066732e696f2f697066732f516d5953554b6571354474384d325242743775396636335177577664504e61777236476a6334376a6461557235432f31302e6a736f6e68747470733a2f2f697066732e696f2f697066732f516d5953554b6571354474384d325242743775396636335177577664504e61777236476a6334376a6461557235432f382e6a736f6e68747470733a2f2f697066732e696f2f697066732f516d5953554b6571354474384d325242743775396636335177577664504e61777236476a6334376a6461557235432f32332e6a736f6e68747470733a2f2f697066732e696f2f697066732f516d5953554b6571354474384d325242743775396636335177577664504e61777236476a6334376a6461557235432f36382e6a736f6e68747470733a2f2f697066732e696f2f697066732f516d5953554b6571354474384d325242743775396636335177577664504e61777236476a6334376a6461557235432f37312e6a736f6e68747470733a2f2f697066732e696f2f697066732f516d5953554b6571354474384d325242743775396636335177577664504e61777236476a6334376a6461557235432f32322e6a736f6e68747470733a2f2f697066732e696f2f697066732f516d5953554b6571354474384d325242743775396636335177577664504e61777236476a6334376a6461557235432f3130302e6a736f6e68747470733a2f2f697066732e696f2f697066732f516d5953554b6571354474384d325242743775396636335177577664504e61777236476a6334376a6461557235432f36342e6a736f6e68747470733a2f2f697066732e696f2f697066732f516d5953554b6571354474384d325242743775396636335177577664504e61777236476a6334376a6461557235432f33322e6a736f6e68747470733a2f2f697066732e696f2f697066732f516d5953554b6571354474384d325242743775396636335177577664504e61777236476a6334376a6461557235432f392e6a736f6e68747470733a2f2f697066732e696f2f697066732f516d5953554b6571354474384d325242743775396636335177577664504e61777236476a6334376a6461557235432f39382e6a736f6e68747470733a2f2f697066732e696f2f697066732f516d5953554b6571354474384d325242743775396636335177577664504e61777236476a6334376a6461557235432f37352e6a736f6e68747470733a2f2f697066732e696f2f697066732f516d5953554b6571354474384d325242743775396636335177577664504e61777236476a6334376a6461557235432f35372e6a736f6e68747470733a2f2f697066732e696f2f697066732f516d5953554b6571354474384d325242743775396636335177577664504e61777236476a6334376a6461557235432f37302e6a736f6e68747470733a2f2f697066732e696f2f697066732f516d5953554b6571354474384d325242743775396636335177577664504e61777236476a6334376a6461557235432f38342e6a736f6e68747470733a2f2f697066732e696f2f697066732f516d5953554b6571354474384d325242743775396636335177577664504e61777236476a6334376a6461557235432f38392e6a736f6e68747470733a2f2f697066732e696f2f697066732f516d5953554b6571354474384d325242743775396636335177577664504e61777236476a6334376a6461557235432f35322e6a736f6e68747470733a2f2f697066732e696f2f697066732f516d5953554b6571354474384d325242743775396636335177577664504e61777236476a6334376a6461557235432f38322e6a736f6e68747470733a2f2f697066732e696f2f697066732f516d5953554b6571354474384d325242743775396636335177577664504e61777236476a6334376a6461557235432f33362e6a736f6e68747470733a2f2f697066732e696f2f697066732f516d5953554b6571354474384d325242743775396636335177577664504e61777236476a6334376a6461557235432f31352e6a736f6e68747470733a2f2f697066732e696f2f697066732f516d5953554b6571354474384d325242743775396636335177577664504e61777236476a6334376a6461557235432f31312e6a736f6e68747470733a2f2f697066732e696f2f697066732f516d5953554b6571354474384d325242743775396636335177577664504e61777236476a6334376a6461557235432f35392e6a736f6e68747470733a2f2f697066732e696f2f697066732f516d5953554b6571354474384d325242743775396636335177577664504e61777236476a6334376a6461557235432f36352e6a736f6e68747470733a2f2f697066732e696f2f697066732f516d5953554b6571354474384d325242743775396636335177577664504e61777236476a6334376a6461557235432f34372e6a736f6e68747470733a2f2f697066732e696f2f697066732f516d5953554b6571354474384d325242743775396636335177577664504e61777236476a6334376a6461557235432f37342e6a736f6e68747470733a2f2f697066732e696f2f697066732f516d5953554b6571354474384d325242743775396636335177577664504e61777236476a6334376a6461557235432f35312e6a736f6e68747470733a2f2f697066732e696f2f697066732f516d5953554b6571354474384d325242743775396636335177577664504e61777236476a6334376a6461557235432f33392e6a736f6e68747470733a2f2f697066732e696f2f697066732f516d5953554b6571354474384d325242743775396636335177577664504e61777236476a6334376a6461557235432f32382e6a736f6e68747470733a2f2f697066732e696f2f697066732f516d5953554b6571354474384d325242743775396636335177577664504e61777236476a6334376a6461557235432f34332e6a736f6e68747470733a2f2f697066732e696f2f697066732f516d5953554b6571354474384d325242743775396636335177577664504e61777236476a6334376a6461557235432f37362e6a736f6e68747470733a2f2f697066732e696f2f697066732f516d5953554b6571354474384d325242743775396636335177577664504e61777236476a6334376a6461557235432f34392e6a736f6e68747470733a2f2f697066732e696f2f697066732f516d5953554b6571354474384d325242743775396636335177577664504e61777236476a6334376a6461557235432f32392e6a736f6e68747470733a2f2f697066732e696f2f697066732f516d5953554b6571354474384d325242743775396636335177577664504e61777236476a6334376a6461557235432f39352e6a736f6e68747470733a2f2f697066732e696f2f697066732f516d5953554b6571354474384d325242743775396636335177577664504e61777236476a6334376a6461557235432f342e6a736f6e68747470733a2f2f697066732e696f2f697066732f516d5953554b6571354474384d325242743775396636335177577664504e61777236476a6334376a6461557235432f312e6a736f6e68747470733a2f2f697066732e696f2f697066732f516d5953554b6571354474384d325242743775396636335177577664504e61777236476a6334376a6461557235432f37382e6a736f6e68747470733a2f2f697066732e696f2f697066732f516d5953554b6571354474384d325242743775396636335177577664504e61777236476a6334376a6461557235432f372e6a736f6e68747470733a2f2f697066732e696f2f697066732f516d5953554b6571354474384d325242743775396636335177577664504e61777236476a6334376a6461557235432f38302e6a736f6e68747470733a2f2f697066732e696f2f697066732f516d5953554b6571354474384d325242743775396636335177577664504e61777236476a6334376a6461557235432f39322e6a736f6e68747470733a2f2f697066732e696f2f697066732f516d5953554b6571354474384d325242743775396636335177577664504e61777236476a6334376a6461557235432f34322e6a736f6e68747470733a2f2f697066732e696f2f697066732f516d5953554b6571354474384d325242743775396636335177577664504e61777236476a6334376a6461557235432f33332e6a736f6e",
  "devdoc": {
    "details": "This contracts bridges an OpenSea ERC1155 into the new Badcache ERC721.      Only owners of BadCache from OpenSea can mint new tokens once they transfer their NFT ownership to the BadcacheBridge.      An ERC721 will be minted once transfer is received",
    "kind": "dev",
    "methods": {
      "addAllowedToken(uint256,string,uint16)": {
        "details": "the owner can add new tokens into the allowed tokens list"
      },
      "checkBalance(address,uint256)": {
        "details": "check balance of an account and an id for the OpenSea ERC1155"
      },
      "constructor": {
        "details": "Initiating the tokens allowed to be received"
      },
      "getAddressesThatTransferedIds()": {
        "details": "get addreses that already sent a token to us"
      },
      "getBadCache721Proxiedtoken()": {
        "details": "get BadCache721 proxied token"
      },
      "getCustomIds()": {
        "details": "get ids of custom 721 tokens that were minted"
      },
      "getIds()": {
        "details": "get ids of tokens that were transfered"
      },
      "getOpenSeaProxiedtoken()": {
        "details": "get opensea proxied token"
      },
      "getTransferCount()": {
        "details": "get total transfer count"
      },
      "mintBadCache721(uint256,string,address)": {
        "details": "mint a custom 721 token by the owner"
      },
      "onERC1155Received(address,address,uint256,uint256,bytes)": {
        "details": "Triggered when we receive an ERC1155 from OpenSea and calls {mintBasedOnReceiving} Requirements: - `_sender` cannot be the zero address. - `_tokenId` needs to be part of our allowedIds. - `_tokenId` must not be minted before. Emits a {Transfer} event."
      },
      "onERC721Received(address,address,uint256,bytes)": {
        "details": "Triggered when we receive an ERC1155 from OpenSea and calls {mintBasedOnReceiving} Requirements: - `_sender` cannot be the zero address. - `_tokenId` needs to be part of our allowedIds. - `_tokenId` must not be minted before. Emits a {Transfer} event."
      },
      "owner()": {
        "details": "Returns the address of the current owner."
      },
      "ownerOf1155(uint256)": {
        "details": "check owner of a token on OpenSea token"
      },
      "renounceOwnership()": {
        "details": "Leaves the contract without owner. It will not be possible to call `onlyOwner` functions anymore. Can only be called by the current owner. NOTE: Renouncing ownership will leave the contract without an owner, thereby removing any functionality that is only available to the owner."
      },
      "setBadCache721(address)": {
        "details": "sets proxied token for BadCache721. You need to transfer the ownership of the 721 to the Bridge so the bridge can mint and transfer Requirements: - `_token` must not be address zero"
      },
      "setProxiedToken(address)": {
        "details": "sets proxied token for OpenSea. You need to get it from the mainnet https://etherscan.io/address/0x495f947276749ce646f68ac8c248420045cb7b5e Requirements: - `_token` must not be address zero"
      },
      "supportsInterface(bytes4)": {
        "details": "See {IERC165-supportsInterface}."
      },
      "transferBadCache1155(uint256,address)": {
        "details": "transfers a BadCache1155 Owned by the bridge to another owner Requirements: - `_token` must not be address zero"
      },
      "transferBadCache721(uint256,address)": {
        "details": "transfers a BadCache721 Owned by the bridge to another owner Requirements: - `_token` must not be address zero"
      },
      "transferOwnership(address)": {
        "details": "Transfers ownership of the contract to a new account (`newOwner`). Can only be called by the current owner."
      },
      "transferOwnershipOf721(address)": {
        "details": "transfers the ownership of BadCache721 token"
      }
    },
    "version": 1
  },
  "userdoc": {
    "kind": "user",
    "methods": {},
    "version": 1
  },
  "storageLayout": {
    "storage": [
      {
        "astId": 114,
        "contract": "contracts/BadCacheBridge.sol:BadCacheBridge",
        "label": "_status",
        "offset": 0,
        "slot": "0",
        "type": "t_uint256"
      },
      {
        "astId": 7,
        "contract": "contracts/BadCacheBridge.sol:BadCacheBridge",
        "label": "_owner",
        "offset": 0,
        "slot": "1",
        "type": "t_address"
      },
      {
        "astId": 629,
        "contract": "contracts/BadCacheBridge.sol:BadCacheBridge",
        "label": "openseaToken",
        "offset": 0,
        "slot": "2",
        "type": "t_address"
      },
      {
        "astId": 632,
        "contract": "contracts/BadCacheBridge.sol:BadCacheBridge",
        "label": "totalTransfers",
        "offset": 0,
        "slot": "3",
        "type": "t_uint128"
      },
      {
        "astId": 635,
        "contract": "contracts/BadCacheBridge.sol:BadCacheBridge",
        "label": "senders",
        "offset": 0,
        "slot": "4",
        "type": "t_array(t_address)dyn_storage"
      },
      {
        "astId": 641,
        "contract": "contracts/BadCacheBridge.sol:BadCacheBridge",
        "label": "transfers",
        "offset": 0,
        "slot": "5",
        "type": "t_mapping(t_uint128,t_mapping(t_address,t_uint256))"
      },
      {
        "astId": 644,
        "contract": "contracts/BadCacheBridge.sol:BadCacheBridge",
        "label": "badCache721",
        "offset": 0,
        "slot": "6",
        "type": "t_address"
      },
      {
        "astId": 648,
        "contract": "contracts/BadCacheBridge.sol:BadCacheBridge",
        "label": "tokenURIs",
        "offset": 0,
        "slot": "7",
        "type": "t_mapping(t_uint256,t_string_storage)"
      },
      {
        "astId": 651,
        "contract": "contracts/BadCacheBridge.sol:BadCacheBridge",
        "label": "allowedTokens",
        "offset": 0,
        "slot": "8",
        "type": "t_array(t_uint256)dyn_storage"
      },
      {
        "astId": 655,
        "contract": "contracts/BadCacheBridge.sol:BadCacheBridge",
        "label": "oldNewTokenIdPairs",
        "offset": 0,
        "slot": "9",
        "type": "t_mapping(t_uint256,t_uint16)"
      },
      {
        "astId": 659,
        "contract": "contracts/BadCacheBridge.sol:BadCacheBridge",
        "label": "newOldTokenIdPairs",
        "offset": 0,
        "slot": "10",
        "type": "t_mapping(t_uint16,t_uint256)"
      },
      {
        "astId": 662,
        "contract": "contracts/BadCacheBridge.sol:BadCacheBridge",
        "label": "newTokenIds",
        "offset": 0,
        "slot": "11",
        "type": "t_array(t_uint16)dyn_storage"
      },
      {
        "astId": 665,
        "contract": "contracts/BadCacheBridge.sol:BadCacheBridge",
        "label": "custom721Ids",
        "offset": 0,
        "slot": "12",
        "type": "t_array(t_uint256)dyn_storage"
      }
    ],
    "types": {
      "t_address": {
        "encoding": "inplace",
        "label": "address",
        "numberOfBytes": "20"
      },
      "t_array(t_address)dyn_storage": {
        "base": "t_address",
        "encoding": "dynamic_array",
        "label": "address[]",
        "numberOfBytes": "32"
      },
      "t_array(t_uint16)dyn_storage": {
        "base": "t_uint16",
        "encoding": "dynamic_array",
        "label": "uint16[]",
        "numberOfBytes": "32"
      },
      "t_array(t_uint256)dyn_storage": {
        "base": "t_uint256",
        "encoding": "dynamic_array",
        "label": "uint256[]",
        "numberOfBytes": "32"
      },
      "t_mapping(t_address,t_uint256)": {
        "encoding": "mapping",
        "key": "t_address",
        "label": "mapping(address => uint256)",
        "numberOfBytes": "32",
        "value": "t_uint256"
      },
      "t_mapping(t_uint128,t_mapping(t_address,t_uint256))": {
        "encoding": "mapping",
        "key": "t_uint128",
        "label": "mapping(uint128 => mapping(address => uint256))",
        "numberOfBytes": "32",
        "value": "t_mapping(t_address,t_uint256)"
      },
      "t_mapping(t_uint16,t_uint256)": {
        "encoding": "mapping",
        "key": "t_uint16",
        "label": "mapping(uint16 => uint256)",
        "numberOfBytes": "32",
        "value": "t_uint256"
      },
      "t_mapping(t_uint256,t_string_storage)": {
        "encoding": "mapping",
        "key": "t_uint256",
        "label": "mapping(uint256 => string)",
        "numberOfBytes": "32",
        "value": "t_string_storage"
      },
      "t_mapping(t_uint256,t_uint16)": {
        "encoding": "mapping",
        "key": "t_uint256",
        "label": "mapping(uint256 => uint16)",
        "numberOfBytes": "32",
        "value": "t_uint16"
      },
      "t_string_storage": {
        "encoding": "bytes",
        "label": "string",
        "numberOfBytes": "32"
      },
      "t_uint128": {
        "encoding": "inplace",
        "label": "uint128",
        "numberOfBytes": "16"
      },
      "t_uint16": {
        "encoding": "inplace",
        "label": "uint16",
        "numberOfBytes": "2"
      },
      "t_uint256": {
        "encoding": "inplace",
        "label": "uint256",
        "numberOfBytes": "32"
      }
    }
  }
}